{"abi":[{"type":"constructor","inputs":[{"name":"_collateralToken","type":"address","internalType":"address"},{"name":"_outcomeToken","type":"address","internalType":"address"},{"name":"_lpToken","type":"address","internalType":"address"},{"name":"_feeManager","type":"address","internalType":"address"},{"name":"_socialPredictions","type":"address","internalType":"address"}],"stateMutability":"nonpayable"},{"type":"function","name":"addLiquidity","inputs":[{"name":"amount","type":"uint256","internalType":"uint256"}],"outputs":[{"name":"lpTokensAmount","type":"uint256","internalType":"uint256"}],"stateMutability":"nonpayable"},{"type":"function","name":"burnCompleteSet","inputs":[{"name":"amount","type":"uint256","internalType":"uint256"}],"outputs":[],"stateMutability":"nonpayable"},{"type":"function","name":"buyShares","inputs":[{"name":"outcomeIndex","type":"uint8","internalType":"uint8"},{"name":"minShares","type":"uint256","internalType":"uint256"},{"name":"maxCost","type":"uint256","internalType":"uint256"}],"outputs":[{"name":"shares","type":"uint256","internalType":"uint256"},{"name":"cost","type":"uint256","internalType":"uint256"}],"stateMutability":"nonpayable"},{"type":"function","name":"checkArbitrage","inputs":[],"outputs":[{"name":"hasArbitrage","type":"bool","internalType":"bool"},{"name":"costDifference","type":"uint256","internalType":"uint256"}],"stateMutability":"view"},{"type":"function","name":"claimWinnings","inputs":[],"outputs":[{"name":"winnings","type":"uint256","internalType":"uint256"}],"stateMutability":"nonpayable"},{"type":"function","name":"collateralToken","inputs":[],"outputs":[{"name":"","type":"address","internalType":"contract IERC20"}],"stateMutability":"view"},{"type":"function","name":"feeManager","inputs":[],"outputs":[{"name":"","type":"address","internalType":"contract FeeManager"}],"stateMutability":"view"},{"type":"function","name":"getMarketState","inputs":[],"outputs":[{"name":"info","type":"tuple","internalType":"struct CategoricalMarket.MarketInfo","components":[{"name":"metadataURI","type":"bytes32","internalType":"bytes32"},{"name":"liquidityParameter","type":"uint256","internalType":"uint256"},{"name":"totalCollateral","type":"uint256","internalType":"uint256"},{"name":"liquidityPool","type":"uint256","internalType":"uint256"},{"name":"resolutionTime","type":"uint256","internalType":"uint256"},{"name":"createdAt","type":"uint256","internalType":"uint256"},{"name":"status","type":"uint8","internalType":"enum CategoricalMarket.MarketStatus"},{"name":"winningOutcome","type":"uint8","internalType":"uint8"},{"name":"oracleResolver","type":"address","internalType":"address"},{"name":"totalVolume","type":"uint256","internalType":"uint256"}]},{"name":"prices","type":"uint256[]","internalType":"uint256[]"},{"name":"quantities","type":"uint256[]","internalType":"uint256[]"}],"stateMutability":"view"},{"type":"function","name":"getOutcomePrices","inputs":[],"outputs":[{"name":"prices","type":"uint256[]","internalType":"uint256[]"}],"stateMutability":"view"},{"type":"function","name":"getUserPosition","inputs":[{"name":"user","type":"address","internalType":"address"}],"outputs":[{"name":"balances","type":"uint256[]","internalType":"uint256[]"},{"name":"currentValue","type":"uint256","internalType":"uint256"},{"name":"potentialWinnings","type":"uint256","internalType":"uint256"}],"stateMutability":"view"},{"type":"function","name":"hasClaimed","inputs":[{"name":"","type":"address","internalType":"address"}],"outputs":[{"name":"","type":"bool","internalType":"bool"}],"stateMutability":"view"},{"type":"function","name":"initialize","inputs":[{"name":"metadataURI","type":"bytes32","internalType":"bytes32"},{"name":"numOutcomes","type":"uint256","internalType":"uint256"},{"name":"resolutionTime","type":"uint256","internalType":"uint256"},{"name":"oracleResolver","type":"address","internalType":"address"},{"name":"initialLiquidity","type":"uint256","internalType":"uint256"}],"outputs":[],"stateMutability":"nonpayable"},{"type":"function","name":"lpToken","inputs":[],"outputs":[{"name":"","type":"address","internalType":"contract LPToken"}],"stateMutability":"view"},{"type":"function","name":"market","inputs":[],"outputs":[{"name":"metadataURI","type":"bytes32","internalType":"bytes32"},{"name":"liquidityParameter","type":"uint256","internalType":"uint256"},{"name":"totalCollateral","type":"uint256","internalType":"uint256"},{"name":"liquidityPool","type":"uint256","internalType":"uint256"},{"name":"resolutionTime","type":"uint256","internalType":"uint256"},{"name":"createdAt","type":"uint256","internalType":"uint256"},{"name":"status","type":"uint8","internalType":"enum CategoricalMarket.MarketStatus"},{"name":"winningOutcome","type":"uint8","internalType":"uint8"},{"name":"oracleResolver","type":"address","internalType":"address"},{"name":"totalVolume","type":"uint256","internalType":"uint256"}],"stateMutability":"view"},{"type":"function","name":"mintCompleteSet","inputs":[{"name":"amount","type":"uint256","internalType":"uint256"}],"outputs":[],"stateMutability":"nonpayable"},{"type":"function","name":"outcomeQuantities","inputs":[{"name":"","type":"uint256","internalType":"uint256"}],"outputs":[{"name":"","type":"uint256","internalType":"uint256"}],"stateMutability":"view"},{"type":"function","name":"outcomeToken","inputs":[],"outputs":[{"name":"","type":"address","internalType":"contract OutcomeToken"}],"stateMutability":"view"},{"type":"function","name":"removeLiquidity","inputs":[{"name":"lpTokensAmount","type":"uint256","internalType":"uint256"}],"outputs":[{"name":"collateralAmount","type":"uint256","internalType":"uint256"}],"stateMutability":"nonpayable"},{"type":"function","name":"resolveMarket","inputs":[{"name":"winningOutcomeIndex","type":"uint8","internalType":"uint8"}],"outputs":[],"stateMutability":"nonpayable"},{"type":"function","name":"sellShares","inputs":[{"name":"outcomeIndex","type":"uint8","internalType":"uint8"},{"name":"sharesToSell","type":"uint256","internalType":"uint256"},{"name":"minPayout","type":"uint256","internalType":"uint256"}],"outputs":[{"name":"payout","type":"uint256","internalType":"uint256"}],"stateMutability":"nonpayable"},{"type":"function","name":"simulateBuy","inputs":[{"name":"outcomeIndex","type":"uint8","internalType":"uint8"},{"name":"cost","type":"uint256","internalType":"uint256"}],"outputs":[{"name":"shares","type":"uint256","internalType":"uint256"},{"name":"totalCost","type":"uint256","internalType":"uint256"},{"name":"priceImpact","type":"uint256","internalType":"uint256"}],"stateMutability":"view"},{"type":"function","name":"simulateSell","inputs":[{"name":"outcomeIndex","type":"uint8","internalType":"uint8"},{"name":"sharesToSell","type":"uint256","internalType":"uint256"}],"outputs":[{"name":"payout","type":"uint256","internalType":"uint256"},{"name":"priceImpact","type":"uint256","internalType":"uint256"}],"stateMutability":"view"},{"type":"function","name":"socialPredictions","inputs":[],"outputs":[{"name":"","type":"address","internalType":"contract SocialPredictions"}],"stateMutability":"view"},{"type":"event","name":"LiquidityAdded","inputs":[{"name":"provider","type":"address","indexed":true,"internalType":"address"},{"name":"amount","type":"uint256","indexed":false,"internalType":"uint256"},{"name":"lpTokens","type":"uint256","indexed":false,"internalType":"uint256"}],"anonymous":false},{"type":"event","name":"LiquidityRemoved","inputs":[{"name":"provider","type":"address","indexed":true,"internalType":"address"},{"name":"lpTokens","type":"uint256","indexed":false,"internalType":"uint256"},{"name":"amount","type":"uint256","indexed":false,"internalType":"uint256"}],"anonymous":false},{"type":"event","name":"MarketInitialized","inputs":[{"name":"metadataURI","type":"bytes32","indexed":true,"internalType":"bytes32"},{"name":"numOutcomes","type":"uint256","indexed":false,"internalType":"uint256"},{"name":"resolutionTime","type":"uint256","indexed":false,"internalType":"uint256"},{"name":"oracle","type":"address","indexed":true,"internalType":"address"}],"anonymous":false},{"type":"event","name":"MarketResolved","inputs":[{"name":"winningOutcome","type":"uint8","indexed":true,"internalType":"uint8"},{"name":"timestamp","type":"uint256","indexed":false,"internalType":"uint256"}],"anonymous":false},{"type":"event","name":"SharesPurchased","inputs":[{"name":"user","type":"address","indexed":true,"internalType":"address"},{"name":"outcome","type":"uint8","indexed":true,"internalType":"uint8"},{"name":"shares","type":"uint256","indexed":false,"internalType":"uint256"},{"name":"cost","type":"uint256","indexed":false,"internalType":"uint256"}],"anonymous":false},{"type":"event","name":"SharesSold","inputs":[{"name":"user","type":"address","indexed":true,"internalType":"address"},{"name":"outcome","type":"uint8","indexed":true,"internalType":"uint8"},{"name":"shares","type":"uint256","indexed":false,"internalType":"uint256"},{"name":"payout","type":"uint256","indexed":false,"internalType":"uint256"}],"anonymous":false},{"type":"event","name":"WinningsClaimed","inputs":[{"name":"user","type":"address","indexed":true,"internalType":"address"},{"name":"amount","type":"uint256","indexed":false,"internalType":"uint256"}],"anonymous":false},{"type":"error","name":"AlreadyClaimed","inputs":[]},{"type":"error","name":"AlreadyInitialized","inputs":[]},{"type":"error","name":"InsufficientCollateral","inputs":[]},{"type":"error","name":"InsufficientShares","inputs":[]},{"type":"error","name":"InvalidAddress","inputs":[]},{"type":"error","name":"InvalidOutcome","inputs":[]},{"type":"error","name":"InvalidOutcomeCount","inputs":[]},{"type":"error","name":"InvalidParameter","inputs":[]},{"type":"error","name":"MarketNotActive","inputs":[]},{"type":"error","name":"MarketNotResolved","inputs":[]},{"type":"error","name":"NoLPTokens","inputs":[]},{"type":"error","name":"NotInitialized","inputs":[]},{"type":"error","name":"NothingToClaim","inputs":[]},{"type":"error","name":"OnlyOracle","inputs":[]},{"type":"error","name":"ReentrancyGuardReentrantCall","inputs":[]},{"type":"error","name":"ResolutionTimeNotReached","inputs":[]},{"type":"error","name":"ResolutionTimePassed","inputs":[]},{"type":"error","name":"SlippageExceeded","inputs":[]},{"type":"error","name":"ZeroAmount","inputs":[]}],"bytecode":{"object":"0x61012060405234801562000011575f80fd5b5060405162003f2738038062003f2783398101604081905262000034916200009e565b60017f9b779b17422d0df92223018b32b4d1fa46e071723d6817e2486d003becc55f00556001600160a01b0394851660805292841660a05290831660c052821660e05216610100526200010a565b80516001600160a01b038116811462000099575f80fd5b919050565b5f805f805f60a08688031215620000b3575f80fd5b620000be8662000082565b9450620000ce6020870162000082565b9350620000de6040870162000082565b9250620000ee6060870162000082565b9150620000fe6080870162000082565b90509295509295909350565b60805160a05160c05160e05161010051613d0d6200021a5f395f61021301525f81816103d20152818161083501528181610d6701528181610f48015281816118a401528181611dac01528181611ea5015261293901525f81816101d4015281816105dc015281816107aa0152818161168001528181611713015261182b01525f81816103540152818161091501528181610c7501528181610eb801528181611237015281816113a40152818161146401528181612067015281816121e201526122c101525f818161038e0152818161069e01528181610f1901528181610fea01528181611172015281816114f90152818161192401528181611e7e01528181611f4501526123380152613d0d5ff3fe608060405234801561000f575f80fd5b5060043610610148575f3560e01c8063941f30c9116100bf578063b401faf111610079578063b401faf1146103b0578063bb77ffdd146103b8578063d0fb0203146103cd578063d8165743146103f4578063ec3168d41461040b578063f21ffa6b1461042a575f80fd5b8063941f30c9146103165780639c8f9f2314610329578063a29c57161461033c578063a998d6d81461034f578063ac0bd1fb14610376578063b2016bd414610389575f80fd5b80636083678011610110578063608367801461020e5780636f8fa1e7146102355780636ffde0d71461026357806373b2e80e14610276578063809a7f38146102a857806380f55605146102bd575f80fd5b806306e48ce31461014c578063189c2bde1461017257806351c6590a1461019a5780635b7c2dad146101ad5780635fcbd285146101cf575b5f80fd5b61015f61015a3660046136c4565b61043d565b6040519081526020015b60405180910390f35b6101856101803660046136eb565b61045c565b60408051928352602083019190915201610169565b61015f6101a83660046136c4565b610557565b6101c06101bb366004613729565b6108ef565b6040516101699392919061377c565b6101f67f000000000000000000000000000000000000000000000000000000000000000081565b6040516001600160a01b039091168152602001610169565b6101f67f000000000000000000000000000000000000000000000000000000000000000081565b6102486102433660046136eb565b610aae565b60408051938452602084019290925290820152606001610169565b61015f6102713660046137a0565b610baf565b610298610284366004613729565b60096020525f908152604090205460ff1681565b6040519015158152602001610169565b6102bb6102b63660046136c4565b6110e2565b005b5f546001546002546003546004546005546006546007546103009796959493929160ff808216926101008304909116916201000090046001600160a01b0316908a565b6040516101699a99989796959493929190613804565b6102bb6103243660046136c4565b61130c565b61015f6103373660046136c4565b6115e7565b6102bb61034a366004613869565b6119f4565b6101f67f000000000000000000000000000000000000000000000000000000000000000081565b6101856103843660046137a0565b611c92565b6101f67f000000000000000000000000000000000000000000000000000000000000000081565b61015f612128565b6103c0612420565b60405161016991906138ac565b6101f67f000000000000000000000000000000000000000000000000000000000000000081565b6103fc612481565b604051610169939291906138be565b6104136125e5565b604080519215158352602083019190915201610169565b6102bb610438366004613972565b612656565b6008818154811061044c575f80fd5b5f91825260209091200154905081565b5f805f6104bd60088054806020026020016040519081016040528092919081815260200182805480156104ac57602002820191905f5260205f20905b815481526020019060010190808311610498575b505050505086865f6001015461277c565b90505f806104ca83612914565b9092509050806104da838561399f565b6104e4919061399f565b945061054b600880548060200260200160405190810160405280929190818152602001828054801561053357602002820191905f5260205f20905b81548152602001906001019080831161051f575b50505050508888610543906139b2565b6001546129e2565b93505050509250929050565b5f8060065460ff166002811115610570576105706137d0565b1461058e57604051635a90bb8d60e11b815260040160405180910390fd5b600a5460ff166105b1576040516321c4e35760e21b815260040160405180910390fd5b6105b9612c29565b815f036105d957604051631f2a200560e01b815260040160405180910390fd5b5f7f00000000000000000000000000000000000000000000000000000000000000006001600160a01b03166318160ddd6040518163ffffffff1660e01b8152600401602060405180830381865afa158015610636573d5f803e3d5ffd5b505050506040513d601f19601f8201168201806040525081019061065a91906139cc565b9050805f0361066b57829150610685565b60035461067882856139e3565b6106829190613a0e565b91505b6040516323b872dd60e01b81525f906001600160a01b037f000000000000000000000000000000000000000000000000000000000000000016906323b872dd906106d790339030908990600401613a21565b6020604051808303815f875af11580156106f3573d5f803e3d5ffd5b505050506040513d601f19601f820116820180604052508101906107179190613a45565b90508061073757604051633a23d82560e01b815260040160405180910390fd5b835f6003015f82825461074a9190613a64565b9091555050600280548591905f90610763908490613a64565b909155505060035461077690859061399f565b60035460015461078691906139e3565b6107909190613a0e565b6001556040516340c10f1960e01b81526001600160a01b037f000000000000000000000000000000000000000000000000000000000000000016906340c10f19906107e19033908790600401613a77565b5f604051808303815f87803b1580156107f8575f80fd5b505af115801561080a573d5f803e3d5ffd5b505060405163e914516760e01b815230600482015233602482015260448101879052606481018690527f00000000000000000000000000000000000000000000000000000000000000006001600160a01b0316925063e914516791506084015f604051808303815f87803b158015610880575f80fd5b505af1158015610892573d5f803e3d5ffd5b505060408051878152602081018790523393507fac1d76749e5447b7b16f5ab61447e1bd502f3bb4807af3b28e620d1700a6ee459250015b60405180910390a250506108ea60015f80516020613cb883398151915255565b919050565b604051631fd3259360e31b81526001600160a01b0382811660048301526060915f9182917f00000000000000000000000000000000000000000000000000000000000000009091169063fe992c98906024015f60405180830381865afa15801561095b573d5f803e3d5ffd5b505050506040513d5f823e601f3d908101601f191682016040526109829190810190613aa4565b92505f6109e160088054806020026020016040519081016040528092919081815260200182805480156109d257602002820191905f5260205f20905b8154815260200190600101908083116109be575b50505050505f60010154612c44565b90505f5b8451811015610a5357670de0b6b3a7640000828281518110610a0957610a09613b51565b6020026020010151868381518110610a2357610a23613b51565b6020026020010151610a3591906139e3565b610a3f9190613a0e565b610a499085613a64565b93506001016109e5565b505f5b8451811015610aa55782858281518110610a7257610a72613b51565b60200260200101511115610a9d57848181518110610a9257610a92613b51565b602002602001015192505b600101610a56565b50509193909250565b5f805f610abb8585612e5f565b92505f610b1c6008805480602002602001604051908101604052809291908181526020018280548015610b0b57602002820191905f5260205f20905b815481526020019060010190808311610af7575b505050505087865f60010154612f29565b90505f80610b2983612914565b909250905080610b398385613a64565b610b439190613a64565b9450610ba36008805480602002602001604051908101604052809291908181526020018280548015610b9257602002820191905f5260205f20905b815481526020019060010190808311610b7e575b505050505089885f600101546129e2565b93505050509250925092565b5f8060065460ff166002811115610bc857610bc86137d0565b14610be657604051635a90bb8d60e11b815260040160405180910390fd5b600a5460ff16610c09576040516321c4e35760e21b815260040160405180910390fd5b610c11612c29565b60085460ff851610610c365760405163c74a206d60e01b815260040160405180910390fd5b825f03610c5657604051631f2a200560e01b815260040160405180910390fd5b604051627eeac760e11b815233600482015260ff8516602482015283907f00000000000000000000000000000000000000000000000000000000000000006001600160a01b03169062fdd58e90604401602060405180830381865afa158015610cc1573d5f803e3d5ffd5b505050506040513d601f19601f82011682018060405250810190610ce591906139cc565b1015610d0457604051633999656760e01b815260040160405180910390fd5b5f610d6160088054806020026020016040519081016040528092919081815260200182805480156104ac57602002820191905f5260205f209081548152602001906001019080831161049857505050505086865f6001015461277c565b90505f807f00000000000000000000000000000000000000000000000000000000000000006001600160a01b031663cd81897730856040518363ffffffff1660e01b8152600401610db3929190613a77565b60408051808303815f875af1158015610dce573d5f803e3d5ffd5b505050506040513d601f19601f82011682018060405250810190610df29190613b65565b909250905080610e02838561399f565b610e0c919061399f565b935084841015610e2f57604051638199f5f360e01b815260040160405180910390fd5b8560088860ff1681548110610e4657610e46613b51565b905f5260205f20015f828254610e5c919061399f565b9091555050600280548491905f90610e7590849061399f565b9091555050600780548491905f90610e8e908490613a64565b9091555050604051637a94c56560e11b815233600482015260ff88166024820152604481018790527f00000000000000000000000000000000000000000000000000000000000000006001600160a01b03169063f5298aca906064015f604051808303815f87803b158015610f01575f80fd5b505af1158015610f13573d5f803e3d5ffd5b505050507f00000000000000000000000000000000000000000000000000000000000000006001600160a01b031663095ea7b37f00000000000000000000000000000000000000000000000000000000000000008385610f739190613a64565b6040518363ffffffff1660e01b8152600401610f90929190613a77565b6020604051808303815f875af1158015610fac573d5f803e3d5ffd5b505050506040513d601f19601f82011682018060405250810190610fd09190613a45565b5060405163a9059cbb60e01b81525f906001600160a01b037f0000000000000000000000000000000000000000000000000000000000000000169063a9059cbb906110219033908990600401613a77565b6020604051808303815f875af115801561103d573d5f803e3d5ffd5b505050506040513d601f19601f820116820180604052508101906110619190613a45565b90508061108157604051633a23d82560e01b815260040160405180910390fd5b604080518881526020810187905260ff8a169133917faa68026cba73386b81aaef0208a11ad1c3f8d1306cf0734631f076b7baea05ba910160405180910390a3505050506110db60015f80516020613cb883398151915255565b9392505050565b5f60065460ff1660028111156110fa576110fa6137d0565b1461111857604051635a90bb8d60e11b815260040160405180910390fd5b600a5460ff1661113b576040516321c4e35760e21b815260040160405180910390fd5b611143612c29565b805f0361116357604051631f2a200560e01b815260040160405180910390fd5b5f61116d82613078565b90505f7f00000000000000000000000000000000000000000000000000000000000000006001600160a01b03166323b872dd3330856040518463ffffffff1660e01b81526004016111c093929190613a21565b6020604051808303815f875af11580156111dc573d5f803e3d5ffd5b505050506040513d601f19601f820116820180604052508101906112009190613a45565b90508061122057604051633a23d82560e01b815260040160405180910390fd5b60405163bb2bff9760e01b81526001600160a01b037f0000000000000000000000000000000000000000000000000000000000000000169063bb2bff979061126e9033908790600401613a77565b5f604051808303815f87803b158015611285575f80fd5b505af1158015611297573d5f803e3d5ffd5b50505050815f6002015f8282546112ae9190613a64565b9091555050604080518481526020810184905260ff9133917fc1ab9d71477e1b8bc6e836e1816edbaa2f57a1a23338caa2ce0a9b1b1db62108910160405180910390a3505061130960015f80516020613cb883398151915255565b50565b5f60065460ff166002811115611324576113246137d0565b1461134257604051635a90bb8d60e11b815260040160405180910390fd5b600a5460ff16611365576040516321c4e35760e21b815260040160405180910390fd5b61136d612c29565b805f0361138d57604051631f2a200560e01b815260040160405180910390fd5b604051631fd3259360e31b81523360048201525f907f00000000000000000000000000000000000000000000000000000000000000006001600160a01b03169063fe992c98906024015f60405180830381865afa1580156113f0573d5f803e3d5ffd5b505050506040513d5f823e601f3d908101601f191682016040526114179190810190613aa4565b9050611423818361309d565b61144057604051633999656760e01b815260040160405180910390fd5b5f61144a83613078565b6040516349ff049960e11b81529091506001600160a01b037f000000000000000000000000000000000000000000000000000000000000000016906393fe09329061149b9033908790600401613a77565b5f604051808303815f87803b1580156114b2575f80fd5b505af11580156114c4573d5f803e3d5ffd5b50505050805f6002015f8282546114db919061399f565b909155505060405163a9059cbb60e01b81525f906001600160a01b037f0000000000000000000000000000000000000000000000000000000000000000169063a9059cbb906115309033908690600401613a77565b6020604051808303815f875af115801561154c573d5f803e3d5ffd5b505050506040513d601f19601f820116820180604052508101906115709190613a45565b90508061159057604051633a23d82560e01b815260040160405180910390fd5b604080518581526020810184905260ff9133917faa68026cba73386b81aaef0208a11ad1c3f8d1306cf0734631f076b7baea05ba910160405180910390a350505061130960015f80516020613cb883398151915255565b5f8060065460ff166002811115611600576116006137d0565b1461161e57604051635a90bb8d60e11b815260040160405180910390fd5b600a5460ff16611641576040516321c4e35760e21b815260040160405180910390fd5b611649612c29565b815f0361166957604051631f2a200560e01b815260040160405180910390fd5b6040516370a0823160e01b815233600482015282907f00000000000000000000000000000000000000000000000000000000000000006001600160a01b0316906370a0823190602401602060405180830381865afa1580156116cd573d5f803e3d5ffd5b505050506040513d601f19601f820116820180604052508101906116f191906139cc565b10156117105760405163ee2c70d160e01b815260040160405180910390fd5b5f7f00000000000000000000000000000000000000000000000000000000000000006001600160a01b03166318160ddd6040518163ffffffff1660e01b8152600401602060405180830381865afa15801561176d573d5f803e3d5ffd5b505050506040513d601f19601f8201168201806040525081019061179191906139cc565b60035490915081906117a390856139e3565b6117ad9190613a0e565b9150815f6003015f8282546117c2919061399f565b9091555050600280548391905f906117db90849061399f565b909155505060035415611814576003546117f6908390613a64565b60035460015461180691906139e3565b6118109190613a0e565b6001555b604051632770a7eb60e21b81526001600160a01b037f00000000000000000000000000000000000000000000000000000000000000001690639dc29fac906118629033908790600401613a77565b5f604051808303815f87803b158015611879575f80fd5b505af115801561188b573d5f803e3d5ffd5b5050604051630c70722560e31b81526001600160a01b037f0000000000000000000000000000000000000000000000000000000000000000169250636383912891506118df90309033908890600401613a21565b5f604051808303815f87803b1580156118f6575f80fd5b505af1158015611908573d5f803e3d5ffd5b505060405163a9059cbb60e01b81525f92506001600160a01b037f000000000000000000000000000000000000000000000000000000000000000016915063a9059cbb9061195c9033908790600401613a77565b6020604051808303815f875af1158015611978573d5f803e3d5ffd5b505050506040513d601f19601f8201168201806040525081019061199c9190613a45565b9050806119bc57604051633a23d82560e01b815260040160405180910390fd5b604080518581526020810185905233917f96cd817c6329656790ef8fba7675405193677d39619571282f5e21f3a98cd05991016108ca565b600a5460ff1615611a175760405162dc149f60e41b815260040160405180910390fd5b84611a3557604051630309cb8760e51b815260040160405180910390fd5b6002841080611a445750600a84115b15611a625760405163162cc9e360e11b815260040160405180910390fd5b428311611a8257604051636a859ca960e01b815260040160405180910390fd5b6001600160a01b038216611aa95760405163e6c4247b60e01b815260040160405180910390fd5b805f03611ac957604051631f2a200560e01b815260040160405180910390fd5b600a805460ff191660011790555f611ae185836130e5565b90506040518061014001604052808781526020018281526020015f81526020015f81526020018581526020014281526020015f6002811115611b2557611b256137d0565b81525f60208083018290526001600160a01b03871660408085019190915260609384018390528451835590840151600190815590840151600290815592840151600355608084015160045560a084015160055560c08401516006805493949193909260ff19909116918490811115611b9f57611b9f6137d0565b021790555060e0820151600682018054610100808601516001600160a01b0316620100000262010000600160b01b031960ff90951690910293909316610100600160b01b031990911617919091179055610120909101516007909101555f5b85811015611c435760088054600181810183555f9283527ff3f7a9fe364faab93b216da50a3214154f22a0a2b415b23a84c8169e8b636ee39091019190915501611bfe565b5060408051868152602081018690526001600160a01b0385169188917f25233672eef7af114ff83aafd241b1526bdcd9a2e909550ce8d518b89b93a8a7910160405180910390a3505050505050565b5f808060065460ff166002811115611cac57611cac6137d0565b14611cca57604051635a90bb8d60e11b815260040160405180910390fd5b600a5460ff16611ced576040516321c4e35760e21b815260040160405180910390fd5b611cf5612c29565b60085460ff861610611d1a5760405163c74a206d60e01b815260040160405180910390fd5b611d248584612e5f565b915083821015611d4757604051638199f5f360e01b815260040160405180910390fd5b5f611da66008805480602002602001604051908101604052809291908181526020018280548015611d9557602002820191905f5260205f20905b815481526020019060010190808311611d81575b505050505087855f60010154612f29565b90505f807f00000000000000000000000000000000000000000000000000000000000000006001600160a01b031663cd81897730856040518363ffffffff1660e01b8152600401611df8929190613a77565b60408051808303815f875af1158015611e13573d5f803e3d5ffd5b505050506040513d601f19601f82011682018060405250810190611e379190613b65565b909250905080611e478385613a64565b611e519190613a64565b935085841115611e7457604051638199f5f360e01b815260040160405180910390fd5b6001600160a01b037f00000000000000000000000000000000000000000000000000000000000000001663095ea7b37f0000000000000000000000000000000000000000000000000000000000000000611ece8486613a64565b6040518363ffffffff1660e01b8152600401611eeb929190613a77565b6020604051808303815f875af1158015611f07573d5f803e3d5ffd5b505050506040513d601f19601f82011682018060405250810190611f2b9190613a45565b506040516323b872dd60e01b81525f906001600160a01b037f000000000000000000000000000000000000000000000000000000000000000016906323b872dd90611f7e90339030908a90600401613a21565b6020604051808303815f875af1158015611f9a573d5f803e3d5ffd5b505050506040513d601f19601f82011682018060405250810190611fbe9190613a45565b905080611fde57604051633a23d82560e01b815260040160405180910390fd5b8560088a60ff1681548110611ff557611ff5613b51565b905f5260205f20015f82825461200b9190613a64565b9091555050600280548591905f90612024908490613a64565b9091555050600780548591905f9061203d908490613a64565b9091555050604051630ab714fb60e11b815233600482015260ff8a166024820152604481018790527f00000000000000000000000000000000000000000000000000000000000000006001600160a01b03169063156e29f6906064015f604051808303815f87803b1580156120b0575f80fd5b505af11580156120c2573d5f803e3d5ffd5b5050604080518981526020810189905260ff8d1693503392507fc1ab9d71477e1b8bc6e836e1816edbaa2f57a1a23338caa2ce0a9b1b1db62108910160405180910390a35050505061212060015f80516020613cb883398151915255565b935093915050565b5f600160065460ff166002811115612142576121426137d0565b146121605760405163174b639360e11b815260040160405180910390fd5b600a5460ff16612183576040516321c4e35760e21b815260040160405180910390fd5b61218b612c29565b335f9081526009602052604090205460ff16156121bb57604051630c8d9eab60e31b815260040160405180910390fd5b600654604051627eeac760e11b815233600482015261010090910460ff1660248201525f907f00000000000000000000000000000000000000000000000000000000000000006001600160a01b03169062fdd58e90604401602060405180830381865afa15801561222e573d5f803e3d5ffd5b505050506040513d601f19601f8201168201806040525081019061225291906139cc565b9050805f03612274576040516312d37ee560e31b815260040160405180910390fd5b335f8181526009602052604090819020805460ff191660011790556006549051637a94c56560e11b81526004810192909252610100900460ff1660248201526044810182905290915081907f00000000000000000000000000000000000000000000000000000000000000006001600160a01b03169063f5298aca906064015f604051808303815f87803b15801561230a575f80fd5b505af115801561231c573d5f803e3d5ffd5b505060405163a9059cbb60e01b81525f92506001600160a01b037f000000000000000000000000000000000000000000000000000000000000000016915063a9059cbb906123709033908790600401613a77565b6020604051808303815f875af115801561238c573d5f803e3d5ffd5b505050506040513d601f19601f820116820180604052508101906123b09190613a45565b9050806123d057604051633a23d82560e01b815260040160405180910390fd5b60405183815233907f1a31e733a172afcf46074b3106c17f0c298e226442682a03c1e99ce256139ec29060200160405180910390a2505061241d60015f80516020613cb883398151915255565b90565b606061247c60088054806020026020016040519081016040528092919081815260200182805480156109d257602002820191905f5260205f20908154815260200190600101908083116109be5750505050505f60010154612c44565b905090565b612489613665565b60408051610140810182525f8054825260015460208301526002805493830193909352600354606083810191909152600454608084015260055460a084015260065490938493929160c084019160ff909116908111156124eb576124eb6137d0565b60028111156124fc576124fc6137d0565b81526006820154610100810460ff16602080840191909152620100009091046001600160a01b0316604080840191909152600790930154606090920191909152600880548351818402810184019094528084529396506125929390918301828280156109d257602002820191905f5260205f20908154815260200190600101908083116109be5750505050505f60010154612c44565b60088054604080516020808402820181019092528281529395508301828280156125d957602002820191905f5260205f20905b8154815260200190600101908083116125c5575b50505050509050909192565b5f805f61264260088054806020026020016040519081016040528092919081815260200182805480156109d257602002820191905f5260205f20908154815260200190600101908083116109be5750505050505f60010154612c44565b905061264d81613173565b92509250509091565b6006546201000090046001600160a01b03163314612687576040516380fee10560e01b815260040160405180910390fd5b5f60065460ff16600281111561269f5761269f6137d0565b146126bd57604051635a90bb8d60e11b815260040160405180910390fd5b600a5460ff166126e0576040516321c4e35760e21b815260040160405180910390fd5b6004544210156127035760405163dca075a360e01b815260040160405180910390fd5b60085460ff8216106127285760405163c74a206d60e01b815260040160405180910390fd5b6006805460ff8316610100810261ffff19909216919091176001179091556040514281527fcbbe35de088a5a787855818a0fda296aeb95f616e7b99c7dcb0bf96b5697e22b9060200160405180910390a250565b5f84518460ff16106127a15760405163c74a206d60e01b815260040160405180910390fd5b825f036127c157604051631f2a200560e01b815260040160405180910390fd5b848460ff16815181106127d6576127d6613b51565b60200260200101518311156127fe57604051633999656760e01b815260040160405180910390fd5b5f6128098684613211565b90505f865167ffffffffffffffff81111561282657612826613a90565b60405190808252806020026020018201604052801561284f578160200160208202803683370190505b5090505f5b87518110156128f0578660ff1681036128af578588828151811061287a5761287a613b51565b602002602001015161288c919061399f565b82828151811061289e5761289e613b51565b6020026020010181815250506128e8565b8781815181106128c1576128c1613b51565b60200260200101518282815181106128db576128db613b51565b6020026020010181815250505b600101612854565b505f6128fc8286613211565b9050612908818461399f565b98975050505050505050565b604051635aa70de560e11b81523060048201525f908190819081906001600160a01b037f0000000000000000000000000000000000000000000000000000000000000000169063b54e1bca90602401606060405180830381865afa15801561297e573d5f803e3d5ffd5b505050506040513d601f19601f820116820180604052508101906129a29190613b87565b925092505061271082866129b691906139e3565b6129c09190613a0e565b93506127106129cf82876139e3565b6129d99190613a0e565b92505050915091565b5f806129ee8684612c44565b90505f865167ffffffffffffffff811115612a0b57612a0b613a90565b604051908082528060200260200182016040528015612a34578160200160208202803683370190505b5090505f5b8751811015612b0a578660ff168103612ac9575f861315612a9c5785888281518110612a6757612a67613b51565b6020026020010151612a799190613a64565b828281518110612a8b57612a8b613b51565b602002602001018181525050612b02565b612aa5866139b2565b888281518110612ab757612ab7613b51565b6020026020010151612a79919061399f565b878181518110612adb57612adb613b51565b6020026020010151828281518110612af557612af5613b51565b6020026020010181815250505b600101612a39565b505f612b168286612c44565b90505f838860ff1681518110612b2e57612b2e613b51565b6020026020010151828960ff1681518110612b4b57612b4b613b51565b602002602001015111612ba157818860ff1681518110612b6d57612b6d613b51565b6020026020010151848960ff1681518110612b8a57612b8a613b51565b6020026020010151612b9c919061399f565b612be5565b838860ff1681518110612bb657612bb6613b51565b6020026020010151828960ff1681518110612bd357612bd3613b51565b6020026020010151612be5919061399f565b9050838860ff1681518110612bfc57612bfc613b51565b602002602001015181612710612c1291906139e3565b612c1c9190613a0e565b9998505050505050505050565b612c3161334b565b60025f80516020613cb883398151915255565b6060825167ffffffffffffffff811115612c6057612c60613a90565b604051908082528060200260200182016040528015612c89578160200160208202803683370190505b5090505f805b8451811015612cde5781858281518110612cab57612cab613b51565b60200260200101511115612cd657848181518110612ccb57612ccb613b51565b602002602001015191505b600101612c8f565b505f845167ffffffffffffffff811115612cfa57612cfa613a90565b604051908082528060200260200182016040528015612d23578160200160208202803683370190505b5090505f805b8651811015612deb575f86612d46670de0b6b3a7640000876139e3565b612d509190613a0e565b87670de0b6b3a76400008a8581518110612d6c57612d6c613b51565b6020026020010151612d7e91906139e3565b612d889190613a0e565b612d929190613bb2565b9050612d9d81613384565b848381518110612daf57612daf613b51565b602002602001018181525050838281518110612dcd57612dcd613b51565b602002602001015183612de09190613a64565b925050600101612d29565b505f5b8651811015612e545781670de0b6b3a7640000848381518110612e1357612e13613b51565b6020026020010151612e2591906139e3565b612e2f9190613a0e565b858281518110612e4157612e41613b51565b6020908102919091010152600101612dee565b505050505b92915050565b5f8080612e6d8460026139e3565b90505b80821015612f21575f6002612e858385613a64565b612e90906001613a64565b612e9a9190613a0e565b90505f612efb6008805480602002602001604051908101604052809291908181526020018280548015612eea57602002820191905f5260205f20905b815481526020019060010190808311612ed6575b505050505088845f60010154612f29565b9050858111612f0c57819350612f1a565b612f1760018361399f565b92505b5050612e70565b509392505050565b5f84518460ff1610612f4e5760405163c74a206d60e01b815260040160405180910390fd5b825f03612f6e57604051631f2a200560e01b815260040160405180910390fd5b5f612f798684613211565b90505f865167ffffffffffffffff811115612f9657612f96613a90565b604051908082528060200260200182016040528015612fbf578160200160208202803683370190505b5090505f5b8751811015613060578660ff16810361301f5785888281518110612fea57612fea613b51565b6020026020010151612ffc9190613a64565b82828151811061300e5761300e613b51565b602002602001018181525050613058565b87818151811061303157613031613b51565b602002602001015182828151811061304b5761304b613b51565b6020026020010181815250505b600101612fc4565b505f61306c8286613211565b9050612908838261399f565b5f815f0361309957604051631f2a200560e01b815260040160405180910390fd5b5090565b5f805b83518110156130db57828482815181106130bc576130bc613b51565b602002602001015110156130d3575f915050612e59565b6001016130a0565b5060019392505050565b5f8215806130f35750600a83115b156131115760405163162cc9e360e11b815260040160405180910390fd5b815f0361313157604051631f2a200560e01b815260040160405180910390fd5b5f61314c613147670de0b6b3a7640000866139e3565b6134f4565b905080613161670de0b6b3a7640000856139e3565b61316b9190613a0e565b949350505050565b5f805f805b84518110156131b05784818151811061319357613193613b51565b6020026020010151826131a69190613a64565b9150600101613178565b50670de0b6b3a76400008111156131de57600192506131d7670de0b6b3a76400008261399f565b915061320b565b670de0b6b3a764000081101561320457600192506131d781670de0b6b3a764000061399f565b5f92505f91505b50915091565b5f815f0361323257604051630309cb8760e51b815260040160405180910390fd5b5f805b8451811015613284578185828151811061325157613251613b51565b6020026020010151111561327c5784818151811061327157613271613b51565b602002602001015191505b600101613235565b505f805b8551811015613311575f856132a5670de0b6b3a7640000866139e3565b6132af9190613a0e565b86670de0b6b3a76400008985815181106132cb576132cb613b51565b60200260200101516132dd91906139e3565b6132e79190613a0e565b6132f19190613bb2565b90506132fc81613384565b6133069084613a64565b925050600101613288565b50670de0b6b3a7640000613324826134f4565b61332e90866139e3565b6133389190613a0e565b6133429083613a64565b95945050505050565b6133645f60025f80516020613cb883398151915261365e565b1561338257604051633ee5aeb560e01b815260040160405180910390fd5b565b5f815f0361339b5750670de0b6b3a7640000919050565b5f80831290816133ab57836133b4565b6133b4846139b2565b90506133c9670de0b6b3a764000060146139e3565b8111156133fa57816133f0576133eb670de0b6b3a7640000631ceb088b6139e3565b61316b565b6001949350505050565b5f61340d670de0b6b3a764000083613a0e565b90505f613422670de0b6b3a764000084613bd8565b9050670de0b6b3a76400008160015b600f8111613492576134438284613a64565b9250613450816001613a64565b61346290670de0b6b3a76400006139e3565b61346c85846139e3565b6134769190613a0e565b915060018210613492578061348a81613beb565b915050613431565b506725b946ebc0b361735f5b858110156134cd57670de0b6b3a76400006134b983866139e3565b6134c39190613a0e565b935060010161349e565b5086156134e75782612c12670de0b6b3a7640000806139e3565b5090979650505050505050565b5f815f0361351557604051630309cb8760e51b815260040160405180910390fd5b670de0b6b3a7640000820361352b57505f919050565b5f825b613541670de0b6b3a764000060026139e3565b811061356657613552600282613a0e565b90508161355e81613c03565b92505061352e565b6135796002670de0b6b3a7640000613a0e565b81101561359f5761358b8160026139e3565b90508161359781613c1a565b925050613566565b5f6135b2670de0b6b3a764000083613bb2565b90505f8160015b600a81116136405760018111156135ea57670de0b6b3a76400006135dd8584613c35565b6135e79190613c64565b91505b6135f5600282613bd8565b600103613617576136068183613c64565b6136109084613c90565b925061362e565b6136218183613c64565b61362b9084613bb2565b92505b8061363881613beb565b9150506135b9565b5067099e8db03256ce5d6136548187613c35565b6129089084613c90565b5414919050565b6040518061014001604052805f80191681526020015f81526020015f81526020015f81526020015f81526020015f81526020015f60028111156136aa576136aa6137d0565b81525f602082018190526040820181905260609091015290565b5f602082840312156136d4575f80fd5b5035919050565b803560ff811681146108ea575f80fd5b5f80604083850312156136fc575f80fd5b613705836136db565b946020939093013593505050565b80356001600160a01b03811681146108ea575f80fd5b5f60208284031215613739575f80fd5b6110db82613713565b5f815180845260208085019450602084015f5b8381101561377157815187529582019590820190600101613755565b509495945050505050565b606081525f61378e6060830186613742565b60208301949094525060400152919050565b5f805f606084860312156137b2575f80fd5b6137bb846136db565b95602085013595506040909401359392505050565b634e487b7160e01b5f52602160045260245ffd5b6003811061380057634e487b7160e01b5f52602160045260245ffd5b9052565b5f610140820190508b82528a60208301528960408301528860608301528760808301528660a083015261383a60c08301876137e4565b60ff9490941660e08201526001600160a01b039290921661010083015261012090910152979650505050505050565b5f805f805f60a0868803121561387d575f80fd5b85359450602086013593506040860135925061389b60608701613713565b949793965091946080013592915050565b602081525f6110db6020830184613742565b5f610180855183526020860151602084015260408601516040840152606086015160608401526080860151608084015260a086015160a084015260c086015161390a60c08501826137e4565b5060e086015161391f60e085018260ff169052565b50610100868101516001600160a01b0316908401526101208087015190840152610140830181905261395381840186613742565b90508281036101608401526139688185613742565b9695505050505050565b5f60208284031215613982575f80fd5b6110db826136db565b634e487b7160e01b5f52601160045260245ffd5b81810381811115612e5957612e5961398b565b5f600160ff1b82016139c6576139c661398b565b505f0390565b5f602082840312156139dc575f80fd5b5051919050565b8082028115828204841417612e5957612e5961398b565b634e487b7160e01b5f52601260045260245ffd5b5f82613a1c57613a1c6139fa565b500490565b6001600160a01b039384168152919092166020820152604081019190915260600190565b5f60208284031215613a55575f80fd5b815180151581146110db575f80fd5b80820180821115612e5957612e5961398b565b6001600160a01b03929092168252602082015260400190565b634e487b7160e01b5f52604160045260245ffd5b5f6020808385031215613ab5575f80fd5b825167ffffffffffffffff80821115613acc575f80fd5b818501915085601f830112613adf575f80fd5b815181811115613af157613af1613a90565b8060051b604051601f19603f83011681018181108582111715613b1657613b16613a90565b604052918252848201925083810185019188831115613b33575f80fd5b938501935b8285101561290857845184529385019392850192613b38565b634e487b7160e01b5f52603260045260245ffd5b5f8060408385031215613b76575f80fd5b505080516020909101519092909150565b5f805f60608486031215613b99575f80fd5b8351925060208401519150604084015190509250925092565b8181035f831280158383131683831282161715613bd157613bd161398b565b5092915050565b5f82613be657613be66139fa565b500690565b5f60018201613bfc57613bfc61398b565b5060010190565b5f6001600160ff1b018201613bfc57613bfc61398b565b5f600160ff1b8201613c2e57613c2e61398b565b505f190190565b8082025f8212600160ff1b84141615613c5057613c5061398b565b8181058314821517612e5957612e5961398b565b5f82613c7257613c726139fa565b600160ff1b82145f1984141615613c8b57613c8b61398b565b500590565b8082018281125f831280158216821582161715613caf57613caf61398b565b50509291505056fe9b779b17422d0df92223018b32b4d1fa46e071723d6817e2486d003becc55f00a2646970667358221220148883a477e9a75a7f8852045d44501bdeacff9c998910c9315161d2200b43c864736f6c63430008180033","linkReferences":{}},"methodIdentifiers":{"addLiquidity(uint256)":"51c6590a","burnCompleteSet(uint256)":"941f30c9","buyShares(uint8,uint256,uint256)":"ac0bd1fb","checkArbitrage()":"ec3168d4","claimWinnings()":"b401faf1","collateralToken()":"b2016bd4","feeManager()":"d0fb0203","getMarketState()":"d8165743","getOutcomePrices()":"bb77ffdd","getUserPosition(address)":"5b7c2dad","hasClaimed(address)":"73b2e80e","initialize(bytes32,uint256,uint256,address,uint256)":"a29c5716","lpToken()":"5fcbd285","market()":"80f55605","mintCompleteSet(uint256)":"809a7f38","outcomeQuantities(uint256)":"06e48ce3","outcomeToken()":"a998d6d8","removeLiquidity(uint256)":"9c8f9f23","resolveMarket(uint8)":"f21ffa6b","sellShares(uint8,uint256,uint256)":"6ffde0d7","simulateBuy(uint8,uint256)":"6f8fa1e7","simulateSell(uint8,uint256)":"189c2bde","socialPredictions()":"60836780"},"id":43}