{"abi":[{"type":"constructor","inputs":[{"name":"_collateralToken","type":"address","internalType":"address"},{"name":"_outcomeToken","type":"address","internalType":"address"},{"name":"_lpToken","type":"address","internalType":"address"},{"name":"_feeManager","type":"address","internalType":"address"},{"name":"_socialPredictions","type":"address","internalType":"address"}],"stateMutability":"nonpayable"},{"type":"function","name":"addLiquidity","inputs":[{"name":"amount","type":"uint256","internalType":"uint256"}],"outputs":[{"name":"lpTokensAmount","type":"uint256","internalType":"uint256"}],"stateMutability":"nonpayable"},{"type":"function","name":"burnCompleteSet","inputs":[{"name":"amount","type":"uint256","internalType":"uint256"}],"outputs":[],"stateMutability":"nonpayable"},{"type":"function","name":"buyShares","inputs":[{"name":"outcomeIndex","type":"uint8","internalType":"uint8"},{"name":"minShares","type":"uint256","internalType":"uint256"},{"name":"maxCost","type":"uint256","internalType":"uint256"}],"outputs":[{"name":"shares","type":"uint256","internalType":"uint256"},{"name":"cost","type":"uint256","internalType":"uint256"}],"stateMutability":"nonpayable"},{"type":"function","name":"checkArbitrage","inputs":[],"outputs":[{"name":"hasArbitrage","type":"bool","internalType":"bool"},{"name":"costDifference","type":"uint256","internalType":"uint256"}],"stateMutability":"view"},{"type":"function","name":"claimWinnings","inputs":[],"outputs":[{"name":"winnings","type":"uint256","internalType":"uint256"}],"stateMutability":"nonpayable"},{"type":"function","name":"collateralToken","inputs":[],"outputs":[{"name":"","type":"address","internalType":"contract IERC20"}],"stateMutability":"view"},{"type":"function","name":"feeManager","inputs":[],"outputs":[{"name":"","type":"address","internalType":"contract FeeManager"}],"stateMutability":"view"},{"type":"function","name":"getMarketState","inputs":[],"outputs":[{"name":"info","type":"tuple","internalType":"struct CategoricalMarket.MarketInfo","components":[{"name":"metadataURI","type":"bytes32","internalType":"bytes32"},{"name":"liquidityParameter","type":"uint256","internalType":"uint256"},{"name":"totalCollateral","type":"uint256","internalType":"uint256"},{"name":"liquidityPool","type":"uint256","internalType":"uint256"},{"name":"resolutionTime","type":"uint256","internalType":"uint256"},{"name":"createdAt","type":"uint256","internalType":"uint256"},{"name":"status","type":"uint8","internalType":"enum CategoricalMarket.MarketStatus"},{"name":"winningOutcome","type":"uint8","internalType":"uint8"},{"name":"oracleResolver","type":"address","internalType":"address"},{"name":"totalVolume","type":"uint256","internalType":"uint256"}]},{"name":"prices","type":"uint256[]","internalType":"uint256[]"},{"name":"quantities","type":"uint256[]","internalType":"uint256[]"}],"stateMutability":"view"},{"type":"function","name":"getOutcomePrices","inputs":[],"outputs":[{"name":"prices","type":"uint256[]","internalType":"uint256[]"}],"stateMutability":"view"},{"type":"function","name":"getUserPosition","inputs":[{"name":"user","type":"address","internalType":"address"}],"outputs":[{"name":"balances","type":"uint256[]","internalType":"uint256[]"},{"name":"currentValue","type":"uint256","internalType":"uint256"},{"name":"potentialWinnings","type":"uint256","internalType":"uint256"}],"stateMutability":"view"},{"type":"function","name":"hasClaimed","inputs":[{"name":"","type":"address","internalType":"address"}],"outputs":[{"name":"","type":"bool","internalType":"bool"}],"stateMutability":"view"},{"type":"function","name":"initialize","inputs":[{"name":"metadataURI","type":"bytes32","internalType":"bytes32"},{"name":"numOutcomes","type":"uint256","internalType":"uint256"},{"name":"resolutionTime","type":"uint256","internalType":"uint256"},{"name":"oracleResolver","type":"address","internalType":"address"},{"name":"initialLiquidity","type":"uint256","internalType":"uint256"},{"name":"_outcomeToken","type":"address","internalType":"address"},{"name":"_lpToken","type":"address","internalType":"address"}],"outputs":[],"stateMutability":"nonpayable"},{"type":"function","name":"lpToken","inputs":[],"outputs":[{"name":"","type":"address","internalType":"contract LPToken"}],"stateMutability":"view"},{"type":"function","name":"market","inputs":[],"outputs":[{"name":"metadataURI","type":"bytes32","internalType":"bytes32"},{"name":"liquidityParameter","type":"uint256","internalType":"uint256"},{"name":"totalCollateral","type":"uint256","internalType":"uint256"},{"name":"liquidityPool","type":"uint256","internalType":"uint256"},{"name":"resolutionTime","type":"uint256","internalType":"uint256"},{"name":"createdAt","type":"uint256","internalType":"uint256"},{"name":"status","type":"uint8","internalType":"enum CategoricalMarket.MarketStatus"},{"name":"winningOutcome","type":"uint8","internalType":"uint8"},{"name":"oracleResolver","type":"address","internalType":"address"},{"name":"totalVolume","type":"uint256","internalType":"uint256"}],"stateMutability":"view"},{"type":"function","name":"mintCompleteSet","inputs":[{"name":"amount","type":"uint256","internalType":"uint256"}],"outputs":[],"stateMutability":"nonpayable"},{"type":"function","name":"outcomeQuantities","inputs":[{"name":"","type":"uint256","internalType":"uint256"}],"outputs":[{"name":"","type":"uint256","internalType":"uint256"}],"stateMutability":"view"},{"type":"function","name":"outcomeToken","inputs":[],"outputs":[{"name":"","type":"address","internalType":"contract OutcomeToken"}],"stateMutability":"view"},{"type":"function","name":"removeLiquidity","inputs":[{"name":"lpTokensAmount","type":"uint256","internalType":"uint256"}],"outputs":[{"name":"collateralAmount","type":"uint256","internalType":"uint256"}],"stateMutability":"nonpayable"},{"type":"function","name":"resolveMarket","inputs":[{"name":"winningOutcomeIndex","type":"uint8","internalType":"uint8"}],"outputs":[],"stateMutability":"nonpayable"},{"type":"function","name":"sellShares","inputs":[{"name":"outcomeIndex","type":"uint8","internalType":"uint8"},{"name":"sharesToSell","type":"uint256","internalType":"uint256"},{"name":"minPayout","type":"uint256","internalType":"uint256"}],"outputs":[{"name":"payout","type":"uint256","internalType":"uint256"}],"stateMutability":"nonpayable"},{"type":"function","name":"simulateBuy","inputs":[{"name":"outcomeIndex","type":"uint8","internalType":"uint8"},{"name":"cost","type":"uint256","internalType":"uint256"}],"outputs":[{"name":"shares","type":"uint256","internalType":"uint256"},{"name":"totalCost","type":"uint256","internalType":"uint256"},{"name":"priceImpact","type":"uint256","internalType":"uint256"}],"stateMutability":"view"},{"type":"function","name":"simulateSell","inputs":[{"name":"outcomeIndex","type":"uint8","internalType":"uint8"},{"name":"sharesToSell","type":"uint256","internalType":"uint256"}],"outputs":[{"name":"payout","type":"uint256","internalType":"uint256"},{"name":"priceImpact","type":"uint256","internalType":"uint256"}],"stateMutability":"view"},{"type":"function","name":"socialPredictions","inputs":[],"outputs":[{"name":"","type":"address","internalType":"contract SocialPredictions"}],"stateMutability":"view"},{"type":"event","name":"LiquidityAdded","inputs":[{"name":"provider","type":"address","indexed":true,"internalType":"address"},{"name":"amount","type":"uint256","indexed":false,"internalType":"uint256"},{"name":"lpTokens","type":"uint256","indexed":false,"internalType":"uint256"}],"anonymous":false},{"type":"event","name":"LiquidityRemoved","inputs":[{"name":"provider","type":"address","indexed":true,"internalType":"address"},{"name":"lpTokens","type":"uint256","indexed":false,"internalType":"uint256"},{"name":"amount","type":"uint256","indexed":false,"internalType":"uint256"}],"anonymous":false},{"type":"event","name":"MarketInitialized","inputs":[{"name":"metadataURI","type":"bytes32","indexed":true,"internalType":"bytes32"},{"name":"numOutcomes","type":"uint256","indexed":false,"internalType":"uint256"},{"name":"resolutionTime","type":"uint256","indexed":false,"internalType":"uint256"},{"name":"oracle","type":"address","indexed":true,"internalType":"address"}],"anonymous":false},{"type":"event","name":"MarketResolved","inputs":[{"name":"winningOutcome","type":"uint8","indexed":true,"internalType":"uint8"},{"name":"timestamp","type":"uint256","indexed":false,"internalType":"uint256"}],"anonymous":false},{"type":"event","name":"SharesPurchased","inputs":[{"name":"user","type":"address","indexed":true,"internalType":"address"},{"name":"outcome","type":"uint8","indexed":true,"internalType":"uint8"},{"name":"shares","type":"uint256","indexed":false,"internalType":"uint256"},{"name":"cost","type":"uint256","indexed":false,"internalType":"uint256"}],"anonymous":false},{"type":"event","name":"SharesSold","inputs":[{"name":"user","type":"address","indexed":true,"internalType":"address"},{"name":"outcome","type":"uint8","indexed":true,"internalType":"uint8"},{"name":"shares","type":"uint256","indexed":false,"internalType":"uint256"},{"name":"payout","type":"uint256","indexed":false,"internalType":"uint256"}],"anonymous":false},{"type":"event","name":"WinningsClaimed","inputs":[{"name":"user","type":"address","indexed":true,"internalType":"address"},{"name":"amount","type":"uint256","indexed":false,"internalType":"uint256"}],"anonymous":false},{"type":"error","name":"AlreadyClaimed","inputs":[]},{"type":"error","name":"AlreadyInitialized","inputs":[]},{"type":"error","name":"InsufficientCollateral","inputs":[]},{"type":"error","name":"InsufficientShares","inputs":[]},{"type":"error","name":"InvalidAddress","inputs":[]},{"type":"error","name":"InvalidOutcome","inputs":[]},{"type":"error","name":"InvalidOutcomeCount","inputs":[]},{"type":"error","name":"InvalidParameter","inputs":[]},{"type":"error","name":"MarketNotActive","inputs":[]},{"type":"error","name":"MarketNotResolved","inputs":[]},{"type":"error","name":"NoLPTokens","inputs":[]},{"type":"error","name":"NotInitialized","inputs":[]},{"type":"error","name":"NothingToClaim","inputs":[]},{"type":"error","name":"OnlyOracle","inputs":[]},{"type":"error","name":"ReentrancyGuardReentrantCall","inputs":[]},{"type":"error","name":"ResolutionTimeNotReached","inputs":[]},{"type":"error","name":"ResolutionTimePassed","inputs":[]},{"type":"error","name":"SlippageExceeded","inputs":[]},{"type":"error","name":"ZeroAmount","inputs":[]}],"bytecode":{"object":"0x60e0346200016157601f62002dd238819003918201601f19168301916001600160401b03831184841017620001655780849260a09460405283398101031262000161576200004d8162000179565b6200005b6020830162000179565b906200006a6040840162000179565b926200008760806200007f6060840162000179565b920162000179565b9260017f9b779b17422d0df92223018b32b4d1fa46e071723d6817e2486d003becc55f005560018060a01b038095818095166080528160018060a01b031993168360095416176009551690600a541617600a551660a0521660c052604051612c4390816200018f823960805181818161094201528181610ac901528181610b7801528181611039015281816112d1015281816114a4015281816116a40152611c15015260a0518181816104c401528181610b9b01528181610fb9015281816116c801528181611cb1015261234d015260c051816119c50152f35b5f80fd5b634e487b7160e01b5f52604160045260245ffd5b51906001600160a01b0382168203620001615756fe6080604052600480361015610012575f80fd5b5f905f3560e01c806306e48ce314611ea1578063189c2bde14611e4057806351c6590a14611b705780635b7c2dad14611a1d5780635fcbd285146119f457806360836780146119af5780636f8fa1e7146119415780636ffde0d7146115ee57806373b2e80e146115af578063809a7f381461143557806380f55605146113af578063941f30c9146111da5780639c8f9f2314610e86578063a998d6d814610e5d578063ac0bd1fb14610af8578063b2016bd414610ab3578063b401faf11461081c578063bb77ffdd146107e6578063c02e5422146104f3578063d0fb0203146104ae578063d81657431461030f578063ec3168d41461022c5763f21ffa6b14610119575f80fd5b3461022857602036600319011261022857610132611f03565b60065490601082901c6001600160a01b031633036102175760ff82166003811015610204576101f35760ff600c5416156101e257825442106101d1576008549260ff8216938410156101c257509061ff0060019260081b169061ffff191617176006557fcbbe35de088a5a787855818a0fda296aeb95f616e7b99c7dcb0bf96b5697e22b6020604051428152a280f35b60405163c74a206d60e01b8152fd5b60405163dca075a360e01b81528390fd5b6040516321c4e35760e21b81528390fd5b604051635a90bb8d60e11b81528390fd5b634e487b7160e01b855260218452602485fd5b6040516380fee10560e01b81528390fd5b5080fd5b50903461030c578060031936011261030c57600161025360015461024e612007565b612563565b82918291815b6102de575b505050670de0b6b3a76400008082115f146102b15750600191670de0b6b3a763ffff19820191821161029e5750604092505b825191151582526020820152f35b634e487b7160e01b815260118452602490fd5b9091818310156102d157600192820391821161029e575060409250610290565b9150506040915080610290565b805183101561030757816102ff84956102f88396856121ac565b51906120f4565b940192610259565b61025e565b80fd5b50903461030c578060031936011261030c578061012060405161033181611fc8565b8281528260208201528260408201528260608201528260808201528260a08201528260c08201528260e08201528261010082015201526040519061037482611fc8565b548152600154806020830152600254604083015260035460608301528254608083015260055460a083015260065460ff8116600381101561049b5760c0840152600881901c60ff1660e084015260101c6001600160a01b03166101008301526007546101208301529091506103eb9061024e612007565b906104976103f7612007565b61048860405194859461012061018091805188526020810151602089015260408101516040890152606081015160608901526080810151608089015260a081015160a089015261044f60c082015160c08a0190611f80565b60e08181015160ff1690890152610100808201516001600160a01b03169089015201516101208701526101408601819052850190611f29565b90838203610160850152611f29565b0390f35b602185634e487b7160e01b5f525260245ffd5b823461030c578060031936011261030c576040517f00000000000000000000000000000000000000000000000000000000000000006001600160a01b03168152602090f35b50346102285760e0366003190112610228578035906024803591604435916064359560018060a01b03928388168098036107e25760843560a435948086168096036107e25760c4359081168091036107e257600c549560ff87166107d25789156107c1576002891080156107b7575b6107a65742881115610795578a1561076b578215610784578015801561077c575b61076b576001809760ff191617600c5560018060a01b031990816009541617600955600a541617600a55861590818015610761575b61075057670de0b6b3a764000091828902908982048414171561073d576105de90612a5e565b918082029182040361072a57906105f49161209c565b6040519061060182611fc8565b8882528060208301528360408301528360608301528660808301524260a08301528360c083015260e082018481526101206101008401938c855201918583528a865560015584600255600394806003558885558042600555610717575060068054915193516001600160b01b0319909216600894851b61ff00161760109290921b62010000600160b01b0316919091179055516007555f5b8781106106d45789897f25233672eef7af114ff83aafd241b1526bdcd9a2e909550ce8d518b89b93a8a760408b8b82519182526020820152a3005b8154600160401b81101561070557906106f282888094018555611ed7565b8154905f1990881b1b1916905501610699565b85604185634e487b7160e01b5f52525ffd5b634e487b7160e01b815260218552602490fd5b634e487b7160e01b845260118352602484fd5b634e487b7160e01b855260118452602485fd5b60405163162cc9e360e11b81528390fd5b50600a88116105b8565b60405163e6c4247b60e01b81528490fd5b508115610583565b604051631f2a200560e01b81528490fd5b604051636a859ca960e01b81528490fd5b60405163162cc9e360e11b81528490fd5b50600a8911610562565b604051630309cb8760e51b81528490fd5b60405162dc149f60e41b81528490fd5b5f80fd5b823461030c578060031936011261030c5761049761080860015461024e612007565b604051918291602083526020830190611f29565b503461022857816003193601126102285760ff600654166003811015610aa057600103610a915760ff600c541615610a825761085661251c565b338252602091600b835260ff604082205416610a7257906108a29160018060a01b038460ff8260095416600654604051809881948293627eeac760e11b845260081c16338a84016121c0565b03915afa938415610a67578294610a38575b508315610a2757338252600b855260408220600160ff19825416179055806009541660ff60065460081c16813b15610a23578561090a92859283604051809681958294637a94c56560e11b8452338d85016121f3565b03925af18015610a1857908391610a04575b505084604051809263a9059cbb60e01b825281858161093e8a338b8401612101565b03927f0000000000000000000000000000000000000000000000000000000000000000165af19182156109f857916109cb575b50156109bc57506040518181527f1a31e733a172afcf46074b3106c17f0c298e226442682a03c1e99ce256139ec2833392a260015f80516020612bee83398151915255604051908152f35b604051633a23d82560e01b8152fd5b6109eb9150843d86116109f1575b6109e38183611fe4565b8101906120ba565b5f610971565b503d6109d9565b604051903d90823e3d90fd5b610a0d90611fa1565b61022857815f61091c565b6040513d85823e3d90fd5b8380fd5b6040516312d37ee560e31b81528390fd5b9093508481813d8311610a60575b610a508183611fe4565b810103126107e25751925f6108b4565b503d610a46565b6040513d84823e3d90fd5b50604051630c8d9eab60e31b8152fd5b6040516321c4e35760e21b8152fd5b60405163174b639360e11b8152fd5b634e487b7160e01b835260218252602483fd5b823461030c578060031936011261030c576040517f00000000000000000000000000000000000000000000000000000000000000006001600160a01b03168152602090f35b503461022857610b0736611f5c565b9160ff600694929454166003811015610e4a57610e3a5760ff600c541615610e2a57610b3161251c565b6008549160ff8216928310156101c257610b4b84836126a6565b948510610e1b5790610bdb9291610b6d6001548784610b68612007565b612730565b60018060a01b0390817f000000000000000000000000000000000000000000000000000000000000000016827f00000000000000000000000000000000000000000000000000000000000000001660405163095ea7b360e01b815289818d818060209d8e95888d8401612101565b0391875af18015610e1057610df3575b506040805163cd81897760e01b8152918290818e81610c0d89308d8401612101565b03925af18015610de857610c34918c908d92610db4575b50610c2f90856120f4565b6120f4565b978811610da3576040516323b872dd60e01b81529087908290818d81610c5e8e30338d85016120d2565b03925af1908115610d98578a91610d7b575b5015610d6a5790610cc6899392610caf610c8987611ed7565b610c998d83548360031b1c6120f4565b82545f1960039390931b92831b1916911b179055565b610cbb816002546120f4565b6002556007546120f4565b60075560095416803b15610d6657610cf89383899360405196879586948593630ab714fb60e11b8552339085016121f3565b03925af18015610d5b57610d43575b5060408095505184815283838201525f80516020612bce833981519152863392a360015f80516020612bee833981519152558351928352820152f35b610d4d8691611fa1565b610d575784610d07565b8480fd5b6040513d88823e3d90fd5b8280fd5b604051633a23d82560e01b81528390fd5b610d929150873d89116109f1576109e38183611fe4565b5f610c70565b6040513d8c823e3d90fd5b604051638199f5f360e01b81528490fd5b610c2f9250610ddb915060403d604011610de1575b610dd38183611fe4565b8101906121dd565b91610c24565b503d610dc9565b6040513d8d823e3d90fd5b610e0990893d8b116109f1576109e38183611fe4565b505f610beb565b6040513d8e823e3d90fd5b604051638199f5f360e01b8152fd5b506040516321c4e35760e21b8152fd5b50604051635a90bb8d60e11b8152fd5b634e487b7160e01b865260218352602486fd5b823461030c578060031936011261030c576009546040516001600160a01b039091168152602090f35b50903461030c57602091826003193601126102285780359060ff6006541660038110156111c7576111b85760ff600c541615610a8257610ec461251c565b81156111a957600a546040516370a0823160e01b815233838201526001600160a01b039182169491908681602481895afa908115610a18579085918491611178575b5010611167576040516318160ddd60e01b81529486868581845afa958615610a18578396611138575b50610f4660035496610f418888612089565b61209c565b95808711611130575b86610f5991612058565b80600355610f6987600254612058565b60025580151580611127575b6110fe575b50803b15610d6657826040518092632770a7eb60e21b8252818381610fa28b338c8401612101565b03925af18015610a18579083916110ea575b5050807f000000000000000000000000000000000000000000000000000000000000000016803b15610d6657826040518092630c70722560e31b82528183816110018b33308d85016120d2565b03925af18015610a18579083916110d6575b505085604051809263a9059cbb60e01b82528185816110358b338b8401612101565b03927f0000000000000000000000000000000000000000000000000000000000000000165af19182156109f857916110b9575b50156109bc575060405190815281838201527f96cd817c6329656790ef8fba7675405193677d39619571282f5e21f3a98cd05960403392a260015f80516020612bee83398151915255604051908152f35b6110d09150853d87116109f1576109e38183611fe4565b5f611068565b6110df90611fa1565b61022857815f611013565b6110f390611fa1565b61022857815f610fb4565b806111188861111261111e94600154612089565b926120f4565b9061209c565b6001555f610f7a565b50861515610f75565b955085610f4f565b9095508681813d8311611160575b6111508183611fe4565b810103126107e25751945f610f2f565b503d611146565b60405163ee2c70d160e01b81528390fd5b809250888092503d83116111a2575b6111918183611fe4565b810103126107e2578490515f610f06565b503d611187565b604051631f2a200560e01b8152fd5b604051635a90bb8d60e11b8152fd5b634e487b7160e01b845260218252602484fd5b50346102285760203660031901126102285780359060ff6006541660038110156111c7576111b85760ff600c541615610a825761121561251c565b81156111a957600954604051631fd3259360e31b815233838201526001600160a01b03918216908581602481855afa908115610d5b5761125e918691889161138d575b506127c3565b1561137c578085913b15610228578160405180926349ff049960e11b825281838161128c8b338c8401612101565b03925af18015610a6757611368575b50506112a983600254612058565b6002556020604051809263a9059cbb60e01b82528187816112cd89338a8401612101565b03927f0000000000000000000000000000000000000000000000000000000000000000165af190811561135d57849161133e575b50156109bc575060ff906040519080825260208201525f80516020612bae83398151915260403392a360015f80516020612bee8339815191525580f35b611357915060203d6020116109f1576109e38183611fe4565b5f611301565b6040513d86823e3d90fd5b61137190611fa1565b610a2357835f61129b565b604051633999656760e01b81528390fd5b6113a991503d808a833e6113a18183611fe4565b810190612133565b5f611258565b503461022857816003193601126102285761014091549060015490600254906003549054600554916006549360075495604051978852602088015260408701526060860152608085015260a084015261140e60c0840160ff8316611f80565b600881901c60ff1660e084015260101c6001600160a01b0316610100830152610120820152f35b50346102285760203660031901126102285780359060ff6006541660038110156111c7576111b85760ff600c541615610a825761147061251c565b81156111a9576040516323b872dd60e01b81526001600160a01b03906020818061149e8730338985016120d2565b038188867f0000000000000000000000000000000000000000000000000000000000000000165af19081156115a4578591611585575b50156115755790839160095416803b15610d665783839161150c938360405180968195829463bb2bff9760e01b845233908401612101565b03925af18015610a6757611561575b5060ff8261152b816002546120f4565b6002556040519080825260208201525f80516020612bce83398151915260403392a360015f80516020612bee8339815191525580f35b61156a90611fa1565b61022857815f61151b565b50604051633a23d82560e01b8152fd5b61159e915060203d6020116109f1576109e38183611fe4565b5f6114d4565b6040513d87823e3d90fd5b823461030c57602036600319011261030c5760209060ff906040906001600160a01b036115da611f13565b168152600b84522054166040519015158152f35b50903461030c576115fe36611f5c565b92919360ff6006541660038110156111c7576111b85760ff600c541615610a825761162761251c565b6008549260ff86169384101561193157821561192157600954604051627eeac760e11b81526020976001600160a01b0392909190899082908516818061167087338c84016121c0565b03915afa90811561135d5790869185916118f0575b50106118df576116a0600154868361169b612007565b612246565b91807f00000000000000000000000000000000000000000000000000000000000000001692817f00000000000000000000000000000000000000000000000000000000000000001660405163095ea7b360e01b81528b818061170586868d8401612101565b03818a8a5af180156118d45761173f928d60409386936118b6575b50508989845180968195829463cd81897760e01b845230908401612101565b03925af1908115610d5b576117679187918291611892575b506117629084612058565b612058565b9889106118815761179a9061178e61177e85611ed7565b610c998b83548360031b1c612058565b610cbb81600254612058565b6007556009541690813b15610a2357856117cd92859283604051809681958294637a94c56560e11b8452338d85016121f3565b03925af18015610a185790839161186d575b505086604051809263a9059cbb60e01b82528185816118018c338b8401612101565b03925af19182156109f85791611850575b50156109bc575060405190815282848201525f80516020612bae83398151915260403392a360015f80516020612bee83398151915255604051908152f35b6118679150863d88116109f1576109e38183611fe4565b5f611812565b61187690611fa1565b61022857815f6117df565b604051638199f5f360e01b81528690fd5b61176292506118b0915060403d604011610de157610dd38183611fe4565b91611757565b816118cc92903d106109f1576109e38183611fe4565b508d5f611720565b6040513d89823e3d90fd5b604051633999656760e01b81528490fd5b8092508a8092503d831161191a575b6119098183611fe4565b810103126107e2578590515f611685565b503d6118ff565b50604051631f2a200560e01b8152fd5b5060405163c74a206d60e01b8152fd5b823461030c57604036600319011261030c57606061195d611f03565b611969602435826126a6565b9061199c6001548361198e611982838387610b68612007565b610c2f6111128261232f565b93611997612007565b6123e7565b9060405192835260208301526040820152f35b823461030c578060031936011261030c576040517f00000000000000000000000000000000000000000000000000000000000000006001600160a01b03168152602090f35b823461030c578060031936011261030c57600a546040516001600160a01b039091168152602090f35b503461022857602036600319011261022857611a37611f13565b600954604051631fd3259360e31b81526001600160a01b039283169381019390935283918291829185916024918391165afa92831561135d578493611b54575b506001809481611a8b60015461024e612007565b82915b611b05575b5050905b611ac5575b50611ab69350604051938493606085526060850190611f29565b91602084015260408301520390f35b8351811015611b00578082611adb8793876121ac565b5111611aea575b810190611a97565b915080611af783866121ac565b51929050611ae2565b611a9c565b90948651861015611b4e579083611b468193670de0b6b3a7640000611b3f611b2d8b8d6121ac565b51611b388c886121ac565b5190612089565b04906120f4565b960191611a8e565b94611a93565b611b699193503d8086833e6113a18183611fe4565b915f611a77565b50346107e257602091826003193601126107e25781359060ff600654166003811015611e2d576101f35760ff600c5416156101e257611bad61251c565b8115611e1c57600a546040516318160ddd60e01b81526001600160a01b039491869082908490829089165afa908115611d88575f91611def575b5080611dd3575082935b6040516323b872dd60e01b8152868180611c0f8830338985016120d2565b03815f867f0000000000000000000000000000000000000000000000000000000000000000165af1908115611d88575f91611db6575b501561157557611c57846003546120f4565b80600355611c67856002546120f4565b600255848111611d93575b5080600a5416803b156107e2575f60405180926340c10f1960e01b8252818381611c9f8c338b8401612101565b03925af18015611d8857611d75575b507f00000000000000000000000000000000000000000000000000000000000000001690813b15610d6657829160848392604051948593849263e914516760e01b845230908401523360248401528860448401528960648401525af18015610a6757611d61575b505060405190815281838201527fac1d76749e5447b7b16f5ab61447e1bd502f3bb4807af3b28e620d1700a6ee4560403392a260015f80516020612bee83398151915255604051908152f35b611d6b8291611fa1565b61030c5780611d15565b611d80919350611fa1565b5f915f611cae565b6040513d5f823e3d90fd5b8061111886611da7611dad94600154612089565b92612058565b6001555f611c72565b611dcd9150873d89116109f1576109e38183611fe4565b5f611c45565b611de0611de99185612089565b6003549061209c565b93611bf1565b90508581813d8311611e15575b611e068183611fe4565b810103126107e257515f611be7565b503d611dfc565b604051631f2a200560e01b81528390fd5b602184634e487b7160e01b5f525260245ffd5b346107e25760403660031901126107e2576040611e5b611f03565b611e956024359160015490611e8c611e86611e7a84878561169b612007565b611762611da78261232f565b94612079565b90611997612007565b82519182526020820152f35b50346107e25760203660031901126107e257356008548110156107e257611ec9602091611ed7565b90546040519160031b1c8152f35b600854811015611eef5760085f5260205f2001905f90565b634e487b7160e01b5f52603260045260245ffd5b6004359060ff821682036107e257565b600435906001600160a01b03821682036107e257565b9081518082526020808093019301915f5b828110611f48575050505090565b835185529381019392810192600101611f3a565b60609060031901126107e25760043560ff811681036107e257906024359060443590565b906003821015611f8d5752565b634e487b7160e01b5f52602160045260245ffd5b6001600160401b038111611fb457604052565b634e487b7160e01b5f52604160045260245ffd5b61014081019081106001600160401b03821117611fb457604052565b601f909101601f19168101906001600160401b03821190821017611fb457604052565b6040519060085480835282602091602082019060085f5260205f20935f905b82821061203e5750505061203c92500383611fe4565b565b855484526001958601958895509381019390910190612026565b9190820391821161206557565b634e487b7160e01b5f52601160045260245ffd5b600160ff1b8114612065575f0390565b8181029291811591840414171561206557565b81156120a6570490565b634e487b7160e01b5f52601260045260245ffd5b908160209103126107e2575180151581036107e25790565b6001600160a01b03918216815291166020820152604081019190915260600190565b9190820180921161206557565b6001600160a01b039091168152602081019190915260400190565b6001600160401b038111611fb45760051b60200190565b60209081818403126107e2578051906001600160401b0382116107e257019180601f840112156107e25782516121688161211c565b936121766040519586611fe4565b818552838086019260051b8201019283116107e2578301905b82821061219d575050505090565b8151815290830190830161218f565b8051821015611eef5760209160051b010190565b6001600160a01b03909116815260ff909116602082015260400190565b91908260409103126107e2576020825192015190565b60ff604092959493606083019660018060a01b031683521660208201520152565b9061221e8261211c565b61222b6040519182611fe4565b828152809261223c601f199161211c565b0190602036910137565b9093919360ff825191169081101561231d57841561230b5761226881836121ac565b5185116122f95761227984836127f7565b926122848351612214565b935f5b84518110156122db576001908481036122c0576122ae896122a883896121ac565b51612058565b6122b882896121ac565b525b01612287565b6122ca81876121ac565b516122d582896121ac565b526122ba565b50939095506122f092506122f69491506127f7565b90612058565b90565b604051633999656760e01b8152600490fd5b604051631f2a200560e01b8152600490fd5b60405163c74a206d60e01b8152600490fd5b604051635aa70de560e11b81523060048201529091906060816024817f00000000000000000000000000000000000000000000000000000000000000006001600160a01b03165afa908115611d88575f905f926123a7575b5061239c916123a39161271093849187612089565b0494612089565b0490565b9150506060813d6060116123df575b816123c360609383611fe4565b810103126107e2576020810151604090910151906123a3612387565b3d91506123b6565b9391906123f48486612563565b926123ff8651612214565b935f5b87518110156124825760019060ff8516810361246d575f861315612446576124348661242e838c6121ac565b516120f4565b61243e82896121ac565b525b01612402565b61245d612453828b6121ac565b516122f088612079565b61246782896121ac565b52612440565b612477818a6121ac565b5161246782896121ac565b5093612495929591965060ff9350612563565b9216826124a38280956121ac565b516124ae83856121ac565b5110156124fe576124d4916124c2916121ac565b516124cd84846121ac565b5190612058565b905b61271091828102928184041490151715612065576122f6926124f7916121ac565b519061209c565b6124cd8261250f61251694866121ac565b51926121ac565b906124d6565b5f80516020612bee83398151915260028154146125395760029055565b604051633ee5aeb560e01b8152600490fd5b81810392915f13801582851316918412161761206557565b9161256e8351612214565b905f915f5b85518110156125ad578361258782886121ac565b5111612596575b600101612573565b925060016125a484876121ac565b5193905061258e565b5090926125ba8551612214565b945f92835b8251851015612647576125d285846121ac565b51670de0b6b3a7640000908181029080820483149015171561206557856125f89161209c565b918188029188830414881517156120655761262a61262560019461261f8961263f9661209c565b9061254b565b6128f5565b612634888c6121ac565b526102f8878b6121ac565b9401936125bf565b96935093509390505f5b845181101561269d5761266481846121ac565b5190670de0b6b3a7640000918281029281840414901517156120655761268c8760019361209c565b61269682876121ac565b5201612651565b50935050905090565b5f9160018160011b82810460021483151715612065579291906001545b8486106126d257505050505090565b90919293946126e186826120f4565b83810180911161206557831c90846126fd848489610b68612007565b1161270e5750945b939291906126c3565b95505f1981019081111561270557634e487b7160e01b5f52601160045260245ffd5b9093919360ff825191169081101561231d57841561230b5761275284836127f7565b9261275d8351612214565b935f5b84518110156127ae57600190848103612793576127818961242e83896121ac565b61278b82896121ac565b525b01612760565b61279d81876121ac565b516127a882896121ac565b5261278d565b509390955061176292506122f69491506127f7565b905f5b82518110156127ef57816127da82856121ac565b51106127e8576001016127c6565b5050505f90565b505050600190565b919080156128d5575f905f5b845181101561283d578261281782876121ac565b5111612826575b600101612803565b9150600161283483866121ac565b5192905061281e565b50925f90815b81518310156128b15761285683836121ac565b51670de0b6b3a76400009081810290808204831490151715612065578761287c9161209c565b91818602918683041486151715612065576128a361262560019461261f8b6128a99661209c565b906120f4565b920191612843565b670de0b6b3a76400009250611b3f9150946128cf6122f69596612a5e565b90612089565b604051630309cb8760e51b8152600490fd5b5f1981146120655760010190565b8015612a1c575f8112908115612a165761290e90612079565b905b6801158e460913d0000082116129fa57670de0b6b3a76400008080840493069281938060015b600f81111561299b575b5050505f915b818310612970575050506129575790565b80156120a6576a0c097ce7bc90715b34b9f160241b0490565b9091936725b946ebc0b361739081810291818304149015171561206557816001910494019190612946565b909195826129af886129b5939796976120f4565b97612089565b60018201808311612065578085029085820403612065576129d59161209c565b90600182106129f2576129e7906128e7565b939293919091612936565b939293612940565b159050612a0657600190565b6b019151b9ebf26993034c000090565b90612910565b50670de0b6b3a764000090565b81156120a657600160ff1b81145f19831416612065570590565b9190915f838201938412911290801582169115161761206557565b80156128d557670de0b6b3a764000090818114612ba7575f90915b671bc16d674ec80000831015612b8a575b6706f05b59d3b200008310612b6057670de0b6b3a763ffff19830160019381136001166120655792905f93806001935b600a851115612aeb57505050505067099e8db03256ce5d90818102918183051490151715612065576122f691612a43565b9091929395818711612b36575b612b1f908783168303612b2857612b1990612b138986612a29565b90612a43565b966128e7565b93929190612aba565b612b199061261f8986612a29565b91838102905f8112600160ff1b861416612065578082058514901517156120655784900591612af8565b90918060011b90808204600214901517156120655791600160ff1b8114612065575f190190612a8a565b600192831c9290916001600160ff1b038114612065570190612a79565b50505f9056feaa68026cba73386b81aaef0208a11ad1c3f8d1306cf0734631f076b7baea05bac1ab9d71477e1b8bc6e836e1816edbaa2f57a1a23338caa2ce0a9b1b1db621089b779b17422d0df92223018b32b4d1fa46e071723d6817e2486d003becc55f00a264697066735822122000eeaa2bb0bb13a322bd70ab10106e9959ecacb5a224c2f080e013f2f5d8b88264736f6c63430008180033","linkReferences":{}},"methodIdentifiers":{"addLiquidity(uint256)":"51c6590a","burnCompleteSet(uint256)":"941f30c9","buyShares(uint8,uint256,uint256)":"ac0bd1fb","checkArbitrage()":"ec3168d4","claimWinnings()":"b401faf1","collateralToken()":"b2016bd4","feeManager()":"d0fb0203","getMarketState()":"d8165743","getOutcomePrices()":"bb77ffdd","getUserPosition(address)":"5b7c2dad","hasClaimed(address)":"73b2e80e","initialize(bytes32,uint256,uint256,address,uint256,address,address)":"c02e5422","lpToken()":"5fcbd285","market()":"80f55605","mintCompleteSet(uint256)":"809a7f38","outcomeQuantities(uint256)":"06e48ce3","outcomeToken()":"a998d6d8","removeLiquidity(uint256)":"9c8f9f23","resolveMarket(uint8)":"f21ffa6b","sellShares(uint8,uint256,uint256)":"6ffde0d7","simulateBuy(uint8,uint256)":"6f8fa1e7","simulateSell(uint8,uint256)":"189c2bde","socialPredictions()":"60836780"},"id":44}