{"abi":[{"type":"constructor","inputs":[{"name":"_marketImplementation","type":"address","internalType":"address"},{"name":"_collateralToken","type":"address","internalType":"address"},{"name":"_feeManager","type":"address","internalType":"address"},{"name":"_socialPredictions","type":"address","internalType":"address"},{"name":"_oracleResolver","type":"address","internalType":"address"},{"name":"_admin","type":"address","internalType":"address"}],"stateMutability":"nonpayable"},{"type":"function","name":"MAX_OUTCOMES","inputs":[],"outputs":[{"name":"","type":"uint256","internalType":"uint256"}],"stateMutability":"view"},{"type":"function","name":"MIN_INITIAL_LIQUIDITY","inputs":[],"outputs":[{"name":"","type":"uint256","internalType":"uint256"}],"stateMutability":"view"},{"type":"function","name":"MIN_MARKET_DURATION","inputs":[],"outputs":[{"name":"","type":"uint256","internalType":"uint256"}],"stateMutability":"view"},{"type":"function","name":"admin","inputs":[],"outputs":[{"name":"","type":"address","internalType":"address"}],"stateMutability":"view"},{"type":"function","name":"allMarkets","inputs":[{"name":"","type":"uint256","internalType":"uint256"}],"outputs":[{"name":"","type":"address","internalType":"address"}],"stateMutability":"view"},{"type":"function","name":"collateralToken","inputs":[],"outputs":[{"name":"","type":"address","internalType":"address"}],"stateMutability":"view"},{"type":"function","name":"createMarket","inputs":[{"name":"metadataURI","type":"bytes32","internalType":"bytes32"},{"name":"numOutcomes","type":"uint256","internalType":"uint256"},{"name":"resolutionTime","type":"uint256","internalType":"uint256"},{"name":"initialLiquidity","type":"uint256","internalType":"uint256"}],"outputs":[{"name":"market","type":"address","internalType":"address"},{"name":"outcomeTokenAddr","type":"address","internalType":"address"},{"name":"lpTokenAddr","type":"address","internalType":"address"}],"stateMutability":"nonpayable"},{"type":"function","name":"feeManager","inputs":[],"outputs":[{"name":"","type":"address","internalType":"address"}],"stateMutability":"view"},{"type":"function","name":"getActiveMarkets","inputs":[],"outputs":[{"name":"markets","type":"address[]","internalType":"address[]"}],"stateMutability":"view"},{"type":"function","name":"getAllMarkets","inputs":[],"outputs":[{"name":"markets","type":"address[]","internalType":"address[]"}],"stateMutability":"view"},{"type":"function","name":"getFactoryConfig","inputs":[],"outputs":[{"name":"_marketImplementation","type":"address","internalType":"address"},{"name":"_collateralToken","type":"address","internalType":"address"},{"name":"_feeManager","type":"address","internalType":"address"},{"name":"_socialPredictions","type":"address","internalType":"address"},{"name":"_oracleResolver","type":"address","internalType":"address"},{"name":"_admin","type":"address","internalType":"address"}],"stateMutability":"view"},{"type":"function","name":"getLPToken","inputs":[{"name":"market","type":"address","internalType":"address"}],"outputs":[{"name":"lpToken","type":"address","internalType":"address"}],"stateMutability":"view"},{"type":"function","name":"getMarketCount","inputs":[],"outputs":[{"name":"count","type":"uint256","internalType":"uint256"}],"stateMutability":"view"},{"type":"function","name":"getMarketSummaries","inputs":[{"name":"offset","type":"uint256","internalType":"uint256"},{"name":"limit","type":"uint256","internalType":"uint256"}],"outputs":[{"name":"summaries","type":"tuple[]","internalType":"struct CategoricalMarketFactory.MarketSummary[]","components":[{"name":"market","type":"address","internalType":"address"},{"name":"outcomeToken","type":"address","internalType":"address"},{"name":"lpToken","type":"address","internalType":"address"},{"name":"metadataURI","type":"bytes32","internalType":"bytes32"},{"name":"numOutcomes","type":"uint256","internalType":"uint256"},{"name":"resolutionTime","type":"uint256","internalType":"uint256"},{"name":"status","type":"uint8","internalType":"enum CategoricalMarket.MarketStatus"},{"name":"totalLiquidity","type":"uint256","internalType":"uint256"},{"name":"prices","type":"uint256[]","internalType":"uint256[]"}]}],"stateMutability":"view"},{"type":"function","name":"getMarketSummary","inputs":[{"name":"market","type":"address","internalType":"address"}],"outputs":[{"name":"summary","type":"tuple","internalType":"struct CategoricalMarketFactory.MarketSummary","components":[{"name":"market","type":"address","internalType":"address"},{"name":"outcomeToken","type":"address","internalType":"address"},{"name":"lpToken","type":"address","internalType":"address"},{"name":"metadataURI","type":"bytes32","internalType":"bytes32"},{"name":"numOutcomes","type":"uint256","internalType":"uint256"},{"name":"resolutionTime","type":"uint256","internalType":"uint256"},{"name":"status","type":"uint8","internalType":"enum CategoricalMarket.MarketStatus"},{"name":"totalLiquidity","type":"uint256","internalType":"uint256"},{"name":"prices","type":"uint256[]","internalType":"uint256[]"}]}],"stateMutability":"view"},{"type":"function","name":"getMarketsByStatus","inputs":[{"name":"status","type":"uint8","internalType":"enum CategoricalMarket.MarketStatus"}],"outputs":[{"name":"markets","type":"address[]","internalType":"address[]"}],"stateMutability":"view"},{"type":"function","name":"getOutcomeToken","inputs":[{"name":"market","type":"address","internalType":"address"}],"outputs":[{"name":"outcomeToken","type":"address","internalType":"address"}],"stateMutability":"view"},{"type":"function","name":"getRecentMarkets","inputs":[{"name":"count","type":"uint256","internalType":"uint256"}],"outputs":[{"name":"markets","type":"address[]","internalType":"address[]"}],"stateMutability":"view"},{"type":"function","name":"isMarket","inputs":[{"name":"","type":"address","internalType":"address"}],"outputs":[{"name":"","type":"bool","internalType":"bool"}],"stateMutability":"view"},{"type":"function","name":"marketImplementation","inputs":[],"outputs":[{"name":"","type":"address","internalType":"address"}],"stateMutability":"view"},{"type":"function","name":"marketToLPToken","inputs":[{"name":"","type":"address","internalType":"address"}],"outputs":[{"name":"","type":"address","internalType":"address"}],"stateMutability":"view"},{"type":"function","name":"marketToOutcomeToken","inputs":[{"name":"","type":"address","internalType":"address"}],"outputs":[{"name":"","type":"address","internalType":"address"}],"stateMutability":"view"},{"type":"function","name":"oracleResolver","inputs":[],"outputs":[{"name":"","type":"address","internalType":"address"}],"stateMutability":"view"},{"type":"function","name":"owner","inputs":[],"outputs":[{"name":"","type":"address","internalType":"address"}],"stateMutability":"view"},{"type":"function","name":"renounceOwnership","inputs":[],"outputs":[],"stateMutability":"nonpayable"},{"type":"function","name":"setAdmin","inputs":[{"name":"newAdmin","type":"address","internalType":"address"}],"outputs":[],"stateMutability":"nonpayable"},{"type":"function","name":"setOracle","inputs":[{"name":"newOracle","type":"address","internalType":"address"}],"outputs":[],"stateMutability":"nonpayable"},{"type":"function","name":"socialPredictions","inputs":[],"outputs":[{"name":"","type":"address","internalType":"address"}],"stateMutability":"view"},{"type":"function","name":"transferOwnership","inputs":[{"name":"newOwner","type":"address","internalType":"address"}],"outputs":[],"stateMutability":"nonpayable"},{"type":"event","name":"AdminUpdated","inputs":[{"name":"oldAdmin","type":"address","indexed":true,"internalType":"address"},{"name":"newAdmin","type":"address","indexed":true,"internalType":"address"}],"anonymous":false},{"type":"event","name":"MarketCreated","inputs":[{"name":"market","type":"address","indexed":true,"internalType":"address"},{"name":"metadataURI","type":"bytes32","indexed":true,"internalType":"bytes32"},{"name":"numOutcomes","type":"uint256","indexed":false,"internalType":"uint256"},{"name":"resolutionTime","type":"uint256","indexed":false,"internalType":"uint256"},{"name":"creator","type":"address","indexed":true,"internalType":"address"}],"anonymous":false},{"type":"event","name":"OracleUpdated","inputs":[{"name":"oldOracle","type":"address","indexed":true,"internalType":"address"},{"name":"newOracle","type":"address","indexed":true,"internalType":"address"}],"anonymous":false},{"type":"event","name":"OwnershipTransferred","inputs":[{"name":"previousOwner","type":"address","indexed":true,"internalType":"address"},{"name":"newOwner","type":"address","indexed":true,"internalType":"address"}],"anonymous":false},{"type":"error","name":"FailedDeployment","inputs":[]},{"type":"error","name":"InsufficientBalance","inputs":[{"name":"balance","type":"uint256","internalType":"uint256"},{"name":"needed","type":"uint256","internalType":"uint256"}]},{"type":"error","name":"InsufficientCollateral","inputs":[]},{"type":"error","name":"InsufficientLiquidity","inputs":[]},{"type":"error","name":"InvalidAddress","inputs":[]},{"type":"error","name":"InvalidOutcomeCount","inputs":[]},{"type":"error","name":"InvalidParameter","inputs":[]},{"type":"error","name":"OnlyAdmin","inputs":[]},{"type":"error","name":"OwnableInvalidOwner","inputs":[{"name":"owner","type":"address","internalType":"address"}]},{"type":"error","name":"OwnableUnauthorizedAccount","inputs":[{"name":"account","type":"address","internalType":"address"}]},{"type":"error","name":"ResolutionTimePassed","inputs":[]}],"bytecode":{"object":"0x61010034620001ff57601f6200487c38819003918201601f19168301916001600160401b03831184841017620002035780849260c094604052833981010312620001ff576200004e8162000217565b6200005c6020830162000217565b6200006a6040840162000217565b92620000796060820162000217565b906200009660a06200008e6080840162000217565b920162000217565b913315620001e7575f549560018060a01b039460018060a01b03199633888a16175f5560405198873391167f8be0079c531659141344cd1fd0a4f28419497f9722a3daafe3b4186f6b6457e05f80a3868116158015620001dc575b8015620001d1575b8015620001c6575b8015620001bb575b8015620001b0575b620001a15790869493929160805260a05260c05260e052168360025416176002551690600154161760015560405161464f90816200022d8239608051818181610c0b0152818161125101526112ae015260a05181818161033601528181610ebe01526112d3015260c0518181816102c501528181610da601526112fb015260e051818181610a4201526113210152f35b63e6c4247b60e01b8952600489fd5b508686161562000111565b508685161562000109565b508684161562000101565b5086831615620000f9565b5086821615620000f1565b604051631e4fbdf760e01b81525f6004820152602490fd5b5f80fd5b634e487b7160e01b5f52604160045260245ffd5b51906001600160a01b0382168203620001ff5756fe6040608081526004908136101562000015575f80fd5b5f915f3560e01c8063133ccf0a146200135257806315903763146200128057806339cfc386146200123b578063415a9a151462000b3c5780634fc99ed614620005c857806352d84d1e1462000af757806353cc6e681462000a71578063608367801462000a2b5780636220a2f114620009f95780636ec934da14620009b8578063704b6c02146200093b578063715018a614620008ed578063728780fa14620008c75780637adbf973146200083d5780637b340a6414620006505780637f5ac639146200019d5780638da5cb5b146200062657806392f012b21462000607578063994657b014620005c8578063a5e973c314620003df578063b0772d0b1462000365578063b2016bd4146200031f578063b5acbd4314620002f4578063d0fb020314620002ae578063dc73d1641462000290578063f2fde38b146200020f578063f851a44014620001e0578063fcd89bf4146200019d5763fd69f3c2146200017b575f80fd5b34620001995782600319360112620001995760209250549051908152f35b8280fd5b50346200019957602036600319011262000199576001600160a01b03903581811690819003620001dc5783839160209552600585522054169051908152f35b8380fd5b5050346200020b57816003193601126200020b5760015490516001600160a01b039091168152602090f35b5080fd5b5090346200019957602036600319011262000199576001600160a01b038235818116939192908490036200028c576200024762001b98565b8315620002765750505f548260018060a01b03198216175f55165f80516020620045fa8339815191525f80a380f35b51631e4fbdf760e01b8152908101849052602490fd5b8480fd5b5050346200020b57816003193601126200020b5760209051600a8152f35b5050346200020b57816003193601126200020b57517f00000000000000000000000000000000000000000000000000000000000000006001600160a01b03168152602090f35b5050346200020b57816003193601126200020b5760025490516001600160a01b039091168152602090f35b5050346200020b57816003193601126200020b57517f00000000000000000000000000000000000000000000000000000000000000006001600160a01b03168152602090f35b509190346200020b57816003193601126200020b578051918284549081815260208091019583526020832092905b828210620003be57620003ba8686620003af828b038362001643565b51918291826200159c565b0390f35b83546001600160a01b03168752958601956001938401939091019062000393565b509190346200020b57816003193601126200020b57825482805b8281106200050f57506200040d9062001a93565b9280805b8381106200042857845180620003ba88826200159c565b8162000434826200156f565b9054875163d816574360e01b81526001600160a01b03936003939192909183918d91839190871b1c87165afa90811562000505579060c0918691620004dc575b50015181811015620004c9571562000492575b505060010162000411565b93620004c0918395620004a76001956200156f565b9054911b1c16620004b9828a62001896565b5262001b89565b92905f62000487565b634e487b7160e01b855260218a52602485fd5b620004fc91503d8088833e620004f3818362001643565b8101906200172d565b50505f62000474565b88513d87823e3d90fd5b6200051a816200156f565b9054855163d816574360e01b81526003929091889183918b91839190871b1c6001600160a01b03165afa908115620005be579060c09188916200059e575b500151908110156200058b571562000574575b600101620003f9565b906200058260019162001b89565b9190506200056b565b634e487b7160e01b865260218752602486fd5b620005b591503d808a833e620004f3818362001643565b50505f62000558565b86513d89823e3d90fd5b50346200019957602036600319011262000199576001600160a01b03903581811690819003620001dc5783839160209552600685522054169051908152f35b5050346200020b57816003193601126200020b5760209051610e108152f35b5050346200020b57816003193601126200020b57905490516001600160a01b039091168152602090f35b509190346200020b5760203660031901126200020b5782359160038084101580620001995785549280805b8581106200078257506200068f9062001a93565b958192825b868110620006ab57875180620003ba8b826200159c565b838a620006b8836200156f565b90548b5163d816574360e01b81526001600160a01b039490939092849283918d1b1c86165afa90811562000778579060c091879162000758575b500151878110156200074557836200074557841462000716575b5060010162000694565b81956200073d916200072a6001946200156f565b9054908a1b1c16620004b9828d62001896565b94906200070c565b634e487b7160e01b865260218c52602486fd5b6200076f91503d8089833e620004f3818362001643565b50505f620006f2565b8a513d88823e3d90fd5b88836200078f836200156f565b90548a5163d816574360e01b8152938492909183918b1b1c6001600160a01b03165afa90811562000833579060c091859162000813575b5001518581101562000800578462000800578814620007e9575b6001016200067b565b90620007f760019162001b89565b919050620007e0565b634e487b7160e01b845260218a52602484fd5b6200082a91503d8087833e620004f3818362001643565b50505f620007c6565b88513d86823e3d90fd5b5090346200019957602036600319011262000199576001600160a01b038235818116939192908490036200028c576200087562001b98565b8315620008ba575050600280546001600160a01b031981168417909155167f078c3b417dadf69374a59793b829c52001247130433427049317bde56607b1b78380a380f35b5163e6c4247b60e01b8152fd5b5050346200020b57816003193601126200020b576020905168056bc75e2d631000008152f35b833462000938578060031936011262000938576200090a62001b98565b5f80546001600160a01b0319811682556001600160a01b03165f80516020620045fa8339815191528280a380f35b80fd5b5090346200019957602036600319011262000199576001600160a01b038235818116939192908490036200028c576200097362001b98565b8315620008ba575050600180546001600160a01b031981168417909155167f101b8081ff3b56bbf45deb824d86a3b0fd38b7e3dd42421105cf8abe9106db0b8380a380f35b5034620001995760203660031901126200019957356001600160a01b038116908190036200019957818360ff92602095526003855220541690519015158152f35b5091346200093857602036600319011262000938575062000a1f620003ba923562001acb565b9051918291826200159c565b5050346200020b57816003193601126200020b57517f00000000000000000000000000000000000000000000000000000000000000006001600160a01b03168152602090f35b508290346200020b57826003193601126200020b5762000a96906024359035620018ab565b8251916020808401906020855283518092526020868601968360051b870101940192955b82871062000ac85785850386f35b90919293828062000ae6600193603f198a82030186528851620014a9565b960192019601959291909262000aba565b5091346200093857602036600319011262000938578235925483101562000938575062000b266020926200156f565b905491519160018060a01b039160031b1c168152f35b50346200106657608036600319011262001066576001546001600160a01b03929060249060643590823590853590604435908816331415806200122d575b6200121d5781156200120d5760028310801562001202575b620011f257610e104201804211620011e0578110620011d05768056bc75e2d631000008410620011c057865494865197602095868a0197858952868a8c01528460608c01524260808c015260a08b015260a08a5260c08a019960018060401b0398818c108a8d1117620011ae578c908c8c5282519020917f00000000000000000000000000000000000000000000000000000000000000009c3060f883015260e482016f5af43d82803e903d91602b57fd5bf3ff90528d60d4830152733d602d80600a3d3981f3363d3d373d3d3d363d7390528261011882015260cc8101603790206101388201526101030160559020168a51611c4f808201908282108d83111762001192576060918b8f8c8f8795620029ab87398885528401528201520301905ff08015620011a4578d16998b5191610de6808401928484109084111762001192579183918e9362001bc584398152898c8201520301905ff0801562001188578c6e5af43d82803e903d91602b57fd5bf391169b763d602d80600a3d3981f3363d3d373d3d3d363d7300000062ffffff8260881c16175f5260781b178852603760095ff58b81169b8c15620011785780600254168d3b1562001066575f888f8f8f8f928a928f948d988f60e4978a96519b8c9a8b996360172a1160e11b8b528a0152880152604487015260648601528b608486015260a485015260c48401525af180156200116e5762001158575b508d817f000000000000000000000000000000000000000000000000000000000000000016803b156200020b57818f91888f93839451948593849263a79b9ec960e01b84528c8401525af180156200114e578f90918e939262001130575b50815260038b5220805460ff191660011790558354600160401b8110156200111e578c8f8f908e9162000e398f95600181018b556200156f565b81549060031b908884831b921b1916179055815260058d5281812060018060a01b0319948582541617905560068d5220918254161790558262000ebc575b505050505060609850855192835283830152867f699d247975a9e1cf512fc31b6480fa4c3391c115cec9ec3b65638a67fd841d5b863394a48251948552840152820152f35b7f000000000000000000000000000000000000000000000000000000000000000016908d8b516323b872dd60e01b8152338682015230878201528460448201528a8160648185885af1918215620011135791620010f1575b5015620010e15788838f949362000f4193868f5180968195829463095ea7b360e01b84528c84016200186d565b03925af18015620010d75789928e928792620010b5575b508c5194859384926328e32c8560e11b8452888401525af18015620010ab579087916200107c575b5088516370a0823160e01b81523083820152928390818c5afa91821562001072578b9262001039575b508162000fba575b80808062000e77565b875163a9059cbb60e01b81529186918391829162000fdd9190339084016200186d565b03818d8c5af180156200102f5760609a5062000ffb575b8062000fb1565b6200101f90853d871162001027575b62001016818362001643565b81019062001853565b505f62000ff4565b503d6200100a565b87513d8c823e3d90fd5b9091508581813d83116200106a575b62001054818362001643565b81010312620010665751905f62000fa9565b5f80fd5b503d62001048565b88513d8d823e3d90fd5b813d8311620010a3575b62001092818362001643565b810103126200106657855f62000f80565b503d62001086565b89513d8e823e3d90fd5b620010cf90853d8711620010275762001016818362001643565b505f62000f58565b8b513d85823e3d90fd5b8a51633a23d82560e01b81528490fd5b6200110c91508a3d8c11620010275762001016818362001643565b5f62000f14565b8d51903d90823e3d90fd5b634e487b7160e01b8f5260418552858ffd5b8293506200113f915062001613565b62000938578b908e5f62000dff565b8d513d84823e3d90fd5b62001165919e5062001613565b5f9c5f62000da1565b8c513d5f823e3d90fd5b8a5163b06ebf3d60e01b81528490fd5b8a513d5f823e3d90fd5b87604188634e487b7160e01b5f52525ffd5b8b513d5f823e3d90fd5b84604185634e487b7160e01b5f52525ffd5b855163bb55fd2760e01b81528790fd5b8551636a859ca960e01b81528790fd5b85601189634e487b7160e01b5f52525ffd5b855163162cc9e360e11b81528790fd5b50600a831162000b92565b8551630309cb8760e51b81528790fd5b8551634755657960e01b81528790fd5b50875f541633141562000b7a565b823462001066575f3660031901126200106657517f00000000000000000000000000000000000000000000000000000000000000006001600160a01b03168152602090f35b823462001066575f366003190112620010665760c09060018060a01b038060025416816001541691835193817f0000000000000000000000000000000000000000000000000000000000000000168552817f0000000000000000000000000000000000000000000000000000000000000000166020860152817f000000000000000000000000000000000000000000000000000000000000000016908501527f0000000000000000000000000000000000000000000000000000000000000000166060840152608083015260a0820152f35b503462001066576020908160031936011262001066576001600160a01b03908035828116919082900362001066576200138a62001667565b50815f526003845260ff855f205416156200149b57845163d816574360e01b81525f818381865afa93841562001491575f915f956200146e575b50835f526005865280875f2054169060068752875f20541682519086519260808501519460c08101519660038810156200145b5750928a9795926200144095926200141d9c620003ba9b99960151978a519d8e620015e2565b8d528b8d0152888c015260608b015260808a015260a089015260c0880162001824565b60e086015261010085015251928284938452830190620014a9565b602190634e487b7160e01b5f525260245ffd5b9094506200148891503d805f833e620004f3818362001643565b509387620013c4565b86513d5f823e3d90fd5b845163e6c4247b60e01b8152fd5b90610120908181019160018060a01b03918285511681526020928060208701511660208301526040860151166040820152606085015160608201526080850151608082015260a085015160a082015260c08501519060038210156200155b576020926101409260c083979697015260e087015160e083015261010080970151968201528551809452019301915f5b82811062001546575050505090565b83518552938101939281019260010162001537565b634e487b7160e01b5f52602160045260245ffd5b600454811015620015885760045f5260205f2001905f90565b634e487b7160e01b5f52603260045260245ffd5b60209060206040818301928281528551809452019301915f5b828110620015c4575050505090565b83516001600160a01b031685529381019392810192600101620015b5565b61012081019081106001600160401b03821117620015ff57604052565b634e487b7160e01b5f52604160045260245ffd5b6001600160401b038111620015ff57604052565b602081019081106001600160401b03821117620015ff57604052565b601f909101601f19168101906001600160401b03821190821017620015ff57604052565b604051906200167682620015e2565b6060610100835f81525f60208201525f60408201525f838201525f60808201525f60a08201525f60c08201525f60e08201520152565b6001600160401b038111620015ff5760051b60200190565b9080601f830112156200106657815190602091620016e281620016ac565b93620016f2604051958662001643565b81855260208086019260051b8201019283116200106657602001905b8282106200171d575050505090565b815181529083019083016200170e565b91828203926101808412620010665761014080941262001066576040516001600160401b03939085810185811182821017620015ff57604052825181526020830151602082015260408301516040820152606083015160608201526080830151608082015260a083015160a082015260c08301516003811015620010665760c082015260e083015160ff81168103620010665760e082015261010083810151906001600160a01b0382168203620010665782015261012080840151908201529482015184811162001066578162001806918401620016c4565b936101608301519081116200106657620018219201620016c4565b90565b60038210156200155b5752565b919082018092116200183f57565b634e487b7160e01b5f52601160045260245ffd5b908160209103126200106657518015158103620010665790565b6001600160a01b039091168152602081019190915260400190565b919082039182116200183f57565b8051821015620015885760209160051b010190565b90600454908183101562001a7c57620018dc91620018cb84928362001831565b9080821162001a73575b5062001888565b620018e781620016ac565b91620018f7604051938462001643565b818352601f196200190883620016ac565b015f5b81811062001a595750505f5b828110620019255750505090565b6200193b62001935828462001831565b6200156f565b905460405163d816574360e01b81526003926001600160a01b03929091905f8260048186891b85901c88165afa93841562001a4e575f925f9562001a27575b50808285881b1c165f5260056020528060405f20541660066020528160405f205416908451875192608092838801519560c097888a0151998d8b10156200155b57604001519a6040519d620019cf8f620015e2565b1b1c168b5260208b015260408a0152606089015287015260a0860152840190620019f99162001824565b60e083015261010082015262001a10828662001896565b5262001a1d818562001896565b5060010162001917565b90945062001a429192503d805f833e620004f3818362001643565b50919091935f6200197a565b6040513d5f823e3d90fd5b60209062001a6662001667565b828288010152016200190b565b90505f620018d5565b50505060405162001a8d8162001627565b5f815290565b9062001a9f82620016ac565b62001aae604051918262001643565b828152809262001ac1601f1991620016ac565b0190602036910137565b8015801562001b7e575b62001b65576004805490918181111562001b5f5750805b62001af78162001a93565b925f1983019283115f5b83811062001b1157505050505090565b8162001b4c578062001b2a620019356001938862001888565b838060a01b0391549060031b1c1662001b44828962001896565b520162001b01565b601183634e487b7160e01b5f525260245ffd5b62001aec565b5060405162001b748162001627565b5f81525f36813790565b506004541562001ad5565b5f1981146200183f5760010190565b5f546001600160a01b0316330362001bac57565b60405163118cdaa760e01b8152336004820152602490fdfe60a0604090808252346200039d57818162000de68038038091620000248285620003bd565b8339810103126200039d57516001600160a01b0381168082036200039d576200004d8262000432565b908351806200007b6020946f0283ab639b2a232b63a309026281016960851b868401526030830190620003e1565b039062000091601f1992838101835282620003bd565b620000c2620000cf620000a48762000432565b88519283916550442d4c502d60d01b898401526026830190620003e1565b03848101835282620003bd565b81516001600160401b039290838111620002aa576003928354916001938484811c9416801562000392575b8a8510146200037e578190601f948581116200032b575b508a90858311600114620002ca575f92620002be575b50505f1982871b1c191690841b1784555b8051948511620002aa5760049788548481811c911680156200029f575b828210146200028c5783811162000244575b5080928611600114620001dc5750849550908492915f95620001d0575b50501b925f19911b1c19161782555b15620001c2575060805251610860908162000586823960805181818161014a0152818161031701526103a50152f35b825163e6c4247b60e01b8152fd5b015193505f8062000184565b93929585908116895f52855f20955f905b898383106200022957505050106200020f575b50505050811b01825562000193565b01519060f8845f19921b161c191690555f80808062000200565b858701518955909701969485019488935090810190620001ed565b895f52815f208480890160051c820192848a1062000282575b0160051c019085905b8281106200027657505062000167565b5f815501859062000266565b925081926200025d565b60228a634e487b7160e01b5f525260245ffd5b90607f169062000155565b634e487b7160e01b5f52604160045260245ffd5b015190505f8062000127565b908987941691885f528c5f20928d5f905b828210620003135750508411620002fb575b505050811b01845562000138565b01515f1983891b60f8161c191690555f8080620002ed565b8385015186558a979095019493840193018e620002db565b909150865f528a5f208580850160051c8201928d861062000374575b918891869594930160051c01915b8281106200036557505062000111565b5f815585945088910162000355565b9250819262000347565b634e487b7160e01b5f52602260045260245ffd5b93607f1693620000fa565b5f80fd5b604081019081106001600160401b03821117620002aa57604052565b601f909101601f19168101906001600160401b03821190821017620002aa57604052565b908151915f5b838110620003f8575050015f815290565b8060208092840101518185015201620003e7565b9081518110156200041e570160200190565b634e487b7160e01b5f52603260045260245ffd5b906040516200044181620003a1565b601081526f181899199a1a9b1b9c1cb0b131b232b360811b60208201526040519260018060601b03199060601b166020840152601483526200048383620003a1565b604051906200049282620003a1565b60088252602036818401375f5b6004808210156200057d577fff000000000000000000000000000000000000000000000000000000000000009081620004e8620004dd858a6200040c565b5160fc1c866200040c565b51169060019284841b92858404600214861517156200056a575f1a6200050f84896200040c565b536200052e600f62000522878c6200040c565b5160f81c16876200040c565b5116918301809311620005575750906200054f600193925f1a91866200040c565b53016200049f565b601190634e487b7160e01b5f525260245ffd5b601183634e487b7160e01b5f525260245ffd5b50919350505056fe6080604090808252600480361015610015575f80fd5b5f3560e01c91826306fdde031461060d57508163095ea7b31461056557816318160ddd1461054757816323b872dd14610463578163313ce5671461044857816340c10f191461037c57816370a082311461034657816380f556051461030357816395d89b41146102015781639dc29fac1461012057508063a9059cbb146100f05763dd62ed3e146100a4575f80fd5b346100ec57806003193601126100ec576020906100bf61070e565b6100c7610724565b9060018060a01b038091165f5260018452825f2091165f528252805f20549051908152f35b5f80fd5b50346100ec57806003193601126100ec5760209061011961010f61070e565b6024359033610758565b5160018152f35b82346100ec57806003193601126100ec5761013961070e565b602435929091906001600160a01b037f0000000000000000000000000000000000000000000000000000000000000000811633036101f25783169283156101dc57835f525f602052825f2054918583106101bd575f855f8051602061080b8339815191526020898881898688528785520381872055816002540360025551908152a3005b6101d88684865194859463391434e360e21b8652850161073a565b0390fd5b505f6024925191634b637e8f60e11b8352820152fd5b509051639e0125a960e01b8152fd5b82346100ec575f3660031901126100ec578051905f835460018160011c90600183169283156102f9575b60209384841081146102e6578388529081156102ca5750600114610292575b505050829003601f01601f19168201926001600160401b0384118385101761027f575082918261027b9252826106c7565b0390f35b604190634e487b7160e01b5f525260245ffd5b919250855f52825f2091835f935b8385106102b6575050505083010184808061024a565b8054888601830152930192849082016102a0565b60ff1916878501525050151560051b840101905084808061024a565b602289634e487b7160e01b5f525260245ffd5b91607f169161022b565b82346100ec575f3660031901126100ec57517f00000000000000000000000000000000000000000000000000000000000000006001600160a01b03168152602090f35b82346100ec5760203660031901126100ec576020906001600160a01b0361036b61070e565b165f525f8252805f20549051908152f35b82346100ec57806003193601126100ec5761039561070e565b60243591906001600160a01b03907f0000000000000000000000000000000000000000000000000000000000000000821633036104385716928315610423576002549083820180921161041057505f925f8051602061080b8339815191529260209260025585855284835280852082815401905551908152a3005b601190634e487b7160e01b5f525260245ffd5b5f602492519163ec442f0560e01b8352820152fd5b8251639e0125a960e01b81528590fd5b82346100ec575f3660031901126100ec576020905160128152f35b9050346100ec5760603660031901126100ec5761047e61070e565b610486610724565b906044359260018060a01b038216805f526001602052855f20335f52602052855f2054915f1983106104c1575b602087610119888888610758565b8583106105295781156105135733156104fd57505f908152600160209081528682203383528152908690209185900390915582906101196104b3565b6024905f885191634a1406b160e11b8352820152fd5b6024905f88519163e602df0560e01b8352820152fd5b90506101d8858751938493637dc7a0d960e11b85523390850161073a565b82346100ec575f3660031901126100ec576020906002549051908152f35b82346100ec57806003193601126100ec5761057e61070e565b6024359033156105f7576001600160a01b03169081156105e15760209350335f5260018452825f20825f52845280835f205582519081527f8c5be1e5ebec7d5bd14f71427d1e84f3dd0314c0f7b2291e5b200ac8c7c3b925843392a35160018152f35b8251634a1406b160e11b81525f81860152602490fd5b825163e602df0560e01b81525f81860152602490fd5b83346100ec575f3660031901126100ec575f60035460018160011c90600183169283156106bd575b60209384841081146102e6578388529081156102ca575060011461068457505050829003601f01601f19168201926001600160401b0384118385101761027f575082918261027b9252826106c7565b91925060035f52825f2091835f935b8385106106a9575050505083010184808061024a565b805488860183015293019284908201610693565b91607f1691610635565b602080825282518183018190529093925f5b8281106106fa57505060409293505f838284010152601f8019910116010190565b8181018601518482016040015285016106d9565b600435906001600160a01b03821682036100ec57565b602435906001600160a01b03821682036100ec57565b604091949392606082019560018060a01b0316825260208201520152565b916001600160a01b038084169283156107f257169283156107da57825f525f60205260405f2054908282106107bd5750815f8051602061080b83398151915292602092855f525f84520360405f2055845f5260405f20818154019055604051908152a3565b6101d88360405193849363391434e360e21b85526004850161073a565b60405163ec442f0560e01b81525f6004820152602490fd5b604051634b637e8f60e11b81525f6004820152602490fdfeddf252ad1be2c89b69c2b068fc378daa952ba7f163c4a11628f55a4df523b3efa26469706673582212203debf54d8d577cebcd7858afdbfa2d88e433c28bdf5688caf5013868b83e00cc64736f6c6343000818003360a0346200019c57601f62001c4f38819003918201601f19168301926001600160401b0392909183851183861017620001885781606092849260409788528339810103126200019c5780516001600160a01b0381168082036200019c5784602084015193015193855160208101918183109083111762000188575f91875252600254600190600181811c911680156200017d575b60208210146200016957601f81116200011f575b50505f600255156200010e578215620000fd5760805260035560045551611aae9081620001a182396080518181816102f2015281816105be01528181610a7301528181610b6401528181610cd90152610e8b0152f35b835163162cc9e360e11b8152600490fd5b835163e6c4247b60e01b8152600490fd5b60025f52601f0160051c7f405787fa12a823e0f2b7631cc41b3ba8828b3321ca811111fa75cd3aa3bb5ace908101905b8181106200015e5750620000a7565b5f815582016200014f565b634e487b7160e01b5f52602260045260245ffd5b90607f169062000093565b634e487b7160e01b5f52604160045260245ffd5b5f80fdfe60806040526004361015610011575f80fd5b5f3560e01c8062fdd58e1461013357806301ffc9a71461012e57806303ee438c146101295780630e89341c14610124578063156e29f61461011f5780632eb2c2d61461011a5780634e1273f414610115578063695964841461011057806380f556051461010b5780638767d64e1461010657806388e082881461010157806393fe0932146100fc578063a22cb465146100f7578063bb2bff97146100f2578063e985e9c5146100ed578063f242432a146100e8578063f5298aca146100e35763fe992c98146100de575f80fd5b610ed4565b610e71565b610db4565b610d64565b610cb3565b610c05565b610b3e565b610abf565b610aa2565b610a5e565b610995565b6108db565b610785565b6105a4565b6102ab565b610234565b6101c6565b61017c565b600435906001600160a01b038216820361014e57565b5f80fd5b602435906001600160a01b038216820361014e57565b35906001600160a01b038216820361014e57565b3461014e57604036600319011261014e5760206101ab61019a610138565b6024355f525f835260405f20610f50565b54604051908152f35b6001600160e01b031981160361014e57565b3461014e57602036600319011261014e5760206004356101e5816101b4565b63ffffffff60e01b16636cdb3d1360e11b8114908115610223575b8115610212575b506040519015158152f35b6301ffc9a760e01b1490505f610207565b6303a24d0760e21b81149150610200565b3461014e575f36600319011261014e576020600354604051908152f35b5f5b8381106102625750505f910152565b8181015183820152602001610253565b9060209161028b81518092818552858086019101610251565b601f01601f1916010190565b9060206102a8928181520190610272565b90565b3461014e57602036600319011261014e57600435600454811015610568576102db6102d582611156565b91611156565b906102e46111f3565b6040516001600160601b03197f000000000000000000000000000000000000000000000000000000000000000060601b166020820152601481529092601f19919061033060348361068a565b61034a610345610340845161121f565b6110e3565b6110ad565b92603061035685611128565b53607861036285611135565b535f5b835181101561041157806103b961038d6103b36103ad6103a761039b61038d6001988c611145565b516001600160f81b03191690565b60041c600f60f81b1690565b60f81c90565b60ff1690565b8a611145565b6103d26103c86103408461121f565b915f1a9188611145565b536103f661038d6103b36103ad600f60f81b6103ef84878c611145565b1660f81c90565b61040a6103c86104058461121f565b6110f1565b5301610365565b50848460035461042090611235565b604051717b226e616d65223a224f7574636f6d65202360701b60208201529485939192916032850161045191610f65565b7f222c226465736372697074696f6e223a2250726564696374696f6e206d61726b81526f6574206f7574636f6d6520736861726560801b60208201526030016e11161137baba31b7b6b2afb4b2111d60891b8152600f016104b191610f65565b6a161136b0b935b2ba111d1160a91b8152600b016104ce91610f65565b7111161136b2ba30b230ba30afbab934911d1160711b81526012016104f291610f65565b61227d60f01b815260020103818101835261050d908361068a565b6040517f646174613a6170706c69636174696f6e2f6a736f6e3b6261736536342c0000006020820152918290603d820161054691610f65565b039081018252610556908261068a565b604051610564819282610297565b0390f35b60405163c74a206d60e01b8152600490fd5b606090600319011261014e576004356001600160a01b038116810361014e57906024359060443590565b3461014e576105b23661057a565b916001600160a01b03917f00000000000000000000000000000000000000000000000000000000000000008316330361062957604051926105f28461064f565b5f84528216156106115761060f93610609916112d4565b916112f9565b005b604051632bfa23e760e11b81525f6004820152602490fd5b604051639e0125a960e01b8152600490fd5b634e487b7160e01b5f52604160045260245ffd5b602081019081106001600160401b0382111761066a57604052565b61063b565b604081019081106001600160401b0382111761066a57604052565b601f909101601f19168101906001600160401b0382119082101761066a57604052565b6001600160401b03811161066a5760051b60200190565b9080601f8301121561014e5760209082356106de816106ad565b936106ec604051958661068a565b81855260208086019260051b82010192831161014e57602001905b828210610715575050505090565b81358152908301908301610707565b6001600160401b03811161066a57601f01601f191660200190565b81601f8201121561014e5780359061075682610724565b92610764604051948561068a565b8284526020838301011161014e57815f926020809301838601378301015290565b3461014e5760a036600319011261014e5761079e610138565b6107a6610152565b60443591906001600160401b039081841161014e576107ca600494369086016106c4565b9060643583811161014e576107e290369087016106c4565b9260843590811161014e576107fa903690870161073f565b936001600160a01b03808216903382141580610877575b61085857831615610841571561082b5761060f9550611540565b604051626a0d4560e21b81525f81880152602490fd5b604051632bfa23e760e11b81525f81890152602490fd5b60405163711bec9160e11b8152806108738533838d01610f7c565b0390fd5b50815f52600160205260ff61088f3360405f20610f50565b541615610811565b9081518082526020808093019301915f5b8281106108b6575050505090565b8351855293810193928101926001016108a8565b9060206102a8928181520190610897565b3461014e57604036600319011261014e576004356001600160401b0380821161014e573660238301121561014e578160040135610917816106ad565b92610925604051948561068a565b8184526020916024602086019160051b8301019136831161014e57602401905b82821061097e578560243586811161014e576105649161096c6109729236906004016106c4565b90611006565b604051918291826108ca565b83809161098a84610168565b815201910190610945565b3461014e575f36600319011261014e576004546109ca6109b4826106ad565b916109c2604051938461068a565b8083526106ad565b60209190601f1901825f5b828110610a3c5750826040519082820192808352815180945260408301938160408260051b8601019301915f955b828710610a105785850386f35b909192938280610a2c600193603f198a82030186528851610272565b9601920196019592919092610a03565b606084820183015281016109d5565b6001600160a01b03909116815260200190565b3461014e575f36600319011261014e576040517f00000000000000000000000000000000000000000000000000000000000000006001600160a01b03168152602090f35b3461014e575f36600319011261014e576020600454604051908152f35b3461014e5760208060031936011261014e57610ad9610138565b6004545f19929091905f5b838110610b1057845f198114610b09575b604080518215158152602081019290925290f35b505f610af5565b805f525f8252610b238360405f20610f50565b54858110610b35575b50600101610ae4565b94506001610b2c565b3461014e57604036600319011261014e57610b57610138565b6024356001600160a01b037f0000000000000000000000000000000000000000000000000000000000000000811633036106295760045490610b9882610fa7565b91610ba281610fa7565b935f5b828110610be457505050831615610bcd5761060f925f604051610bc78161064f565b52611430565b604051626a0d4560e21b81525f6004820152602490fd5b8080610bf260019388610fed565b5282610bfe8289610fed565b5201610ba5565b3461014e57604036600319011261014e57610c1e610138565b60243580151580820361014e576001600160a01b038316928315610c9c57610c5190335f52600160205260405f20610f50565b9060ff801983541691161790557f17307eab39ab6107e8899845ad3d59bd9653f200f220920489ca2b5937696c3160405180610c97339482919091602081019215159052565b0390a3005b60405162ced3e160e81b81525f6004820152602490fd5b3461014e57604036600319011261014e57610ccc610138565b6001600160a01b036024357f00000000000000000000000000000000000000000000000000000000000000008216330361062957600454610d0c81610fa7565b90610d1681610fa7565b925f5b828110610d435750505060405192610d308461064f565b5f84528416156106115761060f936112f9565b8080610d5160019387610fed565b5282610d5d8288610fed565b5201610d19565b3461014e57604036600319011261014e57602060ff610da8610d84610138565b610d8c610152565b6001600160a01b039091165f9081526001855260409020610f50565b54166040519015158152f35b3461014e5760a036600319011261014e57610dcd610138565b610dd5610152565b6084356001600160401b03811161014e57610df490369060040161073f565b906001600160a01b03838116903382141580610e51575b610e35578216156106115715610bcd5761060f92610e2d6064356044356112d4565b929091611540565b60405163711bec9160e11b815280610873873360048401610f7c565b50815f52600160205260ff610e693360405f20610f50565b541615610e0b565b3461014e57610e7f3661057a565b91906001600160a01b037f00000000000000000000000000000000000000000000000000000000000000008116330361062957821615610bcd5761060f92610ec6916112d4565b915f604051610bc78161064f565b3461014e5760208060031936011261014e57610eee610138565b60045490610efb82610fa7565b925f5b838110610f1b576040516020808252819061056490820188610897565b806001915f525f8352610f318460405f20610f50565b54610f3c8288610fed565b5201610efe565b5f525f60205260405f2090565b9060018060a01b03165f5260205260405f2090565b90610f7860209282815194859201610251565b0190565b6001600160a01b0391821681529116602082015260400190565b908152602081019190915260400190565b90610fb1826106ad565b610fbe604051918261068a565b8281528092610fcf601f19916106ad565b0190602036910137565b634e487b7160e01b5f52603260045260245ffd5b80518210156110015760209160051b010190565b610fd9565b9190918051835180820361106a5750506110208151610fa7565b905f5b8151811015611063578061105160019260051b5f602080808489010151938b01015182525260405f20610f50565b5461105c8286610fed565b5201611023565b5090925050565b610873604051928392635b05999160e01b845260048401610f96565b634e487b7160e01b5f52601160045260245ffd5b5f1981146110a85760010190565b611086565b906110b782610724565b6110c4604051918261068a565b8281528092610fcf601f1991610724565b5f198101919082116110a857565b60020190816002116110a857565b60030190816003116110a857565b60300190816030116110a857565b60010190816001116110a857565b919082018092116110a857565b8051156110015760200190565b8051600110156110015760210190565b908151811015611001570160200190565b80156111d557805f81805b6111bd575061116f816110ad565b925b61117a57505090565b611183906110d5565b90600a906111a86111986103ad8484066110ff565b60f81b6001600160f81b03191690565b5f1a6111b48486611145565b53049081611171565b91506111ca600a9161109a565b910480839291611161565b506040516111e28161066f565b60018152600360fc1b602082015290565b604051906112008261066f565b601082526f181899199a1a9b1b9c1cb0b131b232b360811b6020830152565b908160011b91808304600214901517156110a857565b61123d6111f3565b6040519190606083016001600160401b0381118482101761066a576040526040835260209160403660208601375f5b83811061127a575050505090565b806112b961038d846001941a600f9061129b61038d838360041c168a611145565b6112b16112a78761121f565b915f1a918c611145565b531686611145565b6112cd6103c86112c88461121f565b61110d565b530161126c565b9160405192600184526020840152604083019160018352606084015260808301604052565b90805183519081810361106a5750505f5b815181101561136b57600581901b82810160209081015191860101516001929185906001600160a01b038216611344575b5050500161130a565b6113619161135461135992610f43565b610f50565b91825461111b565b90555f848161133b565b508051919392916001036113fb5760208101515f6020840151915f80516020611a59833981519152604051806113ac60018060a01b038b1696339583610f96565b0390a45b6001600160a01b0384166113c5575b50505050565b80516001036113ec57906020806113e39593015191015191336119cc565b5f8080806113bf565b6113f693336117e3565b6113e3565b6040516001600160a01b038516905f9033905f80516020611a3983398151915290806114288888836116fe565b0390a46113b0565b929190805182519081810361106a5750505f5b81518110156114c857600581901b82810160209081015191850101516001600160a01b038716611478575b5050600101611443565b6114858761135484610f43565b548181106114a9578761135460019594936114a1930393610f43565b55905f61146e565b8761087384846040519485946303dee4c560e01b8652600486016116da565b50905f92939160018151148414611514576020908101519101516040516001600160a01b039093169233925f80516020611a5983398151915292829161150f919083610f96565b0390a4565b6040516001600160a01b039093169233925f80516020611a3983398151915292829161150f91836116fe565b94919091815184519081810361106a5750505f5b825181101561160957600581901b83810160209081015191870101516001600160a01b03929186908a85166115b1575b6001948216611597575b50505001611554565b6115a79161135461135992610f43565b90555f858161158e565b91929390506115c38a61135484610f43565b548381106115ea57918791846001969594036115e28d61135485610f43565b559450611584565b8a61087384866040519485946303dee4c560e01b8652600486016116da565b5094919392909360018551145f146116a2576020850151602083015160018060a01b03915f80516020611a5983398151915260405180611651868816968a1695339583610f96565b0390a45b6001600160a01b03811661166b575b5050505050565b8451600103611691576020806116879601519201519233611a01565b5f80808080611664565b61169d949192336118d0565b611687565b6040516001600160a01b03828116919085169033905f80516020611a3983398151915290806116d2888c836116fe565b0390a4611655565b90949392606092608083019660018060a01b03168352602083015260408201520152565b90916117156102a893604084526040840190610897565b916020818403910152610897565b9081602091031261014e57516102a8816101b4565b926117666102a895936117749360018060a01b031686525f602087015260a0604087015260a0860190610897565b908482036060860152610897565b916080818403910152610272565b93906102a89593611766916117749460018060a01b03809216885216602087015260a0604087015260a0860190610897565b3d156117de573d906117c582610724565b916117d3604051938461068a565b82523d5f602084013e565b606090565b9293919093843b6117f5575050505050565b602091611818604051948593849363bc197c8160e01b9889865260048601611738565b03815f6001600160a01b0388165af15f918161189f575b50611868578261183d6117b4565b805191908261186157604051632bfa23e760e11b8152806108738460048301610a4b565b6020915001fd5b6001600160e01b0319160361188257505f80808080611664565b604051632bfa23e760e11b81529081906108739060048301610a4b565b6118c291925060203d6020116118c9575b6118ba818361068a565b810190611723565b905f61182f565b503d6118b0565b939290949194853b6118e5575b505050505050565b611908602093604051958694859463bc197c8160e01b998a875260048701611782565b03815f6001600160a01b0388165af15f9181611948575b5061192d578261183d6117b4565b6001600160e01b0319160361188257505f80808080806118dd565b61196291925060203d6020116118c9576118ba818361068a565b905f61191f565b909260a0926102a89594600180861b031683525f6020840152604083015260608201528160808201520190610272565b91926102a895949160a094600180871b038092168552166020840152604083015260608201528160808201520190610272565b9293919093843b6119de575050505050565b602091611818604051948593849363f23a6e6160e01b9889865260048601611969565b939290949194853b611a1557505050505050565b611908602093604051958694859463f23a6e6160e01b998a87526004870161199956fe4a39dc06d4c0dbc64b70af90fd698a233a518aa5d07e595d983b8c0526c8f7fbc3d58168c5ae7397731d063d5bbf3d657854427343f4c083240f7aacaa2d0f62a26469706673582212209211b2654bd0bad5a1f042435b851b811839e114ad0a5e1703f5a2fc7645474b64736f6c634300081800338be0079c531659141344cd1fd0a4f28419497f9722a3daafe3b4186f6b6457e0a2646970667358221220af5db5f3037ba4bbf7d0811cb04e2c66c396677af598d2729123025f5319a81064736f6c63430008180033","linkReferences":{}},"methodIdentifiers":{"MAX_OUTCOMES()":"dc73d164","MIN_INITIAL_LIQUIDITY()":"728780fa","MIN_MARKET_DURATION()":"92f012b2","admin()":"f851a440","allMarkets(uint256)":"52d84d1e","collateralToken()":"b2016bd4","createMarket(bytes32,uint256,uint256,uint256)":"415a9a15","feeManager()":"d0fb0203","getActiveMarkets()":"a5e973c3","getAllMarkets()":"b0772d0b","getFactoryConfig()":"15903763","getLPToken(address)":"4fc99ed6","getMarketCount()":"fd69f3c2","getMarketSummaries(uint256,uint256)":"53cc6e68","getMarketSummary(address)":"133ccf0a","getMarketsByStatus(uint8)":"7b340a64","getOutcomeToken(address)":"7f5ac639","getRecentMarkets(uint256)":"6220a2f1","isMarket(address)":"6ec934da","marketImplementation()":"39cfc386","marketToLPToken(address)":"994657b0","marketToOutcomeToken(address)":"fcd89bf4","oracleResolver()":"b5acbd43","owner()":"8da5cb5b","renounceOwnership()":"715018a6","setAdmin(address)":"704b6c02","setOracle(address)":"7adbf973","socialPredictions()":"60836780","transferOwnership(address)":"f2fde38b"},"id":45}