{"abi":[{"type":"constructor","inputs":[{"name":"_marketImplementation","type":"address","internalType":"address"},{"name":"_collateralToken","type":"address","internalType":"address"},{"name":"_feeManager","type":"address","internalType":"address"},{"name":"_socialPredictions","type":"address","internalType":"address"},{"name":"_oracleResolver","type":"address","internalType":"address"},{"name":"_admin","type":"address","internalType":"address"}],"stateMutability":"nonpayable"},{"type":"function","name":"MAX_OUTCOMES","inputs":[],"outputs":[{"name":"","type":"uint256","internalType":"uint256"}],"stateMutability":"view"},{"type":"function","name":"MIN_INITIAL_LIQUIDITY","inputs":[],"outputs":[{"name":"","type":"uint256","internalType":"uint256"}],"stateMutability":"view"},{"type":"function","name":"MIN_MARKET_DURATION","inputs":[],"outputs":[{"name":"","type":"uint256","internalType":"uint256"}],"stateMutability":"view"},{"type":"function","name":"admin","inputs":[],"outputs":[{"name":"","type":"address","internalType":"address"}],"stateMutability":"view"},{"type":"function","name":"allMarkets","inputs":[{"name":"","type":"uint256","internalType":"uint256"}],"outputs":[{"name":"","type":"address","internalType":"address"}],"stateMutability":"view"},{"type":"function","name":"collateralToken","inputs":[],"outputs":[{"name":"","type":"address","internalType":"address"}],"stateMutability":"view"},{"type":"function","name":"createMarket","inputs":[{"name":"metadataURI","type":"bytes32","internalType":"bytes32"},{"name":"numOutcomes","type":"uint256","internalType":"uint256"},{"name":"resolutionTime","type":"uint256","internalType":"uint256"},{"name":"initialLiquidity","type":"uint256","internalType":"uint256"}],"outputs":[{"name":"market","type":"address","internalType":"address"},{"name":"outcomeTokenAddr","type":"address","internalType":"address"},{"name":"lpTokenAddr","type":"address","internalType":"address"}],"stateMutability":"nonpayable"},{"type":"function","name":"feeManager","inputs":[],"outputs":[{"name":"","type":"address","internalType":"address"}],"stateMutability":"view"},{"type":"function","name":"getActiveMarkets","inputs":[],"outputs":[{"name":"markets","type":"address[]","internalType":"address[]"}],"stateMutability":"view"},{"type":"function","name":"getAllMarkets","inputs":[],"outputs":[{"name":"markets","type":"address[]","internalType":"address[]"}],"stateMutability":"view"},{"type":"function","name":"getFactoryConfig","inputs":[],"outputs":[{"name":"_marketImplementation","type":"address","internalType":"address"},{"name":"_collateralToken","type":"address","internalType":"address"},{"name":"_feeManager","type":"address","internalType":"address"},{"name":"_socialPredictions","type":"address","internalType":"address"},{"name":"_oracleResolver","type":"address","internalType":"address"},{"name":"_admin","type":"address","internalType":"address"}],"stateMutability":"view"},{"type":"function","name":"getLPToken","inputs":[{"name":"market","type":"address","internalType":"address"}],"outputs":[{"name":"lpToken","type":"address","internalType":"address"}],"stateMutability":"view"},{"type":"function","name":"getMarketCount","inputs":[],"outputs":[{"name":"count","type":"uint256","internalType":"uint256"}],"stateMutability":"view"},{"type":"function","name":"getMarketSummaries","inputs":[{"name":"offset","type":"uint256","internalType":"uint256"},{"name":"limit","type":"uint256","internalType":"uint256"}],"outputs":[{"name":"summaries","type":"tuple[]","internalType":"struct CategoricalMarketFactory.MarketSummary[]","components":[{"name":"market","type":"address","internalType":"address"},{"name":"outcomeToken","type":"address","internalType":"address"},{"name":"lpToken","type":"address","internalType":"address"},{"name":"metadataURI","type":"bytes32","internalType":"bytes32"},{"name":"numOutcomes","type":"uint256","internalType":"uint256"},{"name":"resolutionTime","type":"uint256","internalType":"uint256"},{"name":"status","type":"uint8","internalType":"enum CategoricalMarket.MarketStatus"},{"name":"totalLiquidity","type":"uint256","internalType":"uint256"},{"name":"prices","type":"uint256[]","internalType":"uint256[]"}]}],"stateMutability":"view"},{"type":"function","name":"getMarketSummary","inputs":[{"name":"market","type":"address","internalType":"address"}],"outputs":[{"name":"summary","type":"tuple","internalType":"struct CategoricalMarketFactory.MarketSummary","components":[{"name":"market","type":"address","internalType":"address"},{"name":"outcomeToken","type":"address","internalType":"address"},{"name":"lpToken","type":"address","internalType":"address"},{"name":"metadataURI","type":"bytes32","internalType":"bytes32"},{"name":"numOutcomes","type":"uint256","internalType":"uint256"},{"name":"resolutionTime","type":"uint256","internalType":"uint256"},{"name":"status","type":"uint8","internalType":"enum CategoricalMarket.MarketStatus"},{"name":"totalLiquidity","type":"uint256","internalType":"uint256"},{"name":"prices","type":"uint256[]","internalType":"uint256[]"}]}],"stateMutability":"view"},{"type":"function","name":"getMarketsByStatus","inputs":[{"name":"status","type":"uint8","internalType":"enum CategoricalMarket.MarketStatus"}],"outputs":[{"name":"markets","type":"address[]","internalType":"address[]"}],"stateMutability":"view"},{"type":"function","name":"getOutcomeToken","inputs":[{"name":"market","type":"address","internalType":"address"}],"outputs":[{"name":"outcomeToken","type":"address","internalType":"address"}],"stateMutability":"view"},{"type":"function","name":"getRecentMarkets","inputs":[{"name":"count","type":"uint256","internalType":"uint256"}],"outputs":[{"name":"markets","type":"address[]","internalType":"address[]"}],"stateMutability":"view"},{"type":"function","name":"isMarket","inputs":[{"name":"","type":"address","internalType":"address"}],"outputs":[{"name":"","type":"bool","internalType":"bool"}],"stateMutability":"view"},{"type":"function","name":"marketImplementation","inputs":[],"outputs":[{"name":"","type":"address","internalType":"address"}],"stateMutability":"view"},{"type":"function","name":"marketToLPToken","inputs":[{"name":"","type":"address","internalType":"address"}],"outputs":[{"name":"","type":"address","internalType":"address"}],"stateMutability":"view"},{"type":"function","name":"marketToOutcomeToken","inputs":[{"name":"","type":"address","internalType":"address"}],"outputs":[{"name":"","type":"address","internalType":"address"}],"stateMutability":"view"},{"type":"function","name":"oracleResolver","inputs":[],"outputs":[{"name":"","type":"address","internalType":"address"}],"stateMutability":"view"},{"type":"function","name":"owner","inputs":[],"outputs":[{"name":"","type":"address","internalType":"address"}],"stateMutability":"view"},{"type":"function","name":"renounceOwnership","inputs":[],"outputs":[],"stateMutability":"nonpayable"},{"type":"function","name":"setAdmin","inputs":[{"name":"newAdmin","type":"address","internalType":"address"}],"outputs":[],"stateMutability":"nonpayable"},{"type":"function","name":"setOracle","inputs":[{"name":"newOracle","type":"address","internalType":"address"}],"outputs":[],"stateMutability":"nonpayable"},{"type":"function","name":"socialPredictions","inputs":[],"outputs":[{"name":"","type":"address","internalType":"address"}],"stateMutability":"view"},{"type":"function","name":"transferOwnership","inputs":[{"name":"newOwner","type":"address","internalType":"address"}],"outputs":[],"stateMutability":"nonpayable"},{"type":"event","name":"AdminUpdated","inputs":[{"name":"oldAdmin","type":"address","indexed":true,"internalType":"address"},{"name":"newAdmin","type":"address","indexed":true,"internalType":"address"}],"anonymous":false},{"type":"event","name":"MarketCreated","inputs":[{"name":"market","type":"address","indexed":true,"internalType":"address"},{"name":"metadataURI","type":"bytes32","indexed":true,"internalType":"bytes32"},{"name":"numOutcomes","type":"uint256","indexed":false,"internalType":"uint256"},{"name":"resolutionTime","type":"uint256","indexed":false,"internalType":"uint256"},{"name":"creator","type":"address","indexed":true,"internalType":"address"}],"anonymous":false},{"type":"event","name":"OracleUpdated","inputs":[{"name":"oldOracle","type":"address","indexed":true,"internalType":"address"},{"name":"newOracle","type":"address","indexed":true,"internalType":"address"}],"anonymous":false},{"type":"event","name":"OwnershipTransferred","inputs":[{"name":"previousOwner","type":"address","indexed":true,"internalType":"address"},{"name":"newOwner","type":"address","indexed":true,"internalType":"address"}],"anonymous":false},{"type":"error","name":"FailedDeployment","inputs":[]},{"type":"error","name":"InsufficientBalance","inputs":[{"name":"balance","type":"uint256","internalType":"uint256"},{"name":"needed","type":"uint256","internalType":"uint256"}]},{"type":"error","name":"InsufficientCollateral","inputs":[]},{"type":"error","name":"InsufficientLiquidity","inputs":[]},{"type":"error","name":"InvalidAddress","inputs":[]},{"type":"error","name":"InvalidOutcomeCount","inputs":[]},{"type":"error","name":"InvalidParameter","inputs":[]},{"type":"error","name":"OnlyAdmin","inputs":[]},{"type":"error","name":"OwnableInvalidOwner","inputs":[{"name":"owner","type":"address","internalType":"address"}]},{"type":"error","name":"OwnableUnauthorizedAccount","inputs":[{"name":"account","type":"address","internalType":"address"}]},{"type":"error","name":"ResolutionTimePassed","inputs":[]}],"bytecode":{"object":"0x61010060405234801562000011575f80fd5b5060405162005082380380620050828339810160408190526200003491620001a2565b33806200005a57604051631e4fbdf760e01b81525f600482015260240160405180910390fd5b620000658162000137565b506001600160a01b03861615806200008457506001600160a01b038516155b806200009757506001600160a01b038416155b80620000aa57506001600160a01b038316155b80620000bd57506001600160a01b038216155b80620000d057506001600160a01b038116155b15620000ef5760405163e6c4247b60e01b815260040160405180910390fd5b6001600160a01b0395861660805293851660a05291841660c052831660e052600280549184166001600160a01b0319928316179055600180549290931691161790556200021f565b5f80546001600160a01b038381166001600160a01b0319831681178455604051919092169283917f8be0079c531659141344cd1fd0a4f28419497f9722a3daafe3b4186f6b6457e09190a35050565b80516001600160a01b03811681146200019d575f80fd5b919050565b5f805f805f8060c08789031215620001b8575f80fd5b620001c38762000186565b9550620001d36020880162000186565b9450620001e36040880162000186565b9350620001f36060880162000186565b9250620002036080880162000186565b91506200021360a0880162000186565b90509295509295509295565b60805160a05160c05160e051614df76200028b5f395f81816102aa01526103db01525f81816102800152818161059401526109ac01525f81816102580152818161055801528181610ac00152610b7c01525f8181610233015281816102ed01526108f00152614df75ff3fe608060405234801562000010575f80fd5b5060043610620001ec575f3560e01c80637b340a641162000113578063b2016bd411620000ab578063f2fde38b1162000077578063f2fde38b14620005bf578063f851a44014620005d6578063fcd89bf414620005ea578063fd69f3c21462000615575f80fd5b8063b2016bd41462000552578063b5acbd43146200057a578063d0fb0203146200058e578063dc73d16414620005b6575f80fd5b806392f012b211620000eb57806392f012b21462000509578063994657b01462000513578063a5e973c3146200053e578063b0772d0b1462000548575f80fd5b80637b340a6414620004b35780637f5ac63914620004ca5780638da5cb5b14620004f8575f80fd5b8063608367801162000187578063704b6c02116200015f578063704b6c021462000459578063715018a61462000472578063728780fa146200047c5780637adbf973146200049c575f80fd5b80636083678014620003d55780636220a2f114620003fd5780636ec934da1462000423575f80fd5b8063415a9a1511620001c7578063415a9a1514620003285780634fc99ed6146200036a57806352d84d1e146200039857806353cc6e6814620003af575f80fd5b8063133ccf0a14620001f057806315903763146200021f57806339cfc38614620002e7575b5f80fd5b620002076200020136600462001977565b6200061e565b60405162000216919062001ab6565b60405180910390f35b600254600154604080516001600160a01b037f0000000000000000000000000000000000000000000000000000000000000000811682527f0000000000000000000000000000000000000000000000000000000000000000811660208301527f00000000000000000000000000000000000000000000000000000000000000008116928201929092527f00000000000000000000000000000000000000000000000000000000000000008216606082015292811660808401521660a082015260c00162000216565b6200030f7f000000000000000000000000000000000000000000000000000000000000000081565b6040516001600160a01b03909116815260200162000216565b6200033f6200033936600462001aca565b62000762565b604080516001600160a01b039485168152928416602084015292169181019190915260600162000216565b6200030f6200037b36600462001977565b6001600160a01b039081165f908152600660205260409020541690565b6200030f620003a936600462001afa565b62000d94565b620003c6620003c036600462001b12565b62000dbd565b60405162000216919062001b33565b6200030f7f000000000000000000000000000000000000000000000000000000000000000081565b620004146200040e36600462001afa565b6200100e565b60405162000216919062001b99565b620004486200043436600462001977565b60036020525f908152604090205460ff1681565b604051901515815260200162000216565b620004706200046a36600462001977565b6200112f565b005b62000470620011b2565b6200048d68056bc75e2d6310000081565b60405190815260200162000216565b62000470620004ad36600462001977565b620011c9565b62000414620004c436600462001bf4565b6200124c565b6200030f620004db36600462001977565b6001600160a01b039081165f908152600560205260409020541690565b5f546001600160a01b03166200030f565b6200048d610e1081565b6200030f6200052436600462001977565b60066020525f90815260409020546001600160a01b031681565b62000414620014d2565b6200041462001732565b6200030f7f000000000000000000000000000000000000000000000000000000000000000081565b6002546200030f906001600160a01b031681565b6200030f7f000000000000000000000000000000000000000000000000000000000000000081565b6200048d600a81565b62000470620005d036600462001977565b62001794565b6001546200030f906001600160a01b031681565b6200030f620005fb36600462001977565b60056020525f90815260409020546001600160a01b031681565b6004546200048d565b62000628620018fc565b6001600160a01b0382165f9081526003602052604090205460ff16620006615760405163e6c4247b60e01b815260040160405180910390fd5b5f80836001600160a01b031663d81657436040518163ffffffff1660e01b81526004015f60405180830381865afa1580156200069f573d5f803e3d5ffd5b505050506040513d5f823e601f3d908101601f19168201604052620006c8919081019062001d28565b5060408051610120810182526001600160a01b038089168083525f8181526005602090815285822054841681860152918152600690915283902054169181019190915282516060820152815160808083019190915283015160a082015260c080840151939550919350919082019060028111156200074a576200074a6200199c565b81526040938401516020820152929092015292915050565b6001545f90819081906001600160a01b031633148015906200078e57505f546001600160a01b03163314155b15620007ad57604051634755657960e01b815260040160405180910390fd5b86620007cc57604051630309cb8760e51b815260040160405180910390fd5b6002861080620007dc5750600a86115b15620007fb5760405163162cc9e360e11b815260040160405180910390fd5b62000809610e104262001e42565b8510156200082a57604051636a859ca960e01b815260040160405180910390fd5b68056bc75e2d63100000841015620008555760405163bb55fd2760e01b815260040160405180910390fd5b5f808888604051620008679062001946565b6001600160a01b03909316835260208301919091526040820152606001604051809103905ff0801580156200089e573d5f803e3d5ffd5b5090508092505f8089604051620008b59062001954565b6001600160a01b0390921682526020820152604001604051809103905ff080158015620008e4573d5f803e3d5ffd5b509050809250620009157f0000000000000000000000000000000000000000000000000000000000000000620017db565b60025460405163514e2b8b60e11b8152600481018c9052602481018b9052604481018a90526001600160a01b0391821660648201526084810189905291965086169063a29c57169060a4015f604051808303815f87803b15801562000978575f80fd5b505af11580156200098b573d5f803e3d5ffd5b505060405163a79b9ec960e01b81526001600160a01b0388811660048301527f000000000000000000000000000000000000000000000000000000000000000016925063a79b9ec991506024015f604051808303815f87803b158015620009f0575f80fd5b505af115801562000a03573d5f803e3d5ffd5b505050506001600160a01b038581165f8181526003602090815260408083208054600160ff1990911681179091556004805491820190557f8a35acfbc15ff81a39ae7d344fd709f28e8600b4aa8c65c6b64bfe7fe36bd19b0180546001600160a01b0319908116909517905560058252808320805485168a8716179055600690915290208054909116918516919091179055851562000d40576040516323b872dd60e01b8152336004820152306024820152604481018790525f907f00000000000000000000000000000000000000000000000000000000000000006001600160a01b0316906323b872dd906064016020604051808303815f875af115801562000b0f573d5f803e3d5ffd5b505050506040513d601f19601f8201168201806040525081019062000b35919062001e58565b90508062000b5657604051633a23d82560e01b815260040160405180910390fd5b60405163095ea7b360e01b81526001600160a01b038781166004830152602482018990527f0000000000000000000000000000000000000000000000000000000000000000169063095ea7b3906044016020604051808303815f875af115801562000bc3573d5f803e3d5ffd5b505050506040513d601f19601f8201168201806040525081019062000be9919062001e58565b506040516328e32c8560e11b8152600481018890526001600160a01b038716906351c6590a906024016020604051808303815f875af115801562000c2f573d5f803e3d5ffd5b505050506040513d601f19601f8201168201806040525081019062000c55919062001e79565b506040516370a0823160e01b81523060048201525f906001600160a01b038416906370a0823190602401602060405180830381865afa15801562000c9b573d5f803e3d5ffd5b505050506040513d601f19601f8201168201806040525081019062000cc1919062001e79565b9050801562000d3d5760405163a9059cbb60e01b8152336004820152602481018290526001600160a01b0384169063a9059cbb906044016020604051808303815f875af115801562000d15573d5f803e3d5ffd5b505050506040513d601f19601f8201168201806040525081019062000d3b919062001e58565b505b50505b604080518981526020810189905233918b916001600160a01b038916917f699d247975a9e1cf512fc31b6480fa4c3391c115cec9ec3b65638a67fd841d5b910160405180910390a450509450945094915050565b6004818154811062000da4575f80fd5b5f918252602090912001546001600160a01b0316905081565b600454606090831062000e0757604080515f808252602082019092529062000dfe565b62000dea620018fc565b81526020019060019003908162000de05790505b50905062001008565b5f62000e14838562001e42565b60045490915081111562000e2757506004545b5f62000e34858362001e91565b90508067ffffffffffffffff81111562000e525762000e5262001c12565b60405190808252806020026020018201604052801562000e8f57816020015b62000e7b620018fc565b81526020019060019003908162000e715790505b5092505f5b8181101562001004575f600462000eac838962001e42565b8154811062000ebf5762000ebf62001ea7565b905f5260205f20015f9054906101000a90046001600160a01b031690505f80826001600160a01b031663d81657436040518163ffffffff1660e01b81526004015f60405180830381865afa15801562000f1a573d5f803e3d5ffd5b505050506040513d5f823e601f3d908101601f1916820160405262000f43919081019062001d28565b5060408051610120810182526001600160a01b038088168083525f8181526005602090815285822054841681860152918152600690915283902054169181019190915282516060820152815160808083019190915283015160a082015260c0808401519395509193509190820190600281111562000fc55762000fc56200199c565b8152602001836040015181526020018281525087858151811062000fed5762000fed62001ea7565b602090810291909101015250505060010162000e94565b5050505b92915050565b60608115806200101e5750600454155b1562001037575050604080515f81526020810190915290565b6004545f9083116200104a57826200104e565b6004545b90508067ffffffffffffffff8111156200106c576200106c62001c12565b60405190808252806020026020018201604052801562001096578160200160208202803683370190505b5091505f5b818110156200112857600480548290620010b89060019062001e91565b620010c4919062001e91565b81548110620010d757620010d762001ea7565b905f5260205f20015f9054906101000a90046001600160a01b031683828151811062001107576200110762001ea7565b6001600160a01b03909216602092830291909101909101526001016200109b565b5050919050565b62001139620017e8565b6001600160a01b038116620011615760405163e6c4247b60e01b815260040160405180910390fd5b600180546001600160a01b038381166001600160a01b0319831681179093556040519116919082907f101b8081ff3b56bbf45deb824d86a3b0fd38b7e3dd42421105cf8abe9106db0b905f90a35050565b620011bc620017e8565b620011c75f62001816565b565b620011d3620017e8565b6001600160a01b038116620011fb5760405163e6c4247b60e01b815260040160405180910390fd5b600280546001600160a01b038381166001600160a01b0319831681179093556040519116919082907f078c3b417dadf69374a59793b829c52001247130433427049317bde56607b1b7905f90a35050565b60605f805b60045481101562001338575f6004828154811062001273576200127362001ea7565b5f9182526020822001546040805163d816574360e01b815290516001600160a01b039092169263d8165743926004808401938290030181865afa158015620012bd573d5f803e3d5ffd5b505050506040513d5f823e601f3d908101601f19168201604052620012e6919081019062001d28565b50509050846002811115620012ff57620012ff6200199c565b8160c0015160028111156200131857620013186200199c565b036200132e57826200132a8162001ebb565b9350505b5060010162001251565b508067ffffffffffffffff81111562001355576200135562001c12565b6040519080825280602002602001820160405280156200137f578160200160208202803683370190505b5091505f805b600454811015620014ca575f60048281548110620013a757620013a762001ea7565b5f9182526020822001546040805163d816574360e01b815290516001600160a01b039092169263d8165743926004808401938290030181865afa158015620013f1573d5f803e3d5ffd5b505050506040513d5f823e601f3d908101601f191682016040526200141a919081019062001d28565b505090508560028111156200143357620014336200199c565b8160c0015160028111156200144c576200144c6200199c565b03620014c0576004828154811062001468576200146862001ea7565b905f5260205f20015f9054906101000a90046001600160a01b031685848151811062001498576200149862001ea7565b6001600160a01b039092166020928302919091019091015282620014bc8162001ebb565b9350505b5060010162001385565b505050919050565b60605f805b600454811015620015ac575f60048281548110620014f957620014f962001ea7565b5f9182526020822001546040805163d816574360e01b815290516001600160a01b039092169263d8165743926004808401938290030181865afa15801562001543573d5f803e3d5ffd5b505050506040513d5f823e601f3d908101601f191682016040526200156c919081019062001d28565b509091505f90508160c0015160028111156200158c576200158c6200199c565b03620015a257826200159e8162001ebb565b9350505b50600101620014d7565b508067ffffffffffffffff811115620015c957620015c962001c12565b604051908082528060200260200182016040528015620015f3578160200160208202803683370190505b5091505f805b6004548110156200172c575f600482815481106200161b576200161b62001ea7565b5f9182526020822001546040805163d816574360e01b815290516001600160a01b039092169263d8165743926004808401938290030181865afa15801562001665573d5f803e3d5ffd5b505050506040513d5f823e601f3d908101601f191682016040526200168e919081019062001d28565b509091505f90508160c001516002811115620016ae57620016ae6200199c565b03620017225760048281548110620016ca57620016ca62001ea7565b905f5260205f20015f9054906101000a90046001600160a01b0316858481518110620016fa57620016fa62001ea7565b6001600160a01b0390921660209283029190910190910152826200171e8162001ebb565b9350505b50600101620015f9565b50505090565b606060048054806020026020016040519081016040528092919081815260200182805480156200178a57602002820191905f5260205f20905b81546001600160a01b031681526001909101906020018083116200176b575b5050505050905090565b6200179e620017e8565b6001600160a01b038116620017cd57604051631e4fbdf760e01b81525f60048201526024015b60405180910390fd5b620017d88162001816565b50565b5f62001008825f62001865565b5f546001600160a01b03163314620011c75760405163118cdaa760e01b8152336004820152602401620017c4565b5f80546001600160a01b038381166001600160a01b0319831681178455604051919092169283917f8be0079c531659141344cd1fd0a4f28419497f9722a3daafe3b4186f6b6457e09190a35050565b5f81471015620018925760405163cf47918160e01b815247600482015260248101839052604401620017c4565b763d602d80600a3d3981f3363d3d373d3d3d363d730000008360601b60e81c175f526e5af43d82803e903d91602b57fd5bf38360781b176020526037600983f090506001600160a01b038116620010085760405163b06ebf3d60e01b815260040160405180910390fd5b60408051610120810182525f80825260208201819052918101829052606081018290526080810182905260a081018290529060c082019081526020015f8152602001606081525090565b61211c8062001ed783390190565b610dcf8062003ff383390190565b6001600160a01b0381168114620017d8575f80fd5b5f6020828403121562001988575f80fd5b8135620019958162001962565b9392505050565b634e487b7160e01b5f52602160045260245ffd5b60038110620019cd57634e487b7160e01b5f52602160045260245ffd5b9052565b5f815180845260208085019450602084015f5b8381101562001a0257815187529582019590820190600101620019e4565b509495945050505050565b5f61012060018060a01b038351168452602083015162001a3860208601826001600160a01b03169052565b50604083015162001a5460408601826001600160a01b03169052565b50606083015160608501526080830151608085015260a083015160a085015260c083015162001a8760c0860182620019b0565b5060e083015160e085015261010080840151828287015262001aac83870182620019d1565b9695505050505050565b602081525f62001995602083018462001a0d565b5f805f806080858703121562001ade575f80fd5b5050823594602084013594506040840135936060013592509050565b5f6020828403121562001b0b575f80fd5b5035919050565b5f806040838503121562001b24575f80fd5b50508035926020909101359150565b5f60208083016020845280855180835260408601915060408160051b8701019250602087015f5b8281101562001b8c57603f1988860301845262001b7985835162001a0d565b9450928501929085019060010162001b5a565b5092979650505050505050565b602080825282518282018190525f9190848201906040850190845b8181101562001bdb5783516001600160a01b03168352928401929184019160010162001bb4565b50909695505050505050565b60038110620017d8575f80fd5b5f6020828403121562001c05575f80fd5b8135620019958162001be7565b634e487b7160e01b5f52604160045260245ffd5b604051610140810167ffffffffffffffff8111828210171562001c4d5762001c4d62001c12565b60405290565b805162001c608162001be7565b919050565b805160ff8116811462001c60575f80fd5b805162001c608162001962565b5f82601f83011262001c93575f80fd5b8151602067ffffffffffffffff8083111562001cb35762001cb362001c12565b8260051b604051601f19603f8301168101818110848211171562001cdb5762001cdb62001c12565b604052938452602081870181019490810192508785111562001cfb575f80fd5b6020870191505b8482101562001d1d5781518352918301919083019062001d02565b979650505050505050565b5f805f83850361018081121562001d3d575f80fd5b6101408082121562001d4d575f80fd5b62001d5762001c26565b9150855182526020860151602083015260408601516040830152606086015160608301526080860151608083015260a086015160a083015262001d9d60c0870162001c53565b60c083015262001db060e0870162001c65565b60e083015261010062001dc581880162001c76565b90830152610120868101519083015285015190935067ffffffffffffffff8082111562001df0575f80fd5b62001dfe8783880162001c83565b935061016086015191508082111562001e15575f80fd5b5062001e248682870162001c83565b9150509250925092565b634e487b7160e01b5f52601160045260245ffd5b8082018082111562001008576200100862001e2e565b5f6020828403121562001e69575f80fd5b8151801515811462001995575f80fd5b5f6020828403121562001e8a575f80fd5b5051919050565b8181038181111562001008576200100862001e2e565b634e487b7160e01b5f52603260045260245ffd5b5f6001820162001ecf5762001ecf62001e2e565b506001019056fe60a060405234801562000010575f80fd5b506040516200211c3803806200211c8339810160408190526200003391620000c2565b60408051602081019091525f81526200004c81620000b0565b506001600160a01b038316620000755760405163e6c4247b60e01b815260040160405180910390fd5b805f03620000965760405163162cc9e360e11b815260040160405180910390fd5b6001600160a01b039092166080526003556004556200026d565b6002620000be8282620001a1565b5050565b5f805f60608486031215620000d5575f80fd5b83516001600160a01b0381168114620000ec575f80fd5b602085015160409095015190969495509392505050565b634e487b7160e01b5f52604160045260245ffd5b600181811c908216806200012c57607f821691505b6020821081036200014b57634e487b7160e01b5f52602260045260245ffd5b50919050565b601f8211156200019c57805f5260205f20601f840160051c81016020851015620001785750805b601f840160051c820191505b8181101562000199575f815560010162000184565b50505b505050565b81516001600160401b03811115620001bd57620001bd62000103565b620001d581620001ce845462000117565b8462000151565b602080601f8311600181146200020b575f8415620001f35750858301515b5f19600386901b1c1916600185901b17855562000265565b5f85815260208120601f198616915b828110156200023b578886015182559484019460019091019084016200021a565b50858210156200025957878501515f19600388901b60f8161c191681555b505060018460011b0185555b505050505050565b608051611e73620002a95f395f81816101e8015281816103ae015281816105e8015281816107310152818161090001526109eb0152611e735ff3fe608060405234801561000f575f80fd5b5060043610610110575f3560e01c80638767d64e1161009e578063bb2bff971161006e578063bb2bff971461027b578063e985e9c51461028e578063f242432a146102a1578063f5298aca146102b4578063fe992c98146102c7575f80fd5b80638767d64e1461022257806388e082881461022b57806393fe093214610255578063a22cb46514610268575f80fd5b8063156e29f6116100e4578063156e29f6146101865780632eb2c2d61461019b5780634e1273f4146101ae57806369596484146101ce57806380f55605146101e3575f80fd5b8062fdd58e1461011457806301ffc9a71461013a57806303ee438c1461015d5780630e89341c14610166575b5f80fd5b610127610122366004611605565b6102da565b6040519081526020015b60405180910390f35b61014d610148366004611645565b610301565b6040519015158152602001610131565b61012760035481565b610179610174366004611667565b610350565b60405161013191906116cb565b6101996101943660046116dd565b6103a3565b005b6101996101a936600461184a565b61040b565b6101c16101bc3660046118ec565b610477565b60405161013191906119df565b6101d6610541565b60405161013191906119f1565b61020a7f000000000000000000000000000000000000000000000000000000000000000081565b6040516001600160a01b039091168152602001610131565b61012760045481565b61023e610239366004611a53565b610596565b604080519215158352602083019190915201610131565b610199610263366004611605565b6105dd565b610199610276366004611a6c565b610717565b610199610289366004611605565b610726565b61014d61029c366004611aa5565b610869565b6101996102af366004611ad6565b610896565b6101996102c23660046116dd565b6108f5565b6101c16102d5366004611a53565b610949565b5f818152602081815260408083206001600160a01b03861684529091529020545b92915050565b5f6001600160e01b03198216636cdb3d1360e11b148061033157506001600160e01b031982166303a24d0760e21b145b806102fb57506301ffc9a760e01b6001600160e01b03198316146102fb565b606060045482106103745760405163c74a206d60e01b815260040160405180910390fd5b61037d826109d2565b60405160200161038d9190611b50565b6040516020818303038152906040529050919050565b336001600160a01b037f000000000000000000000000000000000000000000000000000000000000000016146103ec57604051639e0125a960e01b815260040160405180910390fd5b61040683838360405180602001604052805f815250610a2d565b505050565b336001600160a01b038616811480159061042c575061042a8682610869565b155b156104625760405163711bec9160e11b81526001600160a01b038083166004830152871660248201526044015b60405180910390fd5b61046f8686868686610a88565b505050505050565b606081518351146104a85781518351604051635b05999160e01b815260048101929092526024820152604401610459565b5f83516001600160401b038111156104c2576104c261170d565b6040519080825280602002602001820160405280156104eb578160200160208202803683370190505b5090505f5b845181101561053957602080820286010151610514906020808402870101516102da565b82828151811061052657610526611b94565b60209081029190910101526001016104f0565b509392505050565b60606004546001600160401b0381111561055d5761055d61170d565b60405190808252806020026020018201604052801561059057816020015b606081526020019060019003908161057b5790505b50905090565b5f5f19815b6004548110156105c7575f6105b085836102da565b9050828110156105be578092505b5060010161059b565b505f1981036105d357505f5b5f81119150915091565b336001600160a01b037f0000000000000000000000000000000000000000000000000000000000000000161461062657604051639e0125a960e01b815260040160405180910390fd5b5f6004546001600160401b038111156106415761064161170d565b60405190808252806020026020018201604052801561066a578160200160208202803683370190505b5090505f6004546001600160401b038111156106885761068861170d565b6040519080825280602002602001820160405280156106b1578160200160208202803683370190505b5090505f5b60045481101561070557808382815181106106d3576106d3611b94565b602002602001018181525050838282815181106106f2576106f2611b94565b60209081029190910101526001016106b6565b50610711848383610aed565b50505050565b610722338383610b30565b5050565b336001600160a01b037f0000000000000000000000000000000000000000000000000000000000000000161461076f57604051639e0125a960e01b815260040160405180910390fd5b5f6004546001600160401b0381111561078a5761078a61170d565b6040519080825280602002602001820160405280156107b3578160200160208202803683370190505b5090505f6004546001600160401b038111156107d1576107d161170d565b6040519080825280602002602001820160405280156107fa578160200160208202803683370190505b5090505f5b60045481101561084e578083828151811061081c5761081c611b94565b6020026020010181815250508382828151811061083b5761083b611b94565b60209081029190910101526001016107ff565b5061071184838360405180602001604052805f815250610bc4565b6001600160a01b039182165f90815260016020908152604080832093909416825291909152205460ff1690565b336001600160a01b03861681148015906108b757506108b58682610869565b155b156108e85760405163711bec9160e11b81526001600160a01b03808316600483015287166024820152604401610459565b61046f8686868686610bfa565b336001600160a01b037f0000000000000000000000000000000000000000000000000000000000000000161461093e57604051639e0125a960e01b815260040160405180910390fd5b610406838383610c86565b60606004546001600160401b038111156109655761096561170d565b60405190808252806020026020018201604052801561098e578160200160208202803683370190505b5090505f5b6004548110156109cc576109a783826102da565b8282815181106109b9576109b9611b94565b6020908102919091010152600101610993565b50919050565b60606109dd82610cec565b6109e683610cec565b610a0f7f0000000000000000000000000000000000000000000000000000000000000000610df0565b610a1a600354611036565b60405160200161038d9493929190611ba8565b6001600160a01b038416610a5657604051632bfa23e760e11b81525f6004820152602401610459565b6040805160018082526020820186905281830190815260608201859052608082019092529061046f5f87848487611180565b6001600160a01b038416610ab157604051632bfa23e760e11b81525f6004820152602401610459565b6001600160a01b038516610ad957604051626a0d4560e21b81525f6004820152602401610459565b610ae68585858585611180565b5050505050565b6001600160a01b038316610b1557604051626a0d4560e21b81525f6004820152602401610459565b610406835f848460405180602001604052805f815250611180565b6001600160a01b038216610b585760405162ced3e160e81b81525f6004820152602401610459565b6001600160a01b038381165f81815260016020908152604080832094871680845294825291829020805460ff191686151590811790915591519182527f17307eab39ab6107e8899845ad3d59bd9653f200f220920489ca2b5937696c31910160405180910390a3505050565b6001600160a01b038416610bed57604051632bfa23e760e11b81525f6004820152602401610459565b6107115f85858585611180565b6001600160a01b038416610c2357604051632bfa23e760e11b81525f6004820152602401610459565b6001600160a01b038516610c4b57604051626a0d4560e21b81525f6004820152602401610459565b60408051600180825260208201869052818301908152606082018590526080820190925290610c7d8787848487611180565b50505050505050565b6001600160a01b038316610cae57604051626a0d4560e21b81525f6004820152602401610459565b604080516001808252602082018590528183019081526060820184905260a082019092525f60808201818152919291610ae691879185908590611180565b6060815f03610d125750506040805180820190915260018152600360fc1b602082015290565b815f5b8115610d3b5780610d2581611cd0565b9150610d349050600a83611cfc565b9150610d15565b5f816001600160401b03811115610d5457610d5461170d565b6040519080825280601f01601f191660200182016040528015610d7e576020820181803683370190505b5090505b8415610de857610d93600183611d0f565b9150610da0600a86611d22565b610dab906030611d35565b60f81b818381518110610dc057610dc0611b94565b60200101906001600160f81b03191690815f1a905350610de1600a86611cfc565b9450610d82565b949350505050565b60605f6040518060400160405280601081526020016f181899199a1a9b1b9c1cb0b131b232b360811b81525090505f83604051602001610e48919060609190911b6bffffffffffffffffffffffff1916815260140190565b60405160208183030381529060405290505f81516002610e689190611d48565b610e73906002611d35565b6001600160401b03811115610e8a57610e8a61170d565b6040519080825280601f01601f191660200182016040528015610eb4576020820181803683370190505b509050600360fc1b815f81518110610ece57610ece611b94565b60200101906001600160f81b03191690815f1a905350600f60fb1b81600181518110610efc57610efc611b94565b60200101906001600160f81b03191690815f1a9053505f5b825181101561102d57836004848381518110610f3257610f32611b94565b016020015182516001600160f81b031990911690911c60f81c908110610f5a57610f5a611b94565b01602001516001600160f81b03191682610f75836002611d48565b610f80906002611d35565b81518110610f9057610f90611b94565b60200101906001600160f81b03191690815f1a90535083838281518110610fb957610fb9611b94565b602091010151815160f89190911c600f16908110610fd957610fd9611b94565b01602001516001600160f81b03191682610ff4836002611d48565b610fff906003611d35565b8151811061100f5761100f611b94565b60200101906001600160f81b03191690815f1a905350600101610f14565b50949350505050565b604080518082018252601081526f181899199a1a9b1b9c1cb0b131b232b360811b6020820152815182815260608181018452925f91906020820181803683370190505090505f5b60208110156105395782600486836020811061109b5761109b611b94565b1a60f81b6001600160f81b031916901c60f81c60ff16815181106110c1576110c1611b94565b01602001516001600160f81b031916826110dc836002611d48565b815181106110ec576110ec611b94565b60200101906001600160f81b03191690815f1a9053508285826020811061111557611115611b94565b825191901a600f1690811061112c5761112c611b94565b01602001516001600160f81b03191682611147836002611d48565b611152906001611d35565b8151811061116257611162611b94565b60200101906001600160f81b03191690815f1a90535060010161107d565b61118c858585856111d3565b6001600160a01b03841615610ae657825133906001036111c557602084810151908401516111be8389898585896113e2565b505061046f565b61046f818787878787611503565b80518251146112025781518151604051635b05999160e01b815260048101929092526024820152604401610459565b335f5b8351811015611304576020818102858101820151908501909101516001600160a01b038816156112b6575f828152602081815260408083206001600160a01b038c16845290915290205481811015611290576040516303dee4c560e01b81526001600160a01b038a166004820152602481018290526044810183905260648101849052608401610459565b5f838152602081815260408083206001600160a01b038d16845290915290209082900390555b6001600160a01b038716156112fa575f828152602081815260408083206001600160a01b038b168452909152812080548392906112f4908490611d35565b90915550505b5050600101611205565b5082516001036113845760208301515f906020840151909150856001600160a01b0316876001600160a01b0316846001600160a01b03167fc3d58168c5ae7397731d063d5bbf3d657854427343f4c083240f7aacaa2d0f628585604051611375929190918252602082015260400190565b60405180910390a45050610ae6565b836001600160a01b0316856001600160a01b0316826001600160a01b03167f4a39dc06d4c0dbc64b70af90fd698a233a518aa5d07e595d983b8c0526c8f7fb86866040516113d3929190611d5f565b60405180910390a45050505050565b6001600160a01b0384163b1561046f5760405163f23a6e6160e01b81526001600160a01b0385169063f23a6e61906114269089908990889088908890600401611d8c565b6020604051808303815f875af1925050508015611460575060408051601f3d908101601f1916820190925261145d91810190611dc5565b60015b6114c7573d80801561148d576040519150601f19603f3d011682016040523d82523d5f602084013e611492565b606091505b5080515f036114bf57604051632bfa23e760e11b81526001600160a01b0386166004820152602401610459565b805160208201fd5b6001600160e01b0319811663f23a6e6160e01b14610c7d57604051632bfa23e760e11b81526001600160a01b0386166004820152602401610459565b6001600160a01b0384163b1561046f5760405163bc197c8160e01b81526001600160a01b0385169063bc197c81906115479089908990889088908890600401611de0565b6020604051808303815f875af1925050508015611581575060408051601f3d908101601f1916820190925261157e91810190611dc5565b60015b6115ae573d80801561148d576040519150601f19603f3d011682016040523d82523d5f602084013e611492565b6001600160e01b0319811663bc197c8160e01b14610c7d57604051632bfa23e760e11b81526001600160a01b0386166004820152602401610459565b80356001600160a01b0381168114611600575f80fd5b919050565b5f8060408385031215611616575f80fd5b61161f836115ea565b946020939093013593505050565b6001600160e01b031981168114611642575f80fd5b50565b5f60208284031215611655575f80fd5b81356116608161162d565b9392505050565b5f60208284031215611677575f80fd5b5035919050565b5f5b83811015611698578181015183820152602001611680565b50505f910152565b5f81518084526116b781602086016020860161167e565b601f01601f19169290920160200192915050565b602081525f61166060208301846116a0565b5f805f606084860312156116ef575f80fd5b6116f8846115ea565b95602085013595506040909401359392505050565b634e487b7160e01b5f52604160045260245ffd5b604051601f8201601f191681016001600160401b03811182821017156117495761174961170d565b604052919050565b5f6001600160401b038211156117695761176961170d565b5060051b60200190565b5f82601f830112611782575f80fd5b8135602061179761179283611751565b611721565b8083825260208201915060208460051b8701019350868411156117b8575f80fd5b602086015b848110156117d457803583529183019183016117bd565b509695505050505050565b5f82601f8301126117ee575f80fd5b81356001600160401b038111156118075761180761170d565b61181a601f8201601f1916602001611721565b81815284602083860101111561182e575f80fd5b816020850160208301375f918101602001919091529392505050565b5f805f805f60a0868803121561185e575f80fd5b611867866115ea565b9450611875602087016115ea565b935060408601356001600160401b0380821115611890575f80fd5b61189c89838a01611773565b945060608801359150808211156118b1575f80fd5b6118bd89838a01611773565b935060808801359150808211156118d2575f80fd5b506118df888289016117df565b9150509295509295909350565b5f80604083850312156118fd575f80fd5b82356001600160401b0380821115611913575f80fd5b818501915085601f830112611926575f80fd5b8135602061193661179283611751565b82815260059290921b84018101918181019089841115611954575f80fd5b948201945b838610156119795761196a866115ea565b82529482019490820190611959565b9650508601359250508082111561198e575f80fd5b5061199b85828601611773565b9150509250929050565b5f815180845260208085019450602084015f5b838110156119d4578151875295820195908201906001016119b8565b509495945050505050565b602081525f61166060208301846119a5565b5f60208083016020845280855180835260408601915060408160051b8701019250602087015f5b82811015611a4657603f19888603018452611a348583516116a0565b94509285019290850190600101611a18565b5092979650505050505050565b5f60208284031215611a63575f80fd5b611660826115ea565b5f8060408385031215611a7d575f80fd5b611a86836115ea565b915060208301358015158114611a9a575f80fd5b809150509250929050565b5f8060408385031215611ab6575f80fd5b611abf836115ea565b9150611acd602084016115ea565b90509250929050565b5f805f805f60a08688031215611aea575f80fd5b611af3866115ea565b9450611b01602087016115ea565b9350604086013592506060860135915060808601356001600160401b03811115611b29575f80fd5b6118df888289016117df565b5f8151611b4681856020860161167e565b9290920192915050565b7f646174613a6170706c69636174696f6e2f6a736f6e3b6261736536342c00000081525f8251611b8781601d85016020870161167e565b91909101601d0192915050565b634e487b7160e01b5f52603260045260245ffd5b717b226e616d65223a224f7574636f6d65202360701b815284515f90611bd5816012850160208a0161167e565b7f222c226465736372697074696f6e223a2250726564696374696f6e206d61726b6012918401918201526f6574206f7574636f6d6520736861726560801b60328201526e11161137baba31b7b6b2afb4b2111d60891b60428201528551611c43816051840160208a0161167e565b6a161136b0b935b2ba111d1160a91b605192909101918201528451611c6f81605c84016020890161167e565b6012818301019150507111161136b2ba30b230ba30afbab934911d1160711b604a820152611cb1611ca3605c830186611b35565b61227d60f01b815260020190565b979650505050505050565b634e487b7160e01b5f52601160045260245ffd5b5f60018201611ce157611ce1611cbc565b5060010190565b634e487b7160e01b5f52601260045260245ffd5b5f82611d0a57611d0a611ce8565b500490565b818103818111156102fb576102fb611cbc565b5f82611d3057611d30611ce8565b500690565b808201808211156102fb576102fb611cbc565b80820281158282048414176102fb576102fb611cbc565b604081525f611d7160408301856119a5565b8281036020840152611d8381856119a5565b95945050505050565b6001600160a01b03868116825285166020820152604081018490526060810183905260a0608082018190525f90611cb1908301846116a0565b5f60208284031215611dd5575f80fd5b81516116608161162d565b6001600160a01b0386811682528516602082015260a0604082018190525f90611e0b908301866119a5565b8281036060840152611e1d81866119a5565b90508281036080840152611e3181856116a0565b9897505050505050505056fea2646970667358221220f4c6da24fa2616a005bc7da2be880095fb00327286ab8ba30d0272f0bc0410b964736f6c6343000818003360a060405234801562000010575f80fd5b5060405162000dcf38038062000dcf83398101604081905262000033916200029b565b6200003e82620000e8565b60405160200162000050919062000303565b60408051601f198184030181529190526200006b83620000e8565b6040516020016200007d919062000330565b60408051601f1981840301815291905260036200009b8382620003ea565b506004620000aa8282620003ea565b5050506001600160a01b038216620000d55760405163e6c4247b60e01b815260040160405180910390fd5b506001600160a01b031660805262000514565b60605f6040518060400160405280601081526020016f181899199a1a9b1b9c1cb0b131b232b360811b81525090505f836040516020016200013c919060609190911b6001600160601b031916815260140190565b60408051808303601f19018152600880845283830190925292505f91906020820181803683370190505090505f5b600481101562000292578360048483815181106200018c576200018c620004b6565b016020015182516001600160f81b031990911690911c60f81c908110620001b757620001b7620004b6565b01602001516001600160f81b03191682620001d4836002620004de565b81518110620001e757620001e7620004b6565b60200101906001600160f81b03191690815f1a90535083838281518110620002135762000213620004b6565b602091010151815160f89190911c600f16908110620002365762000236620004b6565b01602001516001600160f81b0319168262000253836002620004de565b62000260906001620004fe565b81518110620002735762000273620004b6565b60200101906001600160f81b03191690815f1a9053506001016200016a565b50949350505050565b5f8060408385031215620002ad575f80fd5b82516001600160a01b0381168114620002c4575f80fd5b6020939093015192949293505050565b5f81515f5b81811015620002f55760208185018101518683015201620002d9565b505f93019283525090919050565b6f0283ab639b2a232b63a309026281016960851b81525f620003296010830184620002d4565b9392505050565b6550442d4c502d60d01b81525f620003296006830184620002d4565b634e487b7160e01b5f52604160045260245ffd5b600181811c908216806200037557607f821691505b6020821081036200039457634e487b7160e01b5f52602260045260245ffd5b50919050565b601f821115620003e557805f5260205f20601f840160051c81016020851015620003c15750805b601f840160051c820191505b81811015620003e2575f8155600101620003cd565b50505b505050565b81516001600160401b038111156200040657620004066200034c565b6200041e8162000417845462000360565b846200039a565b602080601f83116001811462000454575f84156200043c5750858301515b5f19600386901b1c1916600185901b178555620004ae565b5f85815260208120601f198616915b82811015620004845788860151825594840194600190910190840162000463565b5085821015620004a257878501515f19600388901b60f8161c191681555b505060018460011b0185555b505050505050565b634e487b7160e01b5f52603260045260245ffd5b634e487b7160e01b5f52601160045260245ffd5b8082028115828204841417620004f857620004f8620004ca565b92915050565b80820180821115620004f857620004f8620004ca565b6080516108946200053b5f395f818161016c015281816102e3015261034901526108945ff3fe608060405234801561000f575f80fd5b50600436106100b1575f3560e01c806370a082311161006e57806370a082311461013f57806380f556051461016757806395d89b41146101a65780639dc29fac146101ae578063a9059cbb146101c1578063dd62ed3e146101d4575f80fd5b806306fdde03146100b5578063095ea7b3146100d357806318160ddd146100f657806323b872dd14610108578063313ce5671461011b57806340c10f191461012a575b5f80fd5b6100bd61020c565b6040516100ca91906106ee565b60405180910390f35b6100e66100e1366004610755565b61029c565b60405190151581526020016100ca565b6002545b6040519081526020016100ca565b6100e661011636600461077d565b6102b5565b604051601281526020016100ca565b61013d610138366004610755565b6102d8565b005b6100fa61014d3660046107b6565b6001600160a01b03165f9081526020819052604090205490565b61018e7f000000000000000000000000000000000000000000000000000000000000000081565b6040516001600160a01b0390911681526020016100ca565b6100bd61032f565b61013d6101bc366004610755565b61033e565b6100e66101cf366004610755565b610391565b6100fa6101e23660046107d6565b6001600160a01b039182165f90815260016020908152604080832093909416825291909152205490565b60606003805461021b90610807565b80601f016020809104026020016040519081016040528092919081815260200182805461024790610807565b80156102925780601f1061026957610100808354040283529160200191610292565b820191905f5260205f20905b81548152906001019060200180831161027557829003601f168201915b5050505050905090565b5f336102a981858561039e565b60019150505b92915050565b5f336102c28582856103b0565b6102cd858585610431565b506001949350505050565b336001600160a01b037f0000000000000000000000000000000000000000000000000000000000000000161461032157604051639e0125a960e01b815260040160405180910390fd5b61032b828261048e565b5050565b60606004805461021b90610807565b336001600160a01b037f0000000000000000000000000000000000000000000000000000000000000000161461038757604051639e0125a960e01b815260040160405180910390fd5b61032b82826104c2565b5f336102a9818585610431565b6103ab83838360016104f6565b505050565b6001600160a01b038381165f908152600160209081526040808320938616835292905220545f1981101561042b578181101561041d57604051637dc7a0d960e11b81526001600160a01b038416600482015260248101829052604481018390526064015b60405180910390fd5b61042b84848484035f6104f6565b50505050565b6001600160a01b03831661045a57604051634b637e8f60e11b81525f6004820152602401610414565b6001600160a01b0382166104835760405163ec442f0560e01b81525f6004820152602401610414565b6103ab8383836105c8565b6001600160a01b0382166104b75760405163ec442f0560e01b81525f6004820152602401610414565b61032b5f83836105c8565b6001600160a01b0382166104eb57604051634b637e8f60e11b81525f6004820152602401610414565b61032b825f836105c8565b6001600160a01b03841661051f5760405163e602df0560e01b81525f6004820152602401610414565b6001600160a01b03831661054857604051634a1406b160e11b81525f6004820152602401610414565b6001600160a01b038085165f908152600160209081526040808320938716835292905220829055801561042b57826001600160a01b0316846001600160a01b03167f8c5be1e5ebec7d5bd14f71427d1e84f3dd0314c0f7b2291e5b200ac8c7c3b925846040516105ba91815260200190565b60405180910390a350505050565b6001600160a01b0383166105f2578060025f8282546105e7919061083f565b909155506106629050565b6001600160a01b0383165f90815260208190526040902054818110156106445760405163391434e360e21b81526001600160a01b03851660048201526024810182905260448101839052606401610414565b6001600160a01b0384165f9081526020819052604090209082900390555b6001600160a01b03821661067e5760028054829003905561069c565b6001600160a01b0382165f9081526020819052604090208054820190555b816001600160a01b0316836001600160a01b03167fddf252ad1be2c89b69c2b068fc378daa952ba7f163c4a11628f55a4df523b3ef836040516106e191815260200190565b60405180910390a3505050565b5f602080835283518060208501525f5b8181101561071a578581018301518582016040015282016106fe565b505f604082860101526040601f19601f8301168501019250505092915050565b80356001600160a01b0381168114610750575f80fd5b919050565b5f8060408385031215610766575f80fd5b61076f8361073a565b946020939093013593505050565b5f805f6060848603121561078f575f80fd5b6107988461073a565b92506107a66020850161073a565b9150604084013590509250925092565b5f602082840312156107c6575f80fd5b6107cf8261073a565b9392505050565b5f80604083850312156107e7575f80fd5b6107f08361073a565b91506107fe6020840161073a565b90509250929050565b600181811c9082168061081b57607f821691505b60208210810361083957634e487b7160e01b5f52602260045260245ffd5b50919050565b808201808211156102af57634e487b7160e01b5f52601160045260245ffdfea2646970667358221220d327ceb37d5790d81b7806008387a7dc588a90506d2fb94ebf165d06bb85541364736f6c63430008180033a264697066735822122056407990b9d49f088d00da4758eb1cbd3ab4bd9887a6e49b8cd187aa5acae3e564736f6c63430008180033","linkReferences":{}},"methodIdentifiers":{"MAX_OUTCOMES()":"dc73d164","MIN_INITIAL_LIQUIDITY()":"728780fa","MIN_MARKET_DURATION()":"92f012b2","admin()":"f851a440","allMarkets(uint256)":"52d84d1e","collateralToken()":"b2016bd4","createMarket(bytes32,uint256,uint256,uint256)":"415a9a15","feeManager()":"d0fb0203","getActiveMarkets()":"a5e973c3","getAllMarkets()":"b0772d0b","getFactoryConfig()":"15903763","getLPToken(address)":"4fc99ed6","getMarketCount()":"fd69f3c2","getMarketSummaries(uint256,uint256)":"53cc6e68","getMarketSummary(address)":"133ccf0a","getMarketsByStatus(uint8)":"7b340a64","getOutcomeToken(address)":"7f5ac639","getRecentMarkets(uint256)":"6220a2f1","isMarket(address)":"6ec934da","marketImplementation()":"39cfc386","marketToLPToken(address)":"994657b0","marketToOutcomeToken(address)":"fcd89bf4","oracleResolver()":"b5acbd43","owner()":"8da5cb5b","renounceOwnership()":"715018a6","setAdmin(address)":"704b6c02","setOracle(address)":"7adbf973","socialPredictions()":"60836780","transferOwnership(address)":"f2fde38b"},"id":44}