{"abi":[{"type":"constructor","inputs":[{"name":"_collateralToken","type":"address","internalType":"address"},{"name":"_treasury","type":"address","internalType":"address"}],"stateMutability":"nonpayable"},{"type":"function","name":"claimLPRewards","inputs":[{"name":"market","type":"address","internalType":"address"}],"outputs":[],"stateMutability":"nonpayable"},{"type":"function","name":"collateralToken","inputs":[],"outputs":[{"name":"","type":"address","internalType":"address"}],"stateMutability":"view"},{"type":"function","name":"collectTradeFees","inputs":[{"name":"market","type":"address","internalType":"address"},{"name":"tradeAmount","type":"uint256","internalType":"uint256"}],"outputs":[{"name":"protocolFee","type":"uint256","internalType":"uint256"},{"name":"lpFee","type":"uint256","internalType":"uint256"}],"stateMutability":"nonpayable"},{"type":"function","name":"getCurrentFees","inputs":[{"name":"market","type":"address","internalType":"address"}],"outputs":[{"name":"totalFeeBps","type":"uint256","internalType":"uint256"},{"name":"protocolFeeBps","type":"uint256","internalType":"uint256"},{"name":"lpFeeBps","type":"uint256","internalType":"uint256"}],"stateMutability":"view"},{"type":"function","name":"getLPInfo","inputs":[{"name":"market","type":"address","internalType":"address"},{"name":"user","type":"address","internalType":"address"}],"outputs":[{"name":"info","type":"tuple","internalType":"struct FeeManager.LPInfo","components":[{"name":"liquidityProvided","type":"uint256","internalType":"uint256"},{"name":"lpTokens","type":"uint256","internalType":"uint256"},{"name":"entryTime","type":"uint256","internalType":"uint256"},{"name":"rewardsEarned","type":"uint256","internalType":"uint256"},{"name":"rewardsClaimed","type":"uint256","internalType":"uint256"}]},{"name":"pendingRewards","type":"uint256","internalType":"uint256"},{"name":"apr","type":"uint256","internalType":"uint256"}],"stateMutability":"view"},{"type":"function","name":"getMarketFeeStats","inputs":[{"name":"market","type":"address","internalType":"address"}],"outputs":[{"name":"stats","type":"tuple","internalType":"struct FeeManager.MarketFeeStats","components":[{"name":"totalProtocolFees","type":"uint256","internalType":"uint256"},{"name":"totalLPFees","type":"uint256","internalType":"uint256"},{"name":"totalVolume","type":"uint256","internalType":"uint256"},{"name":"createdAt","type":"uint256","internalType":"uint256"}]}],"stateMutability":"view"},{"type":"function","name":"getPendingLPRewards","inputs":[{"name":"market","type":"address","internalType":"address"},{"name":"user","type":"address","internalType":"address"}],"outputs":[{"name":"pendingRewards","type":"uint256","internalType":"uint256"}],"stateMutability":"view"},{"type":"function","name":"isMarket","inputs":[{"name":"","type":"address","internalType":"address"}],"outputs":[{"name":"","type":"bool","internalType":"bool"}],"stateMutability":"view"},{"type":"function","name":"lpInfo","inputs":[{"name":"","type":"address","internalType":"address"},{"name":"","type":"address","internalType":"address"}],"outputs":[{"name":"liquidityProvided","type":"uint256","internalType":"uint256"},{"name":"lpTokens","type":"uint256","internalType":"uint256"},{"name":"entryTime","type":"uint256","internalType":"uint256"},{"name":"rewardsEarned","type":"uint256","internalType":"uint256"},{"name":"rewardsClaimed","type":"uint256","internalType":"uint256"}],"stateMutability":"view"},{"type":"function","name":"marketLPFeePools","inputs":[{"name":"","type":"address","internalType":"address"}],"outputs":[{"name":"","type":"uint256","internalType":"uint256"}],"stateMutability":"view"},{"type":"function","name":"marketStats","inputs":[{"name":"","type":"address","internalType":"address"}],"outputs":[{"name":"totalProtocolFees","type":"uint256","internalType":"uint256"},{"name":"totalLPFees","type":"uint256","internalType":"uint256"},{"name":"totalVolume","type":"uint256","internalType":"uint256"},{"name":"createdAt","type":"uint256","internalType":"uint256"}],"stateMutability":"view"},{"type":"function","name":"marketTotalLPTokens","inputs":[{"name":"","type":"address","internalType":"address"}],"outputs":[{"name":"","type":"uint256","internalType":"uint256"}],"stateMutability":"view"},{"type":"function","name":"owner","inputs":[],"outputs":[{"name":"","type":"address","internalType":"address"}],"stateMutability":"view"},{"type":"function","name":"registerLP","inputs":[{"name":"market","type":"address","internalType":"address"},{"name":"user","type":"address","internalType":"address"},{"name":"liquidityAmount","type":"uint256","internalType":"uint256"},{"name":"lpTokensAmount","type":"uint256","internalType":"uint256"}],"outputs":[],"stateMutability":"nonpayable"},{"type":"function","name":"registerMarket","inputs":[{"name":"market","type":"address","internalType":"address"}],"outputs":[],"stateMutability":"nonpayable"},{"type":"function","name":"renounceOwnership","inputs":[],"outputs":[],"stateMutability":"nonpayable"},{"type":"function","name":"setTreasury","inputs":[{"name":"newTreasury","type":"address","internalType":"address"}],"outputs":[],"stateMutability":"nonpayable"},{"type":"function","name":"totalLPFeesDistributed","inputs":[],"outputs":[{"name":"","type":"uint256","internalType":"uint256"}],"stateMutability":"view"},{"type":"function","name":"totalProtocolFeesCollected","inputs":[],"outputs":[{"name":"","type":"uint256","internalType":"uint256"}],"stateMutability":"view"},{"type":"function","name":"transferOwnership","inputs":[{"name":"newOwner","type":"address","internalType":"address"}],"outputs":[],"stateMutability":"nonpayable"},{"type":"function","name":"treasury","inputs":[],"outputs":[{"name":"","type":"address","internalType":"address"}],"stateMutability":"view"},{"type":"function","name":"unregisterLP","inputs":[{"name":"market","type":"address","internalType":"address"},{"name":"user","type":"address","internalType":"address"},{"name":"lpTokensAmount","type":"uint256","internalType":"uint256"}],"outputs":[],"stateMutability":"nonpayable"},{"type":"function","name":"withdrawProtocolFees","inputs":[],"outputs":[],"stateMutability":"nonpayable"},{"type":"event","name":"FeeCollected","inputs":[{"name":"market","type":"address","indexed":true,"internalType":"address"},{"name":"amount","type":"uint256","indexed":false,"internalType":"uint256"}],"anonymous":false},{"type":"event","name":"FeesWithdrawn","inputs":[{"name":"treasury","type":"address","indexed":true,"internalType":"address"},{"name":"amount","type":"uint256","indexed":false,"internalType":"uint256"}],"anonymous":false},{"type":"event","name":"MarketRegistered","inputs":[{"name":"market","type":"address","indexed":true,"internalType":"address"}],"anonymous":false},{"type":"event","name":"OwnershipTransferred","inputs":[{"name":"previousOwner","type":"address","indexed":true,"internalType":"address"},{"name":"newOwner","type":"address","indexed":true,"internalType":"address"}],"anonymous":false},{"type":"event","name":"TreasuryUpdated","inputs":[{"name":"oldTreasury","type":"address","indexed":true,"internalType":"address"},{"name":"newTreasury","type":"address","indexed":true,"internalType":"address"}],"anonymous":false},{"type":"error","name":"FeeTransferFailed","inputs":[]},{"type":"error","name":"InvalidAddress","inputs":[]},{"type":"error","name":"InvalidLPAmount","inputs":[]},{"type":"error","name":"NothingToClaim","inputs":[]},{"type":"error","name":"OnlyMarket","inputs":[]},{"type":"error","name":"OwnableInvalidOwner","inputs":[{"name":"owner","type":"address","internalType":"address"}]},{"type":"error","name":"OwnableUnauthorizedAccount","inputs":[{"name":"account","type":"address","internalType":"address"}]},{"type":"error","name":"ReentrancyGuardReentrantCall","inputs":[]},{"type":"error","name":"ZeroAmount","inputs":[]}],"bytecode":{"object":"0x60a060405234801562000010575f80fd5b50604051620019513803806200195183398101604081905262000033916200015a565b33806200005957604051631e4fbdf760e01b81525f600482015260240160405180910390fd5b6200006481620000ef565b5060017f9b779b17422d0df92223018b32b4d1fa46e071723d6817e2486d003becc55f00556001600160a01b0382161580620000a757506001600160a01b038116155b15620000c65760405163e6c4247b60e01b815260040160405180910390fd5b6001600160a01b03918216608052600180546001600160a01b0319169190921617905562000190565b5f80546001600160a01b038381166001600160a01b0319831681178455604051919092169283917f8be0079c531659141344cd1fd0a4f28419497f9722a3daafe3b4186f6b6457e09190a35050565b80516001600160a01b038116811462000155575f80fd5b919050565b5f80604083850312156200016c575f80fd5b62000177836200013e565b915062000187602084016200013e565b90509250929050565b60805161178c620001c55f395f8181610348015281816107e6015281816108b201528181610cee01526112fd015261178c5ff3fe608060405234801561000f575f80fd5b5060043610610148575f3560e01c80638da5cb5b116100bf578063cd81897711610079578063cd818977146103b4578063ce98c3b3146103dc578063d1e590ed146103ef578063e91451671461045c578063f0f442601461046f578063f2fde38b14610482575f80fd5b80638da5cb5b14610320578063a79b9ec914610330578063b2016bd414610343578063b54e1bca1461036a578063b916a77814610398578063c9225df3146103ab575f80fd5b80636383912811610110578063638391281461027a5780636ec934da1461028f578063715018a6146102c15780637394e627146102c95780638795cccb146102d25780638a6e0baa146102da575f80fd5b806312d048151461014c57806314c4e430146101a757806326b85199146101d45780634630ae061461023057806361d027b31461024f575b5f80fd5b61018261015a366004611578565b600260208190525f918252604090912080546001820154928201546003909201549092919084565b6040805194855260208501939093529183015260608201526080015b60405180910390f35b6101c66101b5366004611578565b60056020525f908152604090205481565b60405190815260200161019e565b6101e76101e2366004611598565b610495565b6040805184518152602080860151908201528482015191810191909152606080850151908201526080938401519381019390935260a083019190915260c082015260e00161019e565b6101c661023e366004611578565b60066020525f908152604090205481565b600154610262906001600160a01b031681565b6040516001600160a01b03909116815260200161019e565b61028d6102883660046115c9565b6106a5565b005b6102b161029d366004611578565b60036020525f908152604090205460ff1681565b604051901515815260200161019e565b61028d6107ac565b6101c660075481565b61028d6107bf565b6102ed6102e8366004611578565b610998565b60405161019e91908151815260208083015190820152604080830151908201526060918201519181019190915260800190565b5f546001600160a01b0316610262565b61028d61033e366004611578565b610a09565b6102627f000000000000000000000000000000000000000000000000000000000000000081565b61037d610378366004611578565b610a94565b6040805193845260208401929092529082015260600161019e565b61028d6103a6366004611578565b610b11565b6101c660085481565b6103c76103c2366004611602565b610b60565b6040805192835260208301919091520161019e565b6101c66103ea366004611598565b610e06565b6104346103fd366004611598565b600460208181525f938452604080852090915291835291208054600182015460028301546003840154939094015491939092909185565b604080519586526020860194909452928401919091526060830152608082015260a00161019e565b61028d61046a36600461162a565b610f21565b61028d61047d366004611578565b610fe1565b61028d610490366004611578565b611061565b6104c26040518060a001604052805f81526020015f81526020015f81526020015f81526020015f81525090565b506001600160a01b038083165f9081526004602081815260408084209486168452938152838320845160a0810186528154815260018201549281018390526002820154958101959095526003810154606086015290910154608084015281901561069e576001600160a01b0385165f90815260066020908152604080832054600590925290912054811580159061055857505f81115b156105c2575f8286602001518361056f919061167d565b6105799190611694565b90505f86604001514261058c91906116b3565b90505f61059d885f015186846110a0565b9050670de0b6b3a76400006105b2828561167d565b6105bc9190611694565b96505050505b6001600160a01b0387165f90815260026020818152604092839020835160808101855281548152600182015492810192909252918201549281019290925260030154606082015285511580159061061c57505f8160200151115b1561069a575f81606001514261063291906116b3565b90508015610698575f8183602001516301e13380610650919061167d565b61065a9190611694565b90505f8589602001518361066e919061167d565b6106789190611694565b89519091506106898261271061167d565b6106939190611694565b965050505b505b5050505b9250925092565b335f9081526003602052604090205460ff166106d457604051639e0125a960e01b815260040160405180910390fd5b6001600160a01b038084165f908152600460209081526040808320938616835292905220600181015482111561071d57604051630c06609360e11b815260040160405180910390fd5b6107278484611197565b505f816001015483835f015461073d919061167d565b6107479190611694565b905082826001015f82825461075c91906116b3565b90915550508154819083905f906107749084906116b3565b90915550506001600160a01b0385165f90815260066020526040812080548592906107a09084906116b3565b90915550505050505050565b6107b4611397565b6107bd5f6113c3565b565b6107c7611397565b6107cf611412565b6040516370a0823160e01b81523060048201525f907f00000000000000000000000000000000000000000000000000000000000000006001600160a01b0316906370a0823190602401602060405180830381865afa158015610833573d5f803e3d5ffd5b505050506040513d601f19601f8201168201806040525081019061085791906116c6565b90505f8061086581846116b3565b9050805f0361088757604051631f2a200560e01b815260040160405180910390fd5b60015460405163a9059cbb60e01b81526001600160a01b039182166004820152602481018390525f917f0000000000000000000000000000000000000000000000000000000000000000169063a9059cbb906044016020604051808303815f875af11580156108f8573d5f803e3d5ffd5b505050506040513d601f19601f8201168201806040525081019061091c91906116dd565b90508061093c57604051634033e4e360e01b815260040160405180910390fd5b6001546040518381526001600160a01b03909116907fc0819c13be868895eb93e40eaceb96de976442fa1d404e5c55f14bb65a8c489a9060200160405180910390a2505050506107bd60015f8051602061173783398151915255565b6109bf60405180608001604052805f81526020015f81526020015f81526020015f81525090565b506001600160a01b03165f90815260026020818152604092839020835160808101855281548152600182015492810192909252918201549281019290925260030154606082015290565b610a11611397565b6001600160a01b038116610a385760405163e6c4247b60e01b815260040160405180910390fd5b6001600160a01b0381165f818152600360208181526040808420805460ff19166001179055600290915280832042920191909155517fd2392e8674082692962920b6bc022067ae83f52fc1de409f5c74de7aa893bd029190a250565b6001600160a01b0381165f81815260026020818152604080842081516080810183528154815260018201548185015293810154848301819052600390910154606085019081529585526006909252832054935192938493849392610b03929091610afe90426116b3565b61142d565b935093509350509193909250565b610b19611412565b5f610b248233611197565b9050805f03610b46576040516312d37ee560e31b815260040160405180910390fd5b50610b5d60015f8051602061173783398151915255565b50565b335f90815260036020526040812054819060ff16610b9157604051639e0125a960e01b815260040160405180910390fd5b825f03610bb157604051631f2a200560e01b815260040160405180910390fd5b6001600160a01b0384165f90815260026020818152604080842092830154600690925283205460038301549293928392610bf1929091610afe90426116b3565b92509250506127108287610c05919061167d565b610c0f9190611694565b9450612710610c1e828861167d565b610c289190611694565b935084835f015f828254610c3c91906116fc565b9250508190555083836001015f828254610c5691906116fc565b9250508190555085836002015f828254610c7091906116fc565b925050819055508460075f828254610c8891906116fc565b925050819055508360085f828254610ca091906116fc565b90915550506001600160a01b0387165f9081526005602052604081208054869290610ccc9084906116fc565b909155505f9050610cdd85876116fc565b1115610db6575f6001600160a01b037f0000000000000000000000000000000000000000000000000000000000000000166323b872dd3330610d1f898b6116fc565b6040516001600160e01b031960e086901b1681526001600160a01b03938416600482015292909116602483015260448201526064016020604051808303815f875af1158015610d70573d5f803e3d5ffd5b505050506040513d601f19601f82011682018060405250810190610d9491906116dd565b905080610db457604051634033e4e360e01b815260040160405180910390fd5b505b6001600160a01b0387167f06c5efeff5c320943d265dc4e5f1af95ad523555ce0c1957e367dda5514572df610deb86886116fc565b60405190815260200160405180910390a25050509250929050565b6001600160a01b038083165f9081526004602081815260408084209486168452938152838320845160a081018652815481526001820154928101839052600282015495810195909552600381015460608601529091015460808401529091908203610e74575f915050610f1b565b6001600160a01b0384165f90815260066020908152604080832054600590925290912054811580610ea3575080155b15610eb3575f9350505050610f1b565b5f82846020015183610ec5919061167d565b610ecf9190611694565b90505f846040015142610ee291906116b3565b90505f610ef3865f015186846110a0565b9050670de0b6b3a7640000610f08828561167d565b610f129190611694565b96505050505050505b92915050565b335f9081526003602052604090205460ff16610f5057604051639e0125a960e01b815260040160405180910390fd5b6001600160a01b038085165f90815260046020908152604080832093871683529290529081206002810154909103610f89574260028201555b82815f015f828254610f9b91906116fc565b9250508190555081816001015f828254610fb591906116fc565b90915550506001600160a01b0385165f90815260066020526040812080548492906107a09084906116fc565b610fe9611397565b6001600160a01b0381166110105760405163e6c4247b60e01b815260040160405180910390fd5b600180546001600160a01b038381166001600160a01b0319831681179093556040519116919082907f4ab5be82436d353e61ca18726e984e561f5c1cc7c6d38b29d2553c790434705a905f90a35050565b611069611397565b6001600160a01b03811661109757604051631e4fbdf760e01b81525f60048201526024015b60405180910390fd5b610b5d816113c3565b670de0b6b3a76400005f836110b686606461167d565b6110c09190611694565b9050601481106110ea576110dd600a670de0b6b3a7640000611694565b6110e790836116fc565b91505b6276a7008310611118576111076005670de0b6b3a7640000611694565b61111190836116fc565b915061115f565b62278d00831061113557611107600a670de0b6b3a7640000611694565b62093a80831061115f576111526014670de0b6b3a7640000611694565b61115c90836116fc565b91505b611172670de0b6b3a7640000600261167d565b82111561118f5761118c670de0b6b3a7640000600261167d565b91505b509392505050565b6001600160a01b038083165f9081526004602090815260408083209385168352929052908120600181015482036111d1575f915050610f1b565b6001600160a01b0384165f90815260066020908152604080832054600590925290912054811580611200575080155b15611210575f9350505050610f1b565b5f82846001015483611222919061167d565b61122c9190611694565b90505f84600201544261123f91906116b3565b90505f611250865f015486846110a0565b9050670de0b6b3a7640000611265828561167d565b61126f9190611694565b965086866003015f82825461128491906116fc565b9250508190555086866004015f82825461129e91906116fc565b90915550506001600160a01b0389165f90815260056020526040812080548592906112ca9084906116b3565b9091555050861561138b5760405163a9059cbb60e01b81526001600160a01b038981166004830152602482018990525f917f00000000000000000000000000000000000000000000000000000000000000009091169063a9059cbb906044016020604051808303815f875af1158015611345573d5f803e3d5ffd5b505050506040513d601f19601f8201168201806040525081019061136991906116dd565b90508061138957604051634033e4e360e01b815260040160405180910390fd5b505b50505050505092915050565b5f546001600160a01b031633146107bd5760405163118cdaa760e01b815233600482015260240161108e565b5f80546001600160a01b038381166001600160a01b0319831681178455604051919092169283917f8be0079c531659141344cd1fd0a4f28419497f9722a3daafe3b4186f6b6457e09190a35050565b61141a61152e565b60025f8051602061173783398151915255565b5f8080601e8169d3c21bcecceda1000000881061144d5750600919611463565b69152d02c7e14af6800000881061146357506004195b5f69021e19e0c9bab240000088101561147e57506014611494565b6969e10de76676d08000008810156114945750600a5b5f620151808810156114a85750600f6114b7565b62093a808810156114b7575060055b5f81836114c4868861170f565b6114ce919061170f565b6114d8919061170f565b9050600a8112156114eb5750600a6114f8565b60648113156114f8575060645b965086606461150882601461167d565b6115129190611694565b965061151e87896116b3565b9550505050505093509350939050565b5f80516020611737833981519152546002036107bd57604051633ee5aeb560e01b815260040160405180910390fd5b80356001600160a01b0381168114611573575f80fd5b919050565b5f60208284031215611588575f80fd5b6115918261155d565b9392505050565b5f80604083850312156115a9575f80fd5b6115b28361155d565b91506115c06020840161155d565b90509250929050565b5f805f606084860312156115db575f80fd5b6115e48461155d565b92506115f26020850161155d565b9150604084013590509250925092565b5f8060408385031215611613575f80fd5b61161c8361155d565b946020939093013593505050565b5f805f806080858703121561163d575f80fd5b6116468561155d565b93506116546020860161155d565b93969395505050506040820135916060013590565b634e487b7160e01b5f52601160045260245ffd5b8082028115828204841417610f1b57610f1b611669565b5f826116ae57634e487b7160e01b5f52601260045260245ffd5b500490565b81810381811115610f1b57610f1b611669565b5f602082840312156116d6575f80fd5b5051919050565b5f602082840312156116ed575f80fd5b81518015158114611591575f80fd5b80820180821115610f1b57610f1b611669565b8082018281125f83128015821682158216171561172e5761172e611669565b50509291505056fe9b779b17422d0df92223018b32b4d1fa46e071723d6817e2486d003becc55f00a2646970667358221220eb56a9b55bf12b4f2832a4c6eb62b6d25ce9fb82179807d7928b20cc7761194564736f6c63430008180033","linkReferences":{}},"methodIdentifiers":{"claimLPRewards(address)":"b916a778","collateralToken()":"b2016bd4","collectTradeFees(address,uint256)":"cd818977","getCurrentFees(address)":"b54e1bca","getLPInfo(address,address)":"26b85199","getMarketFeeStats(address)":"8a6e0baa","getPendingLPRewards(address,address)":"ce98c3b3","isMarket(address)":"6ec934da","lpInfo(address,address)":"d1e590ed","marketLPFeePools(address)":"14c4e430","marketStats(address)":"12d04815","marketTotalLPTokens(address)":"4630ae06","owner()":"8da5cb5b","registerLP(address,address,uint256,uint256)":"e9145167","registerMarket(address)":"a79b9ec9","renounceOwnership()":"715018a6","setTreasury(address)":"f0f44260","totalLPFeesDistributed()":"c9225df3","totalProtocolFeesCollected()":"7394e627","transferOwnership(address)":"f2fde38b","treasury()":"61d027b3","unregisterLP(address,address,uint256)":"63839128","withdrawProtocolFees()":"8795cccb"},"id":46}