{"abi":[{"type":"constructor","inputs":[{"name":"_collateralToken","type":"address","internalType":"address"},{"name":"_treasury","type":"address","internalType":"address"}],"stateMutability":"nonpayable"},{"type":"function","name":"claimLPRewards","inputs":[{"name":"market","type":"address","internalType":"address"}],"outputs":[],"stateMutability":"nonpayable"},{"type":"function","name":"collateralToken","inputs":[],"outputs":[{"name":"","type":"address","internalType":"address"}],"stateMutability":"view"},{"type":"function","name":"collectTradeFees","inputs":[{"name":"market","type":"address","internalType":"address"},{"name":"tradeAmount","type":"uint256","internalType":"uint256"}],"outputs":[{"name":"protocolFee","type":"uint256","internalType":"uint256"},{"name":"lpFee","type":"uint256","internalType":"uint256"}],"stateMutability":"nonpayable"},{"type":"function","name":"getCurrentFees","inputs":[{"name":"market","type":"address","internalType":"address"}],"outputs":[{"name":"totalFeeBps","type":"uint256","internalType":"uint256"},{"name":"protocolFeeBps","type":"uint256","internalType":"uint256"},{"name":"lpFeeBps","type":"uint256","internalType":"uint256"}],"stateMutability":"view"},{"type":"function","name":"getLPInfo","inputs":[{"name":"market","type":"address","internalType":"address"},{"name":"user","type":"address","internalType":"address"}],"outputs":[{"name":"info","type":"tuple","internalType":"struct FeeManager.LPInfo","components":[{"name":"liquidityProvided","type":"uint256","internalType":"uint256"},{"name":"lpTokens","type":"uint256","internalType":"uint256"},{"name":"entryTime","type":"uint256","internalType":"uint256"},{"name":"rewardsEarned","type":"uint256","internalType":"uint256"},{"name":"rewardsClaimed","type":"uint256","internalType":"uint256"}]},{"name":"pendingRewards","type":"uint256","internalType":"uint256"},{"name":"apr","type":"uint256","internalType":"uint256"}],"stateMutability":"view"},{"type":"function","name":"getMarketFeeStats","inputs":[{"name":"market","type":"address","internalType":"address"}],"outputs":[{"name":"stats","type":"tuple","internalType":"struct FeeManager.MarketFeeStats","components":[{"name":"totalProtocolFees","type":"uint256","internalType":"uint256"},{"name":"totalLPFees","type":"uint256","internalType":"uint256"},{"name":"totalVolume","type":"uint256","internalType":"uint256"},{"name":"createdAt","type":"uint256","internalType":"uint256"}]}],"stateMutability":"view"},{"type":"function","name":"getPendingLPRewards","inputs":[{"name":"market","type":"address","internalType":"address"},{"name":"user","type":"address","internalType":"address"}],"outputs":[{"name":"pendingRewards","type":"uint256","internalType":"uint256"}],"stateMutability":"view"},{"type":"function","name":"isMarket","inputs":[{"name":"","type":"address","internalType":"address"}],"outputs":[{"name":"","type":"bool","internalType":"bool"}],"stateMutability":"view"},{"type":"function","name":"lpInfo","inputs":[{"name":"","type":"address","internalType":"address"},{"name":"","type":"address","internalType":"address"}],"outputs":[{"name":"liquidityProvided","type":"uint256","internalType":"uint256"},{"name":"lpTokens","type":"uint256","internalType":"uint256"},{"name":"entryTime","type":"uint256","internalType":"uint256"},{"name":"rewardsEarned","type":"uint256","internalType":"uint256"},{"name":"rewardsClaimed","type":"uint256","internalType":"uint256"}],"stateMutability":"view"},{"type":"function","name":"marketLPFeePools","inputs":[{"name":"","type":"address","internalType":"address"}],"outputs":[{"name":"","type":"uint256","internalType":"uint256"}],"stateMutability":"view"},{"type":"function","name":"marketStats","inputs":[{"name":"","type":"address","internalType":"address"}],"outputs":[{"name":"totalProtocolFees","type":"uint256","internalType":"uint256"},{"name":"totalLPFees","type":"uint256","internalType":"uint256"},{"name":"totalVolume","type":"uint256","internalType":"uint256"},{"name":"createdAt","type":"uint256","internalType":"uint256"}],"stateMutability":"view"},{"type":"function","name":"marketTotalLPTokens","inputs":[{"name":"","type":"address","internalType":"address"}],"outputs":[{"name":"","type":"uint256","internalType":"uint256"}],"stateMutability":"view"},{"type":"function","name":"owner","inputs":[],"outputs":[{"name":"","type":"address","internalType":"address"}],"stateMutability":"view"},{"type":"function","name":"registerLP","inputs":[{"name":"market","type":"address","internalType":"address"},{"name":"user","type":"address","internalType":"address"},{"name":"liquidityAmount","type":"uint256","internalType":"uint256"},{"name":"lpTokensAmount","type":"uint256","internalType":"uint256"}],"outputs":[],"stateMutability":"nonpayable"},{"type":"function","name":"registerMarket","inputs":[{"name":"market","type":"address","internalType":"address"}],"outputs":[],"stateMutability":"nonpayable"},{"type":"function","name":"renounceOwnership","inputs":[],"outputs":[],"stateMutability":"nonpayable"},{"type":"function","name":"setTreasury","inputs":[{"name":"newTreasury","type":"address","internalType":"address"}],"outputs":[],"stateMutability":"nonpayable"},{"type":"function","name":"totalLPFeesDistributed","inputs":[],"outputs":[{"name":"","type":"uint256","internalType":"uint256"}],"stateMutability":"view"},{"type":"function","name":"totalProtocolFeesCollected","inputs":[],"outputs":[{"name":"","type":"uint256","internalType":"uint256"}],"stateMutability":"view"},{"type":"function","name":"transferOwnership","inputs":[{"name":"newOwner","type":"address","internalType":"address"}],"outputs":[],"stateMutability":"nonpayable"},{"type":"function","name":"treasury","inputs":[],"outputs":[{"name":"","type":"address","internalType":"address"}],"stateMutability":"view"},{"type":"function","name":"unregisterLP","inputs":[{"name":"market","type":"address","internalType":"address"},{"name":"user","type":"address","internalType":"address"},{"name":"lpTokensAmount","type":"uint256","internalType":"uint256"}],"outputs":[],"stateMutability":"nonpayable"},{"type":"function","name":"withdrawProtocolFees","inputs":[],"outputs":[],"stateMutability":"nonpayable"},{"type":"event","name":"FeeCollected","inputs":[{"name":"market","type":"address","indexed":true,"internalType":"address"},{"name":"amount","type":"uint256","indexed":false,"internalType":"uint256"}],"anonymous":false},{"type":"event","name":"FeesWithdrawn","inputs":[{"name":"treasury","type":"address","indexed":true,"internalType":"address"},{"name":"amount","type":"uint256","indexed":false,"internalType":"uint256"}],"anonymous":false},{"type":"event","name":"MarketRegistered","inputs":[{"name":"market","type":"address","indexed":true,"internalType":"address"}],"anonymous":false},{"type":"event","name":"OwnershipTransferred","inputs":[{"name":"previousOwner","type":"address","indexed":true,"internalType":"address"},{"name":"newOwner","type":"address","indexed":true,"internalType":"address"}],"anonymous":false},{"type":"event","name":"TreasuryUpdated","inputs":[{"name":"oldTreasury","type":"address","indexed":true,"internalType":"address"},{"name":"newTreasury","type":"address","indexed":true,"internalType":"address"}],"anonymous":false},{"type":"error","name":"FeeTransferFailed","inputs":[]},{"type":"error","name":"InvalidAddress","inputs":[]},{"type":"error","name":"InvalidLPAmount","inputs":[]},{"type":"error","name":"NothingToClaim","inputs":[]},{"type":"error","name":"OnlyMarket","inputs":[]},{"type":"error","name":"OwnableInvalidOwner","inputs":[{"name":"owner","type":"address","internalType":"address"}]},{"type":"error","name":"OwnableUnauthorizedAccount","inputs":[{"name":"account","type":"address","internalType":"address"}]},{"type":"error","name":"ReentrancyGuardReentrantCall","inputs":[]},{"type":"error","name":"ZeroAmount","inputs":[]}],"bytecode":{"object":"0x60a0346200015357601f620015f238819003918201601f19168301916001600160401b038311848410176200015757808492604094855283398101031262000153576200005a602062000052836200016b565b92016200016b565b9033156200013b575f80546001600160a01b031980821633908117845560405191956001600160a01b0395909490938616907f8be0079c531659141344cd1fd0a4f28419497f9722a3daafe3b4186f6b6457e09080a360017f9b779b17422d0df92223018b32b4d1fa46e071723d6817e2486d003becc55f005583821615801562000130575b6200012157506080521690600154161760015560405161147190816200018182396080518181816104e40152818161069c0152818161085801526111f10152f35b63e6c4247b60e01b8152600490fd5b5083831615620000e0565b604051631e4fbdf760e01b81525f6004820152602490fd5b5f80fd5b634e487b7160e01b5f52604160045260245ffd5b51906001600160a01b0382168203620001535756fe608060409080825260049081361015610016575f80fd5b5f3560e01c90816312d0481514610de15750806314c4e43014610daa57806326b8519914610b635780634630ae0614610b2c57806361d027b314610b045780636383912814610a2a5780636ec934da146109ee578063715018a6146109aa5780637394e6271461098c5780638795cccb146108185780638a6e0baa1461077d5780638da5cb5b14610756578063a79b9ec9146106cb578063b2016bd414610688578063b54e1bca146105f6578063b916a778146105a4578063c9225df314610586578063cd8189771461036e578063ce98c3b31461033a578063d1e590ed146102c8578063e914516714610210578063f0f44260146101915763f2fde38b1461011d575f80fd5b3461018d57602036600319011261018d57610136610e36565b9061013f611288565b6001600160a01b039182169283156101775750505f548260018060a01b03198216175f55165f805160206113fc8339815191525f80a3005b905f6024925191631e4fbdf760e01b8352820152fd5b5f80fd5b503461018d57602036600319011261018d576101ab610e36565b906101b4611288565b6001600160a01b03918216928315610203575050600180546001600160a01b031981168417909155167f4ab5be82436d353e61ca18726e984e561f5c1cc7c6d38b29d2553c790434705a5f80a3005b5163e6c4247b60e01b8152fd5b503461018d57608036600319011261018d5761022a610e36565b91610233610e4c565b9160643592335f52600360205260ff835f205416156102b9576102ac939460018060a01b0380911692835f52602052835f2091165f526020526001825f20600281018054156102b0575b5061028b6044358254610f54565b815501610299858254610f54565b90555f5260066020525f20918254610f54565b9055005b4290555f61027d565b509051639e0125a960e01b8152fd5b503461018d578160031936011261018d5760a0916102e4610e36565b6102ec610e4c565b90600180861b038091165f5283602052825f2091165f52602052805f208054926001820154926002830154916003840154930154938151958652602086015284015260608301526080820152f35b823461018d578060031936011261018d57602090610367610359610e36565b610361610e4c565b90610f61565b9051908152f35b50903461018d578060031936011261018d57610388610e36565b60243590335f526020906003825260ff845f205416156105765782156105665761040b939460018060a01b0380921691825f52600284528661042d815f20968660016104036103f48b6103ed6003600283019960068b5498525f205492015442610f14565b90856112fd565b9d915061271092839187610ecf565b049c85610ecf565b04996104188c8254610f54565b8155016104268a8254610f54565b9055610f54565b905561043b86600754610f54565b60075561044a85600854610f54565b600855825f5260058452865f20610462868254610f54565b90558361046f8688610f54565b6104b3575b90507f06c5efeff5c320943d265dc4e5f1af95ad523555ce0c1957e367dda5514572df91506104a38587610f54565b8751908152a28351928352820152f35b5f9160646104c1888a610f54565b8a5194859384926323b872dd60e01b8452338985015230602485015260448401527f0000000000000000000000000000000000000000000000000000000000000000165af190811561055c575f9161052f575b5015610521578083610474565b8551634033e4e360e01b8152fd5b61054f9150843d8611610555575b6105478183610eac565b810190610f21565b5f610514565b503d61053d565b87513d5f823e3d90fd5b50505051631f2a200560e01b8152fd5b50505051639e0125a960e01b8152fd5b823461018d575f36600319011261018d576020906008549051908152f35b50903461018d57602036600319011261018d576105d16105c2610e36565b6105ca6112b3565b33906110f4565b156105e95760015f8051602061141c83398151915255005b516312d37ee560e31b8152fd5b823461018d57602036600319011261018d576060906106766001600160a01b0361061e610e36565b16805f526002602052825f209083519061063782610e91565b82548252600183015460208301528560036002850154948588860152015492019182525f526006602052610670845f2054915142610f14565b916112fd565b91929081519384526020840152820152f35b823461018d575f36600319011261018d57517f00000000000000000000000000000000000000000000000000000000000000006001600160a01b03168152602090f35b50903461018d57602036600319011261018d576106e6610e36565b6106ee611288565b6001600160a01b03169182156107485750815f526003602052805f20600160ff198254161790556002602052600342915f2001557fd2392e8674082692962920b6bc022067ae83f52fc1de409f5c74de7aa893bd025f80a2005b905163e6c4247b60e01b8152fd5b823461018d575f36600319011261018d575f5490516001600160a01b039091168152602090f35b823461018d57602036600319011261018d5760809061079a610e36565b5f606083516107a881610e91565b8281528260208201528285820152015260018060a01b03165f526002602052805f20908051906107d782610e91565b825492838352600181015460208401908152606060036002840154938587019485520154940193845282519485525160208501525190830152516060820152f35b50903461018d575f36600319011261018d57610832611288565b61083a6112b3565b80516370a0823160e01b815230838201526020906001600160a01b037f000000000000000000000000000000000000000000000000000000000000000081168383602481845afa928315610943575f9361095d575b50821561094d5783836108bd9284600154165f8a8a519687958694859363a9059cbb60e01b85528401610f39565b03925af1908115610943575f91610926575b5015610916577fc0819c13be868895eb93e40eaceb96de976442fa1d404e5c55f14bb65a8c489a939450600154169351908152a260015f8051602061141c83398151915255005b50505051634033e4e360e01b8152fd5b61093d9150843d8611610555576105478183610eac565b5f6108cf565b85513d5f823e3d90fd5b8451631f2a200560e01b81528690fd5b9092508381813d8311610985575b6109758183610eac565b8101031261018d5751915f61088f565b503d61096b565b823461018d575f36600319011261018d576020906007549051908152f35b3461018d575f36600319011261018d576109c2611288565b5f80546001600160a01b0319811682556001600160a01b03165f805160206113fc8339815191528280a3005b823461018d57602036600319011261018d576020906001600160a01b03610a13610e36565b165f526003825260ff815f20541690519015158152f35b50903461018d57606036600319011261018d57610a45610e36565b90610a4e610e4c565b60443592335f52600360205260ff835f20541615610af45760018060a01b039182821692835f5286602052845f209082165f52602052835f2091600183019686885410610ae6575095610aa8610ad3926102ac97986110f4565b508254610ab58882610ecf565b91610acc89610ac683548096610ef6565b94610f14565b9055610f14565b90555f5260066020525f20918254610f14565b8551630c06609360e11b8152fd5b8251639e0125a960e01b81528590fd5b823461018d575f36600319011261018d5760015490516001600160a01b039091168152602090f35b823461018d57602036600319011261018d576020906001600160a01b03610b51610e36565b165f5260068252805f20549051908152f35b50903461018d578060031936011261018d57610b7d610e36565b90610b86610e4c565b908051610b9281610e62565b5f81525f60806020928284820152828582015282606082015201525f915f9360018060a01b0380961695865f52878452825f2091165f528252805f2090805195610bdb87610e62565b82548752600183015493808801858152600285015492848a019384528a60038701549660608c0197885201549660808b01978852610c41575b5060e099508351985189525190880152519086015251606085015251608084015260a083015260c0820152f35b805f5260068352845f20549060058452855f205482151580610da1575b610d5d575b505f5260028352845f2060608651610c7a81610e91565b8254815260018301549060038782019483865260028101548b840152015492839101528c5115159081610d53575b50610cb5575b5050610c14565b610cbf9042610f14565b908115610cae579091929950516301e1338090818102918183041490151715610d4057610cf3610d009392610cfb92610ef6565b8a5190610ecf565b610ef6565b98612710998a81029a818c041490151715610d2d5750610d2460e099895190610ef6565b965f8080610cae565b601190634e487b7160e01b5f525260245ffd5b60118c634e487b7160e01b5f525260245ffd5b905015155f610ca8565b670de0b6b3a7640000919950610d7c83610cfb610d9993875190610ecf565b610d938d85610d8c8a5142610f14565b9151611029565b90610ecf565b04975f610c63565b50801515610c5e565b823461018d57602036600319011261018d576020906001600160a01b03610dcf610e36565b165f5260058252805f20549051908152f35b83903461018d57602036600319011261018d576080916001600160a01b03610e07610e36565b165f526002602052805f2080549160018201546003600284015493015493855260208501528301526060820152f35b600435906001600160a01b038216820361018d57565b602435906001600160a01b038216820361018d57565b60a081019081106001600160401b03821117610e7d57604052565b634e487b7160e01b5f52604160045260245ffd5b608081019081106001600160401b03821117610e7d57604052565b601f909101601f19168101906001600160401b03821190821017610e7d57604052565b81810292918115918404141715610ee257565b634e487b7160e01b5f52601160045260245ffd5b8115610f00570490565b634e487b7160e01b5f52601260045260245ffd5b91908203918211610ee257565b9081602091031261018d5751801515810361018d5790565b6001600160a01b039091168152602081019190915260400190565b91908201809211610ee257565b9060018060a01b0380921690815f526004602052604092835f2091165f52602052815f20825191610f9183610e62565b8154835260018201549060208401918083526004600285015494878701958652600381015460608801520154608086015215611018575f526006602052835f20549360056020525f20549284158015611021575b6110185784610d8c61100c670de0b6b3a764000097610cfb61101498610d93975190610ecf565b945142610f14565b0490565b50505050505f90565b508315610fe5565b9190670de0b6b3a764000092606481029080820460641490151715610ee25760149161105491610ef6565b10156110e4575b6276a700811061109257506702c68af0bb1400008101809111610ee2575b671bc16d674ec8000080821161108d575090565b905090565b62278d0081106110b5575067016345785d8a00008101809111610ee2575b611079565b62093a80116110795766b1a2bc2ec500008101809111156110b057634e487b7160e01b5f52601160045260245ffd5b670f43fc2c04ee0000915061105b565b9060018060a01b0380921691825f5260209060048252604092835f208282165f528352835f2094600186015490811561127d57805f5260068552855f20549160058652865f20549083158015611275575b6112685761118561117f61116886610cfb670de0b6b3a764000095600497610ecf565b9561117760028d015442610f14565b908c54611029565b85610ecf565b0497600381016111968a8254610f54565b9055016111a4888254610f54565b90555f52600584526111ba855f20918254610f14565b905584806111cb575b505050505090565b6111ed9284925f875180968195829463a9059cbb60e01b845260048401610f39565b03927f0000000000000000000000000000000000000000000000000000000000000000165af191821561125e575f92611241575b50501561123157808080846111c3565b51634033e4e360e01b8152600490fd5b6112579250803d10610555576105478183610eac565b5f80611221565b83513d5f823e3d90fd5b5050505050505050505f90565b508115611145565b505050505050505f90565b5f546001600160a01b0316330361129b57565b60405163118cdaa760e01b8152336004820152602490fd5b5f8051602061141c83398151915260028154146112d05760029055565b604051633ee5aeb560e01b8152600490fd5b9190915f8382019384129112908015821691151617610ee257565b9091905f9069d3c21bcecceda100000081106113dd575050600919915b5f9069021e19e0c9bab24000008110156113bf5750506014915b5f91620151808110156113ac5750600f91505b80601e01908112600116610ee25761136792611362916112e2565b6112e2565b600a81121561139b5750600a5b6014810281810460141482151715610ee25760649004916113958383610f14565b91929190565b606481131561137457506064611374565b62093a8011156113475760059150611347565b6969e10de76676d080000090939193101561133457600a9250611334565b69152d02c7e14af6800000909391931061131a57600419925061131a56fe8be0079c531659141344cd1fd0a4f28419497f9722a3daafe3b4186f6b6457e09b779b17422d0df92223018b32b4d1fa46e071723d6817e2486d003becc55f00a2646970667358221220aa9d438d60c3ddd570fff5ac527c42dab9ba9cf137cc297df7960070b8fd139064736f6c63430008180033","linkReferences":{}},"methodIdentifiers":{"claimLPRewards(address)":"b916a778","collateralToken()":"b2016bd4","collectTradeFees(address,uint256)":"cd818977","getCurrentFees(address)":"b54e1bca","getLPInfo(address,address)":"26b85199","getMarketFeeStats(address)":"8a6e0baa","getPendingLPRewards(address,address)":"ce98c3b3","isMarket(address)":"6ec934da","lpInfo(address,address)":"d1e590ed","marketLPFeePools(address)":"14c4e430","marketStats(address)":"12d04815","marketTotalLPTokens(address)":"4630ae06","owner()":"8da5cb5b","registerLP(address,address,uint256,uint256)":"e9145167","registerMarket(address)":"a79b9ec9","renounceOwnership()":"715018a6","setTreasury(address)":"f0f44260","totalLPFeesDistributed()":"c9225df3","totalProtocolFeesCollected()":"7394e627","transferOwnership(address)":"f2fde38b","treasury()":"61d027b3","unregisterLP(address,address,uint256)":"63839128","withdrawProtocolFees()":"8795cccb"},"id":47}