{"abi":[{"type":"constructor","inputs":[],"stateMutability":"nonpayable"},{"type":"function","name":"MAX_LEADERBOARD_SIZE","inputs":[],"outputs":[{"name":"","type":"uint256","internalType":"uint256"}],"stateMutability":"view"},{"type":"function","name":"getLeaderboard","inputs":[{"name":"limit","type":"uint256","internalType":"uint256"}],"outputs":[{"name":"users","type":"address[]","internalType":"address[]"},{"name":"reputations","type":"uint256[]","internalType":"uint256[]"},{"name":"winRates","type":"uint256[]","internalType":"uint256[]"}],"stateMutability":"view"},{"type":"function","name":"getMarketComments","inputs":[{"name":"market","type":"address","internalType":"address"},{"name":"offset","type":"uint256","internalType":"uint256"},{"name":"limit","type":"uint256","internalType":"uint256"}],"outputs":[{"name":"comments","type":"tuple[]","internalType":"struct SocialPredictions.Comment[]","components":[{"name":"author","type":"address","internalType":"address"},{"name":"market","type":"address","internalType":"address"},{"name":"metadataURI","type":"bytes32","internalType":"bytes32"},{"name":"timestamp","type":"uint256","internalType":"uint256"},{"name":"upvotes","type":"uint256","internalType":"uint256"},{"name":"downvotes","type":"uint256","internalType":"uint256"}]}],"stateMutability":"view"},{"type":"function","name":"getUserPrediction","inputs":[{"name":"user","type":"address","internalType":"address"},{"name":"market","type":"address","internalType":"address"}],"outputs":[{"name":"prediction","type":"tuple","internalType":"struct SocialPredictions.UserPrediction","components":[{"name":"user","type":"address","internalType":"address"},{"name":"market","type":"address","internalType":"address"},{"name":"predictedOutcome","type":"uint8","internalType":"uint8"},{"name":"metadataURI","type":"bytes32","internalType":"bytes32"},{"name":"timestamp","type":"uint256","internalType":"uint256"},{"name":"confidence","type":"uint256","internalType":"uint256"}]}],"stateMutability":"view"},{"type":"function","name":"getUserPredictionHistory","inputs":[{"name":"user","type":"address","internalType":"address"},{"name":"limit","type":"uint256","internalType":"uint256"}],"outputs":[{"name":"predictions","type":"tuple[]","internalType":"struct SocialPredictions.UserPrediction[]","components":[{"name":"user","type":"address","internalType":"address"},{"name":"market","type":"address","internalType":"address"},{"name":"predictedOutcome","type":"uint8","internalType":"uint8"},{"name":"metadataURI","type":"bytes32","internalType":"bytes32"},{"name":"timestamp","type":"uint256","internalType":"uint256"},{"name":"confidence","type":"uint256","internalType":"uint256"}]}],"stateMutability":"view"},{"type":"function","name":"getUserStats","inputs":[{"name":"user","type":"address","internalType":"address"}],"outputs":[{"name":"stats","type":"tuple","internalType":"struct SocialPredictions.UserStats","components":[{"name":"totalPredictions","type":"uint256","internalType":"uint256"},{"name":"correctPredictions","type":"uint256","internalType":"uint256"},{"name":"totalProfit","type":"uint256","internalType":"uint256"},{"name":"totalLoss","type":"uint256","internalType":"uint256"},{"name":"reputation","type":"uint256","internalType":"uint256"},{"name":"streak","type":"uint256","internalType":"uint256"}]},{"name":"winRate","type":"uint256","internalType":"uint256"},{"name":"rank","type":"uint256","internalType":"uint256"}],"stateMutability":"view"},{"type":"function","name":"hasVoted","inputs":[{"name":"","type":"bytes32","internalType":"bytes32"}],"outputs":[{"name":"","type":"bool","internalType":"bool"}],"stateMutability":"view"},{"type":"function","name":"leaderboard","inputs":[{"name":"","type":"uint256","internalType":"uint256"}],"outputs":[{"name":"","type":"address","internalType":"address"}],"stateMutability":"view"},{"type":"function","name":"makePrediction","inputs":[{"name":"market","type":"address","internalType":"address"},{"name":"outcomeIndex","type":"uint8","internalType":"uint8"},{"name":"confidence","type":"uint256","internalType":"uint256"},{"name":"metadataURI","type":"bytes32","internalType":"bytes32"}],"outputs":[],"stateMutability":"nonpayable"},{"type":"function","name":"marketComments","inputs":[{"name":"","type":"address","internalType":"address"},{"name":"","type":"uint256","internalType":"uint256"}],"outputs":[{"name":"author","type":"address","internalType":"address"},{"name":"market","type":"address","internalType":"address"},{"name":"metadataURI","type":"bytes32","internalType":"bytes32"},{"name":"timestamp","type":"uint256","internalType":"uint256"},{"name":"upvotes","type":"uint256","internalType":"uint256"},{"name":"downvotes","type":"uint256","internalType":"uint256"}],"stateMutability":"view"},{"type":"function","name":"owner","inputs":[],"outputs":[{"name":"","type":"address","internalType":"address"}],"stateMutability":"view"},{"type":"function","name":"postComment","inputs":[{"name":"market","type":"address","internalType":"address"},{"name":"metadataURI","type":"bytes32","internalType":"bytes32"}],"outputs":[],"stateMutability":"nonpayable"},{"type":"function","name":"renounceOwnership","inputs":[],"outputs":[],"stateMutability":"nonpayable"},{"type":"function","name":"transferOwnership","inputs":[{"name":"newOwner","type":"address","internalType":"address"}],"outputs":[],"stateMutability":"nonpayable"},{"type":"function","name":"updatePredictionResult","inputs":[{"name":"user","type":"address","internalType":"address"},{"name":"market","type":"address","internalType":"address"},{"name":"winningOutcome","type":"uint8","internalType":"uint8"},{"name":"profit","type":"int256","internalType":"int256"}],"outputs":[],"stateMutability":"nonpayable"},{"type":"function","name":"userPredictionHistory","inputs":[{"name":"","type":"address","internalType":"address"},{"name":"","type":"uint256","internalType":"uint256"}],"outputs":[{"name":"user","type":"address","internalType":"address"},{"name":"market","type":"address","internalType":"address"},{"name":"predictedOutcome","type":"uint8","internalType":"uint8"},{"name":"metadataURI","type":"bytes32","internalType":"bytes32"},{"name":"timestamp","type":"uint256","internalType":"uint256"},{"name":"confidence","type":"uint256","internalType":"uint256"}],"stateMutability":"view"},{"type":"function","name":"userPredictions","inputs":[{"name":"","type":"address","internalType":"address"},{"name":"","type":"address","internalType":"address"}],"outputs":[{"name":"user","type":"address","internalType":"address"},{"name":"market","type":"address","internalType":"address"},{"name":"predictedOutcome","type":"uint8","internalType":"uint8"},{"name":"metadataURI","type":"bytes32","internalType":"bytes32"},{"name":"timestamp","type":"uint256","internalType":"uint256"},{"name":"confidence","type":"uint256","internalType":"uint256"}],"stateMutability":"view"},{"type":"function","name":"userStats","inputs":[{"name":"","type":"address","internalType":"address"}],"outputs":[{"name":"totalPredictions","type":"uint256","internalType":"uint256"},{"name":"correctPredictions","type":"uint256","internalType":"uint256"},{"name":"totalProfit","type":"uint256","internalType":"uint256"},{"name":"totalLoss","type":"uint256","internalType":"uint256"},{"name":"reputation","type":"uint256","internalType":"uint256"},{"name":"streak","type":"uint256","internalType":"uint256"}],"stateMutability":"view"},{"type":"function","name":"voteOnComment","inputs":[{"name":"market","type":"address","internalType":"address"},{"name":"commentId","type":"uint256","internalType":"uint256"},{"name":"isUpvote","type":"bool","internalType":"bool"}],"outputs":[],"stateMutability":"nonpayable"},{"type":"event","name":"CommentPosted","inputs":[{"name":"author","type":"address","indexed":true,"internalType":"address"},{"name":"market","type":"address","indexed":true,"internalType":"address"},{"name":"commentId","type":"uint256","indexed":false,"internalType":"uint256"},{"name":"metadataURI","type":"bytes32","indexed":false,"internalType":"bytes32"}],"anonymous":false},{"type":"event","name":"CommentVoted","inputs":[{"name":"voter","type":"address","indexed":true,"internalType":"address"},{"name":"market","type":"address","indexed":true,"internalType":"address"},{"name":"commentId","type":"uint256","indexed":false,"internalType":"uint256"},{"name":"isUpvote","type":"bool","indexed":false,"internalType":"bool"}],"anonymous":false},{"type":"event","name":"OwnershipTransferred","inputs":[{"name":"previousOwner","type":"address","indexed":true,"internalType":"address"},{"name":"newOwner","type":"address","indexed":true,"internalType":"address"}],"anonymous":false},{"type":"event","name":"PredictionMade","inputs":[{"name":"user","type":"address","indexed":true,"internalType":"address"},{"name":"market","type":"address","indexed":true,"internalType":"address"},{"name":"outcomeIndex","type":"uint8","indexed":false,"internalType":"uint8"},{"name":"confidence","type":"uint256","indexed":false,"internalType":"uint256"},{"name":"metadataURI","type":"bytes32","indexed":false,"internalType":"bytes32"}],"anonymous":false},{"type":"event","name":"ReputationUpdated","inputs":[{"name":"user","type":"address","indexed":true,"internalType":"address"},{"name":"newReputation","type":"uint256","indexed":false,"internalType":"uint256"},{"name":"change","type":"int256","indexed":false,"internalType":"int256"}],"anonymous":false},{"type":"error","name":"InvalidAddress","inputs":[]},{"type":"error","name":"InvalidParameter","inputs":[]},{"type":"error","name":"OwnableInvalidOwner","inputs":[{"name":"owner","type":"address","internalType":"address"}]},{"type":"error","name":"OwnableUnauthorizedAccount","inputs":[{"name":"account","type":"address","internalType":"address"}]}],"bytecode":{"object":"0x608060405234801561000f575f80fd5b50338061003557604051631e4fbdf760e01b81525f600482015260240160405180910390fd5b61003e81610044565b50610093565b5f80546001600160a01b038381166001600160a01b0319831681178455604051919092169283917f8be0079c531659141344cd1fd0a4f28419497f9722a3daafe3b4186f6b6457e09190a35050565b611dcb806100a05f395ff3fe608060405234801561000f575f80fd5b506004361061011c575f3560e01c80638a65d874116100a9578063bf3683991161006e578063bf368399146103ef578063ce1d452114610402578063db87714214610415578063f2fde38b1461042b578063f99b1a801461043e575f80fd5b80638a65d874146103075780638da5cb5b146103765780639209e7f81461039a578063a34b46fe146103ad578063b93eaded146103cf575f80fd5b80636331c05b116100ef5780636331c05b1461026e5780636c7f3de21461028e578063715018a6146102d957806373a1814d146102e1578063751239a0146102f4575f80fd5b80631b4613cb14610120578063301097ba14610157578063340563221461016c5780634e43603a14610207575b5f80fd5b61014261012e366004611921565b60046020525f908152604090205460ff1681565b60405190151581526020015b60405180910390f35b61016a610165366004611963565b61045e565b005b6101c761017a3660046119a2565b600160208181525f93845260408085209091529183529120805491810154600282015460038301546004909301546001600160a01b0394851694831693600160a01b90930460ff16929086565b604080516001600160a01b03978816815296909516602087015260ff909316938501939093526060840152608083019190915260a082015260c00161014e565b61021a6102153660046119d3565b61073c565b6040805184518152602080860151908201528482015191810191909152606080850151908201526080808501519082015260a0938401519381019390935260c083019190915260e08201526101000161014e565b61028161027c3660046119a2565b61085a565b60405161014e9190611a34565b6102a161029c366004611a42565b610906565b604080516001600160a01b039788168152969095166020870152938501929092526060840152608083015260a082015260c00161014e565b61016a610962565b61016a6102ef366004611a6a565b610975565b6101c7610302366004611a42565b610bf2565b6103496103153660046119d3565b600560208190525f918252604090912080546001820154600283015460038401546004850154949095015492949193909286565b604080519687526020870195909552938501929092526060840152608083015260a082015260c00161014e565b5f546001600160a01b03165b6040516001600160a01b03909116815260200161014e565b61016a6103a8366004611a42565b610c54565b6103c06103bb366004611921565b610d9c565b60405161014e93929190611aec565b6103e26103dd366004611a42565b611024565b60405161014e9190611b61565b6103826103fd366004611921565b6111aa565b61016a610410366004611bae565b6111d2565b61041d606481565b60405190815260200161014e565b61016a6104393660046119d3565b611382565b61045161044c366004611bef565b6113c4565b60405161014e9190611c1f565b6001600160a01b0384166104855760405163e6c4247b60e01b815260040160405180910390fd5b60648211156104a757604051630309cb8760e51b815260040160405180910390fd5b5f6040518060c00160405280336001600160a01b03168152602001866001600160a01b031681526020018560ff1681526020018381526020014281526020018481525090508060015f336001600160a01b03166001600160a01b031681526020019081526020015f205f876001600160a01b03166001600160a01b031681526020019081526020015f205f820151815f015f6101000a8154816001600160a01b0302191690836001600160a01b031602179055506020820151816001015f6101000a8154816001600160a01b0302191690836001600160a01b0316021790555060408201518160010160146101000a81548160ff021916908360ff160217905550606082015181600201556080820151816003015560a0820151816004015590505060025f336001600160a01b03166001600160a01b031681526020019081526020015f2081908060018154018082558091505060019003905f5260205f2090600502015f909190919091505f820151815f015f6101000a8154816001600160a01b0302191690836001600160a01b031602179055506020820151816001015f6101000a8154816001600160a01b0302191690836001600160a01b0316021790555060408201518160010160146101000a81548160ff021916908360ff160217905550606082015181600201556080820151816003015560a08201518160040155505060055f336001600160a01b03166001600160a01b031681526020019081526020015f205f015f8154809291906106df90611cb6565b90915550506040805160ff86168152602081018590529081018390526001600160a01b0386169033907f400a731a67fa97f5669861fbc19bfde1ff7138501ffe52f198b7985428db44f99060600160405180910390a35050505050565b61076f6040518060c001604052805f81526020015f81526020015f81526020015f81526020015f81526020015f81525090565b506001600160a01b0381165f908152600560208181526040808420815160c081018352815480825260018301549482019490945260028201549281019290925260038101546060830152600481015460808301529092015460a08301529091908190156107f657825160208401516107e990612710611cce565b6107f39190611ce5565b91505b5f5b60065481101561085257846001600160a01b03166006828154811061081f5761081f611d04565b5f918252602090912001546001600160a01b03160361084a57610843816001611d18565b9150610852565b6001016107f8565b509193909250565b6040805160c0810182525f80825260208201819052918101829052606081018290526080810182905260a0810191909152506001600160a01b038281165f9081526001602081815260408084208686168552825292839020835160c0810185528154861681529281015494851691830191909152600160a01b90930460ff1691810191909152600282015460608201526003820154608082015260049091015460a08201525b92915050565b6003602052815f5260405f20818154811061091f575f80fd5b5f9182526020909120600690910201805460018201546002830154600384015460048501546005909501546001600160a01b039485169750929093169450929086565b61096a6115b1565b6109735f6115dd565b565b61097d6115b1565b6001600160a01b038481165f90815260016020818152604080842088861685528252808420815160c0810183528154871681529381015495861692840192909252600160a01b90940460ff16938201939093526002830154606082015260038301546080820181905260049093015460a08201529190036109fe5750610bec565b6001600160a01b0385165f90815260056020526040908190209082015160ff808616911603610b0f57600181018054905f610a3883611cb6565b9091555050600581018054905f610a4e83611cb6565b909155505060a08201516064908190610a68908290611cce565b610a729190611ce5565b610a7c9082611d18565b90506005826005015410610aa857600a8260050154610a9b9190611cce565b610aa59082611d18565b90505b80826004015f828254610abb9190611d18565b9091555050600482015460408051918252602082018390526001600160a01b038916917f532db08b38fe0e0a4d67d20276b03a9c274f7ec901ce23f65aad1b3bb99fe914910160405180910390a250610b91565b600581015415610b20575f60058201555b603281600401541115610b91576032816004015f828254610b419190611d2b565b909155505060048101546040805191825260311960208301526001600160a01b038816917f532db08b38fe0e0a4d67d20276b03a9c274f7ec901ce23f65aad1b3bb99fe914910160405180910390a25b5f831315610bb75782816002015f828254610bac9190611d18565b90915550610be09050565b5f831215610be057610bc883611d3e565b816003015f828254610bda9190611d18565b90915550505b610be98661162c565b50505b50505050565b6002602052815f5260405f208181548110610c0b575f80fd5b5f918252602090912060059091020180546001820154600283015460038401546004909401546001600160a01b0393841696509282169450600160a01b90910460ff1692909186565b6001600160a01b038216610c7b5760405163e6c4247b60e01b815260040160405180910390fd5b80610c9957604051630309cb8760e51b815260040160405180910390fd5b6040805160c0810182523381526001600160a01b03848116602080840182815284860187815242606087019081525f6080880181815260a0890182815287835260038088529a83208054600181810183558286529885208c516006909202018054918c166001600160a01b03199283161781559751888a01805491909c1691161790995593516002860155915198840198909855516004830155516005909101559084529054919291610d4c9190611d2b565b60408051828152602081018690529192506001600160a01b0386169133917ff9486a0b9a31f2d848ad49bf7d84619f3aab8a3c29b2276a051b182bb8e3126891015b60405180910390a350505050565b60608060605f6006805490508511610db45784610db8565b6006545b90508067ffffffffffffffff811115610dd357610dd3611d58565b604051908082528060200260200182016040528015610dfc578160200160208202803683370190505b5093508067ffffffffffffffff811115610e1857610e18611d58565b604051908082528060200260200182016040528015610e41578160200160208202803683370190505b5092508067ffffffffffffffff811115610e5d57610e5d611d58565b604051908082528060200260200182016040528015610e86578160200160208202803683370190505b5091505f5b8181101561101b5760068181548110610ea657610ea6611d04565b905f5260205f20015f9054906101000a90046001600160a01b0316858281518110610ed357610ed3611d04565b60200260200101906001600160a01b031690816001600160a01b03168152505060055f60068381548110610f0957610f09611d04565b5f9182526020808320909101546001600160a01b031683528201929092526040019020600401548451859083908110610f4457610f44611d04565b6020026020010181815250505f60055f60068481548110610f6757610f67611d04565b5f9182526020808320909101546001600160a01b031683528281019390935260409182019020815160c081018352815480825260018301549482019490945260028201549281019290925260038101546060830152600481015460808301526005015460a08201529150156110125780516020820151610fe990612710611cce565b610ff39190611ce5565b84838151811061100557611005611d04565b6020026020010181815250505b50600101610e8b565b50509193909250565b6001600160a01b0382165f9081526002602052604081205460609181841161104c578361104e565b815b90508067ffffffffffffffff81111561106957611069611d58565b6040519080825280602002602001820160405280156110c757816020015b6040805160c0810182525f8082526020808301829052928201819052606082018190526080820181905260a082015282525f199092019101816110875790505b5092505f5b818110156111a1576001600160a01b0386165f908152600260205260409020816110f7600186611d2b565b6111019190611d2b565b8154811061111157611111611d04565b5f9182526020918290206040805160c08101825260059390930290910180546001600160a01b039081168452600182015490811694840194909452600160a01b90930460ff1690820152600282015460608201526003820154608082015260049091015460a0820152845185908390811061118e5761118e611d04565b60209081029190910101526001016110cc565b50505092915050565b600681815481106111b9575f80fd5b5f918252602090912001546001600160a01b0316905081565b6001600160a01b0383165f90815260036020526040902054821061120957604051630309cb8760e51b815260040160405180910390fd5b6040516bffffffffffffffffffffffff1933606090811b8216602084015285901b166034820152604881018390525f9060680160408051601f1981840301815291815281516020928301205f818152600490935291205490915060ff161561128457604051630309cb8760e51b815260040160405180910390fd5b5f818152600460205260409020805460ff1916600117905581156112f2576001600160a01b0384165f9081526003602052604090208054849081106112cb576112cb611d04565b5f918252602082206004600690920201018054916112e883611cb6565b919050555061133e565b6001600160a01b0384165f90815260036020526040902080548490811061131b5761131b611d04565b5f9182526020822060056006909202010180549161133883611cb6565b91905055505b6040805184815283151560208201526001600160a01b0386169133917ff6e02207759afd439622f2f0606d7ee472b6e674a3fcaccaa4cf9062f85158fa9101610d8e565b61138a6115b1565b6001600160a01b0381166113b857604051631e4fbdf760e01b81525f60048201526024015b60405180910390fd5b6113c1816115dd565b50565b6001600160a01b0383165f9081526003602052604090205460609080841061144457604080515f808252602082019092529061143b565b6040805160c0810182525f8082526020808301829052928201819052606082018190526080820181905260a082015282525f199092019101816113fb5790505b509150506115aa565b5f61144f8486611d18565b90508181111561145c5750805b5f6114678683611d2b565b90508067ffffffffffffffff81111561148257611482611d58565b6040519080825280602002602001820160405280156114e057816020015b6040805160c0810182525f8082526020808301829052928201819052606082018190526080820181905260a082015282525f199092019101816114a05790505b5093505f5b818110156115a5576001600160a01b0388165f90815260036020526040902061150e8289611d18565b8154811061151e5761151e611d04565b5f9182526020918290206040805160c081018252600690930290910180546001600160a01b03908116845260018201541693830193909352600283015490820152600382015460608201526004820154608082015260059091015460a0820152855186908390811061159257611592611d04565b60209081029190910101526001016114e5565b505050505b9392505050565b5f546001600160a01b031633146109735760405163118cdaa760e01b81523360048201526024016113af565b5f80546001600160a01b038381166001600160a01b0319831681178455604051919092169283917f8be0079c531659141344cd1fd0a4f28419497f9722a3daafe3b4186f6b6457e09190a35050565b5f5b60065481101561173d57816001600160a01b03166006828154811061165557611655611d04565b5f918252602090912001546001600160a01b03160361173557805b60065461167f90600190611d2b565b8110156116fe576006611693826001611d18565b815481106116a3576116a3611d04565b5f91825260209091200154600680546001600160a01b0390921691839081106116ce576116ce611d04565b5f91825260209091200180546001600160a01b0319166001600160a01b0392909216919091179055600101611670565b50600680548061171057611710611d6c565b5f8281526020902081015f1990810180546001600160a01b031916905501905561173d565b60010161162e565b506001600160a01b0381165f9081526005602052604081206004015460065490915b6006548110156117bd5760055f6006838154811061177f5761177f611d04565b5f9182526020808320909101546001600160a01b031683528201929092526040019020600401548311156117b5578091506117bd565b60010161175f565b50606481101561191c5760068054600181810183555f8381527ff652222313e28459528d920b65115c16c04f3efc82aaedc97be59f3f377c0d3f90920180546001600160a01b03191690559154909161181591611d2b565b90505b818111156118a257600661182d600183611d2b565b8154811061183d5761183d611d04565b5f91825260209091200154600680546001600160a01b03909216918390811061186857611868611d04565b5f91825260209091200180546001600160a01b0319166001600160a01b03929092169190911790558061189a81611d80565b915050611818565b5082600682815481106118b7576118b7611d04565b5f91825260209091200180546001600160a01b0319166001600160a01b03929092169190911790556006546064101561191c5760068054806118fb576118fb611d6c565b5f8281526020902081015f1990810180546001600160a01b03191690550190555b505050565b5f60208284031215611931575f80fd5b5035919050565b80356001600160a01b038116811461194e575f80fd5b919050565b803560ff8116811461194e575f80fd5b5f805f8060808587031215611976575f80fd5b61197f85611938565b935061198d60208601611953565b93969395505050506040820135916060013590565b5f80604083850312156119b3575f80fd5b6119bc83611938565b91506119ca60208401611938565b90509250929050565b5f602082840312156119e3575f80fd5b6115aa82611938565b80516001600160a01b0390811683526020808301519091169083015260408082015160ff1690830152606080820151908301526080808201519083015260a090810151910152565b60c0810161090082846119ec565b5f8060408385031215611a53575f80fd5b611a5c83611938565b946020939093013593505050565b5f805f8060808587031215611a7d575f80fd5b611a8685611938565b9350611a9460208601611938565b9250611aa260408601611953565b9396929550929360600135925050565b5f815180845260208085019450602084015f5b83811015611ae157815187529582019590820190600101611ac5565b509495945050505050565b606080825284519082018190525f906020906080840190828801845b82811015611b2d5781516001600160a01b031684529284019290840190600101611b08565b5050508381036020850152611b428187611ab2565b9150508281036040840152611b578185611ab2565b9695505050505050565b602080825282518282018190525f9190848201906040850190845b81811015611ba257611b8f8385516119ec565b9284019260c09290920191600101611b7c565b50909695505050505050565b5f805f60608486031215611bc0575f80fd5b611bc984611938565b92506020840135915060408401358015158114611be4575f80fd5b809150509250925092565b5f805f60608486031215611c01575f80fd5b611c0a84611938565b95602085013595506040909401359392505050565b602080825282518282018190525f919060409081850190868401855b82811015611c9557815180516001600160a01b0390811686528782015116878601528581015186860152606080820151908601526080808201519086015260a0908101519085015260c09093019290850190600101611c3b565b5091979650505050505050565b634e487b7160e01b5f52601160045260245ffd5b5f60018201611cc757611cc7611ca2565b5060010190565b808202811582820484141761090057610900611ca2565b5f82611cff57634e487b7160e01b5f52601260045260245ffd5b500490565b634e487b7160e01b5f52603260045260245ffd5b8082018082111561090057610900611ca2565b8181038181111561090057610900611ca2565b5f600160ff1b8201611d5257611d52611ca2565b505f0390565b634e487b7160e01b5f52604160045260245ffd5b634e487b7160e01b5f52603160045260245ffd5b5f81611d8e57611d8e611ca2565b505f19019056fea2646970667358221220291b1ab61b91cdeaed0a4690e4a2ced95f39953314bac3be9b2069de1bee60e564736f6c63430008180033","linkReferences":{}},"methodIdentifiers":{"MAX_LEADERBOARD_SIZE()":"db877142","getLeaderboard(uint256)":"a34b46fe","getMarketComments(address,uint256,uint256)":"f99b1a80","getUserPrediction(address,address)":"6331c05b","getUserPredictionHistory(address,uint256)":"b93eaded","getUserStats(address)":"4e43603a","hasVoted(bytes32)":"1b4613cb","leaderboard(uint256)":"bf368399","makePrediction(address,uint8,uint256,bytes32)":"301097ba","marketComments(address,uint256)":"6c7f3de2","owner()":"8da5cb5b","postComment(address,bytes32)":"9209e7f8","renounceOwnership()":"715018a6","transferOwnership(address)":"f2fde38b","updatePredictionResult(address,address,uint8,int256)":"73a1814d","userPredictionHistory(address,uint256)":"751239a0","userPredictions(address,address)":"34056322","userStats(address)":"8a65d874","voteOnComment(address,uint256,bool)":"ce1d4521"},"id":45}