{"abi":[{"type":"constructor","inputs":[],"stateMutability":"nonpayable"},{"type":"function","name":"MAX_LEADERBOARD_SIZE","inputs":[],"outputs":[{"name":"","type":"uint256","internalType":"uint256"}],"stateMutability":"view"},{"type":"function","name":"getLeaderboard","inputs":[{"name":"limit","type":"uint256","internalType":"uint256"}],"outputs":[{"name":"users","type":"address[]","internalType":"address[]"},{"name":"reputations","type":"uint256[]","internalType":"uint256[]"},{"name":"winRates","type":"uint256[]","internalType":"uint256[]"}],"stateMutability":"view"},{"type":"function","name":"getMarketComments","inputs":[{"name":"market","type":"address","internalType":"address"},{"name":"offset","type":"uint256","internalType":"uint256"},{"name":"limit","type":"uint256","internalType":"uint256"}],"outputs":[{"name":"comments","type":"tuple[]","internalType":"struct SocialPredictions.Comment[]","components":[{"name":"author","type":"address","internalType":"address"},{"name":"market","type":"address","internalType":"address"},{"name":"metadataURI","type":"bytes32","internalType":"bytes32"},{"name":"timestamp","type":"uint256","internalType":"uint256"},{"name":"upvotes","type":"uint256","internalType":"uint256"},{"name":"downvotes","type":"uint256","internalType":"uint256"}]}],"stateMutability":"view"},{"type":"function","name":"getUserPrediction","inputs":[{"name":"user","type":"address","internalType":"address"},{"name":"market","type":"address","internalType":"address"}],"outputs":[{"name":"prediction","type":"tuple","internalType":"struct SocialPredictions.UserPrediction","components":[{"name":"user","type":"address","internalType":"address"},{"name":"market","type":"address","internalType":"address"},{"name":"predictedOutcome","type":"uint8","internalType":"uint8"},{"name":"metadataURI","type":"bytes32","internalType":"bytes32"},{"name":"timestamp","type":"uint256","internalType":"uint256"},{"name":"confidence","type":"uint256","internalType":"uint256"}]}],"stateMutability":"view"},{"type":"function","name":"getUserPredictionHistory","inputs":[{"name":"user","type":"address","internalType":"address"},{"name":"limit","type":"uint256","internalType":"uint256"}],"outputs":[{"name":"predictions","type":"tuple[]","internalType":"struct SocialPredictions.UserPrediction[]","components":[{"name":"user","type":"address","internalType":"address"},{"name":"market","type":"address","internalType":"address"},{"name":"predictedOutcome","type":"uint8","internalType":"uint8"},{"name":"metadataURI","type":"bytes32","internalType":"bytes32"},{"name":"timestamp","type":"uint256","internalType":"uint256"},{"name":"confidence","type":"uint256","internalType":"uint256"}]}],"stateMutability":"view"},{"type":"function","name":"getUserStats","inputs":[{"name":"user","type":"address","internalType":"address"}],"outputs":[{"name":"stats","type":"tuple","internalType":"struct SocialPredictions.UserStats","components":[{"name":"totalPredictions","type":"uint256","internalType":"uint256"},{"name":"correctPredictions","type":"uint256","internalType":"uint256"},{"name":"totalProfit","type":"uint256","internalType":"uint256"},{"name":"totalLoss","type":"uint256","internalType":"uint256"},{"name":"reputation","type":"uint256","internalType":"uint256"},{"name":"streak","type":"uint256","internalType":"uint256"}]},{"name":"winRate","type":"uint256","internalType":"uint256"},{"name":"rank","type":"uint256","internalType":"uint256"}],"stateMutability":"view"},{"type":"function","name":"hasVoted","inputs":[{"name":"","type":"bytes32","internalType":"bytes32"}],"outputs":[{"name":"","type":"bool","internalType":"bool"}],"stateMutability":"view"},{"type":"function","name":"leaderboard","inputs":[{"name":"","type":"uint256","internalType":"uint256"}],"outputs":[{"name":"","type":"address","internalType":"address"}],"stateMutability":"view"},{"type":"function","name":"makePrediction","inputs":[{"name":"market","type":"address","internalType":"address"},{"name":"outcomeIndex","type":"uint8","internalType":"uint8"},{"name":"confidence","type":"uint256","internalType":"uint256"},{"name":"metadataURI","type":"bytes32","internalType":"bytes32"}],"outputs":[],"stateMutability":"nonpayable"},{"type":"function","name":"marketComments","inputs":[{"name":"","type":"address","internalType":"address"},{"name":"","type":"uint256","internalType":"uint256"}],"outputs":[{"name":"author","type":"address","internalType":"address"},{"name":"market","type":"address","internalType":"address"},{"name":"metadataURI","type":"bytes32","internalType":"bytes32"},{"name":"timestamp","type":"uint256","internalType":"uint256"},{"name":"upvotes","type":"uint256","internalType":"uint256"},{"name":"downvotes","type":"uint256","internalType":"uint256"}],"stateMutability":"view"},{"type":"function","name":"owner","inputs":[],"outputs":[{"name":"","type":"address","internalType":"address"}],"stateMutability":"view"},{"type":"function","name":"postComment","inputs":[{"name":"market","type":"address","internalType":"address"},{"name":"metadataURI","type":"bytes32","internalType":"bytes32"}],"outputs":[],"stateMutability":"nonpayable"},{"type":"function","name":"renounceOwnership","inputs":[],"outputs":[],"stateMutability":"nonpayable"},{"type":"function","name":"transferOwnership","inputs":[{"name":"newOwner","type":"address","internalType":"address"}],"outputs":[],"stateMutability":"nonpayable"},{"type":"function","name":"updatePredictionResult","inputs":[{"name":"user","type":"address","internalType":"address"},{"name":"market","type":"address","internalType":"address"},{"name":"winningOutcome","type":"uint8","internalType":"uint8"},{"name":"profit","type":"int256","internalType":"int256"}],"outputs":[],"stateMutability":"nonpayable"},{"type":"function","name":"userPredictionHistory","inputs":[{"name":"","type":"address","internalType":"address"},{"name":"","type":"uint256","internalType":"uint256"}],"outputs":[{"name":"user","type":"address","internalType":"address"},{"name":"market","type":"address","internalType":"address"},{"name":"predictedOutcome","type":"uint8","internalType":"uint8"},{"name":"metadataURI","type":"bytes32","internalType":"bytes32"},{"name":"timestamp","type":"uint256","internalType":"uint256"},{"name":"confidence","type":"uint256","internalType":"uint256"}],"stateMutability":"view"},{"type":"function","name":"userPredictions","inputs":[{"name":"","type":"address","internalType":"address"},{"name":"","type":"address","internalType":"address"}],"outputs":[{"name":"user","type":"address","internalType":"address"},{"name":"market","type":"address","internalType":"address"},{"name":"predictedOutcome","type":"uint8","internalType":"uint8"},{"name":"metadataURI","type":"bytes32","internalType":"bytes32"},{"name":"timestamp","type":"uint256","internalType":"uint256"},{"name":"confidence","type":"uint256","internalType":"uint256"}],"stateMutability":"view"},{"type":"function","name":"userStats","inputs":[{"name":"","type":"address","internalType":"address"}],"outputs":[{"name":"totalPredictions","type":"uint256","internalType":"uint256"},{"name":"correctPredictions","type":"uint256","internalType":"uint256"},{"name":"totalProfit","type":"uint256","internalType":"uint256"},{"name":"totalLoss","type":"uint256","internalType":"uint256"},{"name":"reputation","type":"uint256","internalType":"uint256"},{"name":"streak","type":"uint256","internalType":"uint256"}],"stateMutability":"view"},{"type":"function","name":"voteOnComment","inputs":[{"name":"market","type":"address","internalType":"address"},{"name":"commentId","type":"uint256","internalType":"uint256"},{"name":"isUpvote","type":"bool","internalType":"bool"}],"outputs":[],"stateMutability":"nonpayable"},{"type":"event","name":"CommentPosted","inputs":[{"name":"author","type":"address","indexed":true,"internalType":"address"},{"name":"market","type":"address","indexed":true,"internalType":"address"},{"name":"commentId","type":"uint256","indexed":false,"internalType":"uint256"},{"name":"metadataURI","type":"bytes32","indexed":false,"internalType":"bytes32"}],"anonymous":false},{"type":"event","name":"CommentVoted","inputs":[{"name":"voter","type":"address","indexed":true,"internalType":"address"},{"name":"market","type":"address","indexed":true,"internalType":"address"},{"name":"commentId","type":"uint256","indexed":false,"internalType":"uint256"},{"name":"isUpvote","type":"bool","indexed":false,"internalType":"bool"}],"anonymous":false},{"type":"event","name":"OwnershipTransferred","inputs":[{"name":"previousOwner","type":"address","indexed":true,"internalType":"address"},{"name":"newOwner","type":"address","indexed":true,"internalType":"address"}],"anonymous":false},{"type":"event","name":"PredictionMade","inputs":[{"name":"user","type":"address","indexed":true,"internalType":"address"},{"name":"market","type":"address","indexed":true,"internalType":"address"},{"name":"outcomeIndex","type":"uint8","indexed":false,"internalType":"uint8"},{"name":"confidence","type":"uint256","indexed":false,"internalType":"uint256"},{"name":"metadataURI","type":"bytes32","indexed":false,"internalType":"bytes32"}],"anonymous":false},{"type":"event","name":"ReputationUpdated","inputs":[{"name":"user","type":"address","indexed":true,"internalType":"address"},{"name":"newReputation","type":"uint256","indexed":false,"internalType":"uint256"},{"name":"change","type":"int256","indexed":false,"internalType":"int256"}],"anonymous":false},{"type":"error","name":"InvalidAddress","inputs":[]},{"type":"error","name":"InvalidParameter","inputs":[]},{"type":"error","name":"OwnableInvalidOwner","inputs":[{"name":"owner","type":"address","internalType":"address"}]},{"type":"error","name":"OwnableUnauthorizedAccount","inputs":[{"name":"account","type":"address","internalType":"address"}]}],"bytecode":{"object":"0x60808060405234610078573315610063575f8054336001600160a01b03198216811783556040519290916001600160a01b0316907f8be0079c531659141344cd1fd0a4f28419497f9722a3daafe3b4186f6b6457e09080a36117a6908161007d8239f35b631e4fbdf760e01b81525f6004820152602490fd5b5f80fdfe6080604090808252600480361015610015575f80fd5b5f3560e01c9182631b4613cb14610e3957508163301097ba14610ce55781633405632214610c745781634e43603a14610b0b5781636331c05b14610aa95781636c7f3de214610a21578163715018a6146109dd57816373a1814d14610997578163751239a0146109215781638a65d874146108b45781638da5cb5b1461088d5781639209e7f814610710578163a34b46fe14610531578163b93eaded146103d6578163bf36839914610396578163ce1d452114610229578163db8771421461020e578163f2fde38b1461019c575063f99b1a80146100f1575f80fd5b346101985760609060606003193601126101985761011d610110610e62565b6044359060243590611567565b8151916020808401908085528351809252808386019401925f905b8382106101455786860387f35b845180516001600160a01b039081168852818501511687850152808201518783015288810151898801526080808201519088015260a0908101519087015260c09095019493820193600190910190610138565b5f80fd5b905034610198576020366003190112610198576101b7610e62565b906101c06116b7565b6001600160a01b039182169283156101f85750505f548260018060a01b03198216175f55165f805160206117518339815191525f80a3005b905f6024925191631e4fbdf760e01b8352820152fd5b8234610198575f366003190112610198576020905160648152f35b90503461019857606036600319011261019857610244610e62565b9160243590604435801515908181036101985760018060a01b03861694855f5260209160038352845f205486101561038757845133606090811b85830190815299901b6001600160601b0319166034820152604880820188905281526080810198906001600160401b038a11818b10176103745789875251902097885f5282845260ff865f20541661036657507ff6e02207759afd439622f2f0606d7ee472b6e674a3fcaccaa4cf9062f85158fa9596975f52818352845f20600160ff198254161790555f1461033d57865f526003825261032186855f20610f0d565b500161032d815461105e565b90555b82519485528401523392a3005b50855f5260038152600561035386855f20610f0d565b500161035f815461105e565b9055610330565b630309cb8760e51b81529050fd5b604184634e487b7160e01b5f525260245ffd5b508351630309cb8760e51b8152fd5b905034610198576020366003190112610198573590600654821015610198576103c0602092610f86565b905491519160018060a01b039160031b1c168152f35b9050346101985781600319360112610198576103f0610e62565b6001600160a01b03165f8181526002602081815291859020549094919391929190602480358281111561052a57508193925b61042b8561150a565b976104388751998a610fcd565b8589526104448661150a565b601f1901885f5b82811061050d575050505f198401938411945f5b8781106104af5788518a81528b51818c018190528c8c019190818c01908d5f5b82811061048c5784840385f35b9091928260c0826104a06001948a51610eca565b0196019101949291909461047f565b815f52828a5286895f20906104fb57908b6104e9826104e36104dd6001966104d7848e61112c565b90610f3a565b506110db565b92611553565b526104f4818d611553565b500161045f565b85601186634e487b7160e01b5f52525ffd5b8b828261051b9b9a9b611080565b9201015201899097969761044b565b9392610422565b9050346101985760209182600319360112610198576006548235818111156107085750915b61055f8361150a565b9261056c83519485610fcd565b8084526105788161150a565b8486019590601f190136873761058d82611521565b9161059781611521565b935f5b82811061060957505050835194606086019060608752518091526080860196905f5b8181106105ec578789038489015287806105e889896105db8e8b610f53565b9184830390850152610f53565b0390f35b82516001600160a01b0316895297830197918301916001016105bc565b61061281610f86565b90546003916001600160a01b039190831b1c8116610630848c611553565b528061063b84610f86565b905490841b1c165f52600590818752848a5f20015461065a858a611553565b5261066484610f86565b905490841b1c165f52808652885f2089519161067f83610f9e565b815491828452600181015494858a86015260028201548d8601528101546060850152868101546080850152015460a08301526106c0575b505060010161059a565b612710918281029281840414901517156106f557600192916106e39151906110b0565b6106ed8289611553565b52905f6106b6565b601184634e487b7160e01b5f525260245ffd5b905091610556565b90503461019857816003193601126101985761072a610e62565b6001600160a01b03908116929060243590841561087e57811561086f5782519061075382610f9e565b33825260208201868152848301848152606084019042825260808501925f845260a08601945f86528a5f526003602052885f20805490600160401b82101561085c57906107a591600182018155610f0d565b97909761084a579080600597969594939251169060018060a01b031991828a54161789556001890192511690825416179055516002860155516003850155518684015551910155835f526003602052815f2054925f1984019384116108375750907ff9486a0b9a31f2d848ad49bf7d84619f3aab8a3c29b2276a051b182bb8e3126891815193845260208401523392a3005b601190634e487b7160e01b5f525260245ffd5b5f8b634e487b7160e01b82525260245ffd5b60418c634e487b7160e01b5f525260245ffd5b505051630309cb8760e51b8152fd5b50505163e6c4247b60e01b8152fd5b8234610198575f366003190112610198575f5490516001600160a01b039091168152602090f35b9050346101985760203660031901126101985760c0916001600160a01b036108da610e62565b165f526005602052805f20805492600182015492600283015490600560038501549385015494015494815196875260208701528501526060840152608083015260a0820152f35b823461019857806003193601126101985761093a610e62565b906024359060018060a01b038093165f526002602052805f208054831015610198576105e89261096991610f3a565b50838154169460018201546002830154916003840154930154935196879660ff8360a01c1692169087610e8e565b34610198576080366003190112610198576109b0610e62565b6109b8610e78565b9060443560ff81168103610198576109db926109d26116b7565b60643592611139565b005b34610198575f366003190112610198576109f56116b7565b5f80546001600160a01b0319811682556001600160a01b03165f805160206117518339815191528280a3005b8234610198578060031936011261019857610a3a610e62565b906024359260018060a01b038093165f526003602052815f2080548510156101985760c094610a6891610f0d565b5090838254169360018301541692600283015490600560038501549385015494015494815196875260208701528501526060840152608083015260a0820152f35b823461019857806003193601126101985760c090610ac5610e62565b610acd610e78565b90610ad6611080565b5060018060a01b038091165f526001602052825f2091165f52602052610b09610b00825f206110db565b91518092610eca565bf35b823461019857602036600319011261019857610b25610e62565b610b2d611080565b505f809160018060a01b03809116805f52600560205285855f20958051968793610b5685610f9e565b81549586865260018301549160208701928084526005600286015495878a01968752608060038201549960608c019a8b528201549a01998a5201549860a08d01998a52610c38575b50600654915f5b838110610be5575b50505050610100995082519851895251602089015251908701525160608601525160808501525160a084015260c083015260e0820152f35b8282610bf083610f86565b90549060031b1c1614610c0557600101610ba5565b939a5050505060018101809111610c25576101009950968a808080610bad565b60118a634e487b7160e01b5f525260245ffd5b90985061271090818102918183041490151715610c61578a51610c5a916110b0565b978c610b9e565b60118c634e487b7160e01b5f525260245ffd5b82346101985780600319360112610198576105e8610c90610e62565b91610c99610e78565b60018060a01b038094165f52600160205283825f2091165f52602052805f20838154169460018201546002830154916003840154930154935196879660ff8360a01c1692169087610e8e565b823461019857608036600319011261019857610cff610e62565b6024359160ff8316809303610198576044356064359260018060a01b0316948515610e2b5760648211610e1d578251610d3781610f9e565b338152602091878383015286858301528560608301524260808301528360a0830152335f5260018352845f20885f528352610d7482865f20610ff0565b335f5260028352845f20805490600160401b821015610e0a5790610d9d91600182018155610f3a565b919091610df8575090610daf91610ff0565b335f5260058152825f20610dc3815461105e565b905582519485528401528201527f400a731a67fa97f5669861fbc19bfde1ff7138501ffe52f198b7985428db44f960603392a3005b5f90634e487b7160e01b82525260245ffd5b604183634e487b7160e01b5f525260245ffd5b8251630309cb8760e51b8152fd5b825163e6c4247b60e01b8152fd5b915034610198576020366003190112610198576020928160ff92355f5284525f20541615158152f35b600435906001600160a01b038216820361019857565b602435906001600160a01b038216820361019857565b6001600160a01b0391821681529116602082015260ff90911660408201526060810191909152608081019190915260a081019190915260c00190565b60a08091600180831b03808251168552602082015116602085015260ff604082015116604085015260608101516060850152608081015160808501520151910152565b8054821015610f26575f52600660205f20910201905f90565b634e487b7160e01b5f52603260045260245ffd5b8054821015610f26575f52600560205f20910201905f90565b9081518082526020808093019301915f5b828110610f72575050505090565b835185529381019392810192600101610f64565b600654811015610f265760065f5260205f2001905f90565b60c081019081106001600160401b03821117610fb957604052565b634e487b7160e01b5f52604160045260245ffd5b601f909101601f19168101906001600160401b03821190821017610fb957604052565b815181546001600160a01b0319166001600160a01b03918216178255602083015160018301805460408601516001600160a81b0319909116929093169190911760a092831b60ff60a01b16179055606083015160028301556080830151600383015590910151600490910155565b5f19811461106c5760010190565b634e487b7160e01b5f52601160045260245ffd5b6040519061108d82610f9e565b5f60a0838281528260208201528260408201528260608201528260808201520152565b81156110ba570490565b634e487b7160e01b5f52601260045260245ffd5b9190820180921161106c57565b906040516110e881610f9e565b60a06004829460ff600180851b0380835416865260018301549081166020870152841c16604085015260028101546060850152600381015460808501520154910152565b9190820391821161106c57565b92909160018060a01b0390818516805f5260019060209482865260409685885f2091165f52865261116b875f206110db565b936080850151156114ff57825f52600594858852885f209160ff808b840151169116145f1461149f578482016111a1815461105e565b9055858201906111b1825461105e565b80925560a060649101518181029080820483149015171561106c57819004810180911161106c57898186929089851015611467575b505f8051602061173183398151915292935060048501906112088183546110ce565b80925582519182528b820152a25b5f82131561143357600261122d91019182546110ce565b90555b815f815b611394575b50505f5281845260049384865f2001546006549687945f5b868110611358575b50505050506064851061126f575b505050505050565b600160401b821015610374578161128d916112a29301600655610f86565b81549060018060a01b039060031b1b19169055565b6006545f199290838101908111611332575b8481116112f55750505050906112cc6112d292610f86565b906116e2565b6064600654116112e8575b5f8080808080611267565b6112f06116ff565b6112dd565b8381018181116113455761130b61132591610f86565b90548561131785610f86565b92909360031b1c16916116e2565b80156113325783016112b4565b601182634e487b7160e01b5f525260245ffd5b601183634e487b7160e01b5f525260245ffd5b8761136282610f86565b90549060031b1c165f5281855288835f2001548411611382578501611251565b94985050505050935f80808080611259565b60069086825482101561142c578392856113ad84610f86565b939054600394851b1c16146113c55750500181611234565b91909250925b6113e2575b5050506113db6116ff565b815f611239565b80545f19810190811161106c578310156114275784830180841161106c578593611420896114108794610f86565b905490871b1c166112cc83610f86565b01926113cb565b6113d0565b5050611239565b5f8212611442575b5050611230565b600160ff1b821461106c57600361145e9101915f0382546110ce565b90555f8061143b565b92505050600a820291808304600a149015171561106c578961149886935f80516020611731833981519152936110ce565b83926111e6565b5084810180546114f6575b5060048101805490603282116114c2575b5050611216565b6031199081830192831161106c57825f805160206117318339815191529287948d935582519182528b820152a25f806114bb565b5f90555f6114aa565b505050505050505050565b6001600160401b038111610fb95760051b60200190565b9061152b8261150a565b6115386040519182610fcd565b8281528092611549601f199161150a565b0190602036910137565b8051821015610f265760209160051b010190565b60018060a01b0380911692835f52600360209160038352604090815f2054908187101561168f576115ac9161159d8892836110ce565b90808211611687575b5061112c565b946115b68661150a565b966115c383519889610fcd565b868852601f196115d28861150a565b01855f5b828110611671575050505f5b8781106115f457505050505050505090565b600190825f52858752611613855f2061160d83876110ce565b90610f0d565b50600586519161162283610f9e565b8a81541683528a85820154168a84015260028101548884015288810154606084015260048101546080840152015460a082015261165f828c611553565b5261166a818b611553565b50016115e2565b611679611080565b82828d0101520186906115d6565b90505f6115a6565b5050805195509185019350909150506001600160401b03821183831017610fb957525f815290565b5f546001600160a01b031633036116ca57565b60405163118cdaa760e01b8152336004820152602490fd5b919060018060a01b038084549260031b9316831b921b1916179055565b600654801561171c575f190161171761128d82610f86565b600655565b634e487b7160e01b5f52603160045260245ffdfe532db08b38fe0e0a4d67d20276b03a9c274f7ec901ce23f65aad1b3bb99fe9148be0079c531659141344cd1fd0a4f28419497f9722a3daafe3b4186f6b6457e0a264697066735822122060e03e5df508e37e6b5de23bbce387492165fc4a0a024d6b3ae0390b2e1b80e964736f6c63430008180033","linkReferences":{}},"methodIdentifiers":{"MAX_LEADERBOARD_SIZE()":"db877142","getLeaderboard(uint256)":"a34b46fe","getMarketComments(address,uint256,uint256)":"f99b1a80","getUserPrediction(address,address)":"6331c05b","getUserPredictionHistory(address,uint256)":"b93eaded","getUserStats(address)":"4e43603a","hasVoted(bytes32)":"1b4613cb","leaderboard(uint256)":"bf368399","makePrediction(address,uint8,uint256,bytes32)":"301097ba","marketComments(address,uint256)":"6c7f3de2","owner()":"8da5cb5b","postComment(address,bytes32)":"9209e7f8","renounceOwnership()":"715018a6","transferOwnership(address)":"f2fde38b","updatePredictionResult(address,address,uint8,int256)":"73a1814d","userPredictionHistory(address,uint256)":"751239a0","userPredictions(address,address)":"34056322","userStats(address)":"8a65d874","voteOnComment(address,uint256,bool)":"ce1d4521"},"id":46}